:020000040800F2
:10000000B0070020E52A0008D11F0008D31F000810
:10001000D71F0008DB1F0008DF1F000800000000DA
:10002000000000000000000000000000E31F0008C6
:10003000E51F000800000000E71F0008E91F000896
:10004000FF2A0008FF2A0008FF2A0008FF2A0008EC
:10005000FF2A0008FF2A0008FF2A0008FF2A0008DC
:10006000FF2A0008FF2A0008FF2A0008FF2A0008CC
:10007000FF2A0008FF2A0008FF2A0008FF2A0008BC
:10008000FF2A0008FF2A0008FF2A0008FF2A0008AC
:10009000FF2A0008FF2A0008FF2A0008FF2A00089C
:1000A000FF2A0008FF2A0008FF2A0008FF2A00088C
:1000B000FF2A0008FF2A0008FF2A0008FF2A00087C
:1000C000FF2A0008FF2A0008FF2A0008FF2A00086C
:1000D000FF2A0008FF2A0008FF2A0008FF2A00085C
:1000E000FF2A0008FF2A0008FF2A0008FF2A00084C
:1000F000FF2A0008FF2A0008FF2A0008FF2A00083C
:10010000FF2A0008FF2A0008FF2A0008FF2A00082B
:10011000FF2A0008FF2A0008FF2A0008FF2A00081B
:10012000FF2A0008FF2A0008FF2A0008FF2A00080B
:1001300000F002F800F05AF80AA090E8000C82449F
:100140008344AAF10107DA4501D100F04FF8AFF27C
:10015000090EBAE80F0013F0010F18BFFB1A43F0A5
:10016000010318479CC50000BCC500000A444FF0BD
:10017000000C10F8013B13F0070408BF10F8014B06
:100180001D1108BF10F8015B641E05D010F8016B4B
:10019000641E01F8016BF9D113F0080F1EBF10F8AF
:1001A000014BAD1C0C1B09D16D1E58BF01F801CBD2
:1001B000FAD505E014F8016B01F8016B6D1EF9D555
:1001C0009142D6D37047000000230024002500266A
:1001D000103A28BF78C1FBD8520728BF30C148BFAA
:1001E0000B6070471FB51FBD10B510BD04F098F926
:1001F0001146FFF7F7FF01F01FFC04F0B6F903B456
:10020000FFF7F2FF03BC04F0B9F9000070B5054632
:100210000E4614463146284602F024FA204602F0E3
:10022000E0F970BD2DE9F05F04460D4616461F4605
:10023000301B401C1FFA80FA781B401C1FFA80FB01
:100240003B4632462946204602F0E2F94FF00008CC
:100250000FE04FF0000906E00A9802F0C2F909F138
:1002600001001FFA80F9D145F6DB08F101001FFA01
:1002700080F8D845EDDBFE484088401E83B2FC483C
:100280000088401E82B20021084602F0C1F9BDE894
:10029000F09F2DE9FF4F85B081468A4600200490EB
:1002A00003900798A0EB09050898A0EB0A06CDF883
:1002B0000890CDF804A0002D01DD012705E00DB95F
:1002C000002702E04FF0FF376D42002E02DD4FF0B5
:1002D000010806E016B94FF0000802E04FF0FF38C1
:1002E0007642B54201DD2C4600E034464FF0000B6B
:1002F00021E0019A91B2029A90B202F0BDF90498FD
:10030000284404900398304403900498A04205DDEB
:100310000498001B04900298384402900398A0426D
:1003200005DD0398001B03900198404401900BF1F8
:1003300001001FFA80FB601C8345DADD09B0BDE8CF
:10034000F08F2DE9F04104460D4616461F462B4618
:10035000324629462046FFF79CFF3B462246294667
:100360002046FFF796FF3B46324639462046FFF7C8
:1003700090FF3B46324629463046FFF78AFFBDE8EC
:10038000F081F8B504460D4616461F46B948008868
:100390003B463246294600902046FFF743FFF8BD12
:1003A0002DE9F04104460D4616461F46DDF818803B
:1003B000EA1991B2A21990B24246FFF727FFEA1953
:1003C00091B2A21B90B24246FFF720FFEA1B91B206
:1003D000A21990B24246FFF719FFEA1B91B2A21B85
:1003E00090B24246FFF712FFAA1991B2E21990B2F9
:1003F0004246FFF70BFFAA1991B2E21B90B24246A8
:10040000FFF704FFAA1B91B2E21990B24246FFF730
:10041000FDFEAA1B91B2E21B90B24246FFF7F6FE28
:10042000BDE8F0812DE9FF4F81B08246174698461E
:10043000DDF838B0002445464FEA4800C0F1030615
:10044000BBF1000F1FD01BE0A14608E04B4622463F
:10045000009750460299FFF7A3FF09F10109A9454A
:10046000F4DD002E04DA042000FB0460861D06E0A3
:10047000601B042101FB006000F10A066D1E641C74
:10048000AC42E1DD18E015E02B46224600975046CD
:100490000299FFF785FF002E04DA042000FB0460B8
:1004A000861D06E0601B042101FB006000F10A06C6
:1004B0006D1E641CAC42E7DD05B0BDE8F08F2DE990
:1004C000F04704460D4616461F46DDE908893B46BF
:1004D000324629462046FFF7DCFE4B464246394667
:1004E0003046FFF7D6FE2B46224649464046FFF7E8
:1004F000D0FEBDE8F08702880B8803800A80704731
:100500002DE9FF4F85B000260027BDF81800BDF883
:100510002010884207DD08A906A8FFF7ECFF07A90D
:1005200005A8FFF7E8FFBDF82000BDF84C10884291
:1005300007DD08A913A8FFF7DEFF07A912A8FFF738
:10054000DAFFBDF81800BDF82010884207DD08A9C1
:1005500006A8FFF7D0FF07A905A8FFF7CCFFBDF855
:100560001800BDF84C10884238D1BDF81400039033
:100570000490BDF81C00BDF81010884203DABDF8E5
:100580001C00049008E0BDF81C00BDF80C10884267
:1005900002DDBDF81C000390BDF84800BDF8101046
:1005A000884203DABDF84800049008E0BDF848002E
:1005B000BDF80C10884202DDBDF8480003902D48BC
:1005C00000880090BDF81830BDF80C201946BDF821
:1005D0001000FFF727FE09B0BDE8F08FBDF81C0042
:1005E000BDF81410A0EB010BBDF82000BDF81810E9
:1005F000401A0290BDF84800BDF81410451ABDF825
:100600004C00BDF81810A0EB0109BDF84800BDF87A
:100610001C10A0EB010ABDF84C00BDF82010401AD8
:100620000190BDF82000BDF84C10884202D1BDF801
:10063000208004E0BDF82000401E1FFA80F8BDF8BD
:1006400018402CE0029896FBF0F0BDF81410084416
:1006500080B2049097FBF9F0BDF81410084480B202
:1006600003905E442F44BDF81000BDF80C1003E069
:100670003C0100201C010020884203DD03A904A8DE
:10068000FFF739FFFE48008823460090BDF80C2094
:100690002146BDF81000FFF7C5FD601C84B244453B
:1006A000D0DDBDF82000201A00FB0AF6BDF81800C6
:1006B000201A00FB05F727E0019896FBF0F0BDF843
:1006C0001C10084480B2049097FBF9F0BDF8141098
:1006D000084480B2039056442F44BDF81000BDF882
:1006E0000C10884203DD03A904A8FFF704FFE448C7
:1006F000008823460090BDF80C202146BDF810006C
:10070000FFF790FD601C84B2BDF84C008442D3DD3D
:1007100000BF60E72DE9FF4F83B081468A469346CC
:10072000DDE91064D64800880290A6F12000C6B228
:1007300004EBD47009EB6000401E82B20AEB0400A7
:10074000401E83B251464846019401F061FF129861
:1007500050BB002525E00C2C07D106EB4600C9490B
:1007600001EB800010F8058004E0C74800EB06109C
:1007700010F8058000270DE008F0010018B1584678
:1007800001F02FFF02E0069801F02BFF4FEA680806
:10079000781CC7B204EBD471B7EB610FECDB681CBB
:1007A000C5B2A542D7DB2DE0002529E00C2C07D1EE
:1007B00006EB4600B34901EB800010F8058004E029
:1007C000B14800EB061010F80580002711E0AC4896
:1007D000A0F800B008F0010038B10AEB050291B2B0
:1007E00009EB070290B201F047FF4FEA6808781C56
:1007F000C7B204EBD471B7EB610FE8DB681CC5B27C
:10080000A542D3DB9E4902980880A0484088401E3C
:1008100083B29E480088401E82B20021084601F043
:10082000F7FE07B0BDE8F08F2DE9FE4306460F4600
:1008300015461C46DDF828801DE094480088401EBF
:10084000B04204DB91484088401EB84201DABDE85E
:10085000FE8320788DE821018D480388884802882E
:1008600039463046FFF756FF284605EBD07106EBB8
:1008700061018EB2641C20787E2802DC207820285A
:10088000DBDA00BFE3E710B50246012000E0504389
:100890000B1EA1F10104E1B2F9D110BD2DE9FF4F0A
:1008A00083B0074691461E46109C4FF0000A002573
:1008B00043E0701B401EC1B20A20FFF7E4FFB9FB02
:1008C000F0F00A21B0FBF1F201FB1208BAF1000FBF
:1008D0001BD1701EA84218DDB8F1000F13D1002003
:1008E0002021A346CDE90014029004EBDB714910EE
:1008F00001FB057188B266490B8861490A88049931
:10090000FFF708FF17E04FF0010A002108F130005F
:10091000C0B2A346CDE90141009004EBDB71491060
:1009200001FB057188B25A490B8855490A88049918
:10093000FFF7F0FE00BF681CC5B2B542B9DB07B0D7
:10094000BDE8F08F2DE9FC5F0546884691469A4642
:10095000DDF830B000953E20019000245FE004EB0C
:1009600004104C4911F810009BF80010884253D134
:1009700004EB0410474901EB400040789BF801105C
:10098000884249D108F10F0083B205F10F0082B20D
:100990004146284601F03CFE00263BE0002734E0BB
:1009A0000D9890B904EB04103A4901EB4000801C0B
:1009B000805D80213941084018B1484601F011FEA0
:1009C00021E0504601F00DFE1DE02D48A0F80090FA
:1009D00004EB04102F4901EB4000801C805D802156
:1009E0003941084018B14146284601F045FE681CCF
:1009F00085B20098281A102805D1009D08F1010041
:100A00001FFA80F803E0781CC7B2082FC8DB00BFCC
:100A1000701CC6B2202EC1DB00BF601C84B20198DE
:100A200084429CDB19484088401E83B217480088E6
:100A3000401E82B20021084601F0EAFDBDE8FC9F9D
:100A40002DE9FC5F0546884691469A46DDF830B0B0
:100A5000009507200190002476E004EB840000EB71
:100A600044100D4911F810009BF80010884268D11D
:100A700004EB840000EB4410074901EB40000DE05B
:100A80001C010020EE490008624E00083C010020D5
:100A90001E010020525400088E5C000840789BF82C
:100AA000011088424DD108F1170083B205F11700FB
:100AB00082B24146284601F0ABFD00263FE0002708
:100AC00038E00D98A0B904EB840000EB4410CD4948
:100AD00001EB4000801C805D80213941084018B145
:100AE000484601F07EFD23E0504601F07AFD1FE00C
:100AF000C548A0F8009004EB840000EB4410C14905
:100B000001EB4000801C805D80213941084018B114
:100B10004146284601F0B0FD681C85B20098281AAD
:100B2000182805D1009D08F101001FFA80F803E0A4
:100B3000781CC7B2082FC4DB00BF701CC6B2482E99
:100B4000BDDB00BF601C84B20198844285DBAF48E6
:100B50004088401E83B2AD480088401E82B200210A
:100B6000084601F055FDBDE8FC9F2DE9FC5F0546F8
:100B7000884691469A46DDF830B0009504200190F1
:100B800000245FE004EB8410A14911F810009BF8E9
:100B90000010884253D104EB84109D4901EB4000C2
:100BA00040789BF80110884249D108F11F0083B2B8
:100BB00005F11F0082B24146284601F029FD0026BA
:100BC0003BE0002734E00D9890B904EB8410904985
:100BD00001EB4000801C805D80213941084018B144
:100BE000484601F0FEFC21E0504601F0FAFC1DE011
:100BF0008548A0F8009004EB8410854901EB400083
:100C0000801C805D80213941084018B1414628464A
:100C100001F032FD681C85B20098281A202805D101
:100C2000009D08F101001FFA80F803E0781CC7B2AC
:100C3000082FC8DB00BF701CC6B2802EC1DB00BF0E
:100C4000601C84B2019884429CDB70484088401E3E
:100C500083B26E480088401E82B20021084601F02F
:100C6000D7FCBDE8FC9F2DE9FF4F83B006468846C0
:100C70009146DDE91147109DB2464FF0000B71E03F
:100C8000BBF1000F40D104EBD471604A1288A2EB93
:100C90006101B14204DB5D494988091B414502DA23
:100CA00007B0BDE8F08F2878802802DD4FF0010BF7
:100CB00058E028780D2806D108EB04001FFA80F8C8
:100CC00056466D1C1EE0102C0DDD102128788DE895
:100CD00083004A4641463046069BFFF71BFD06F15E
:100CE000080086B20EE028788DE891004A46414619
:100CF0003046069BFFF70EFD204604EBD07106EB55
:100D000061018EB26D1C2DE040480088001BB0428E
:100D100004DB3E484088001B404500DAC0E74FF046
:100D2000000B202C08D1CDE900574A4641463046F9
:100D3000069BFFF71AFF12E0182C08D1CDE90057E7
:100D40004A4641463046069BFFF77AFE07E0CDE96A
:100D500000574A4641463046069BFFF7F3FDAD1C5F
:100D6000301986B2287800288AD100BF98E72DE98B
:100D7000FE4F0E4617469846DDE90D9A0C9C20461C
:100D800003F0A8FB85B221490988A1EBC50000EB5F
:100D9000D071C1F34F0B43463A46314658468DE871
:100DA0001006FFF760FFBDE8FE8F2DE9F04706460D
:100DB0000F46154607F1270083B206F1270082B2DD
:100DC0003946304601F024FC00240AE015F814905E
:100DD00005EB440090F8018049EA082001F001FC8D
:100DE000641CB4F5C86FF1DB08484088401E83B22C
:100DF00006480088401E82B20021084601F008FC27
:100E0000BDE8F0878E5C00081C0100203C0100203A
:100E1000945E00082DE9FE4F04464FF6FF700090E7
:100E2000FE484388028800210846FFF7FBF9FC488A
:100E30000A231A4605210090084601F0C7F9F9482F
:100E40000A231A4605210090902001F0BFF94CB901
:100E50004FF6FF754FF478460027A8464FF000097B
:100E6000AA4613E0012C09D100254FF6FF7637463C
:100E70004FF478484FF00009B24607E000254FF6DE
:100E8000FF760027B046B1464FF4784A002C53D184
:100E90004FF478400090E1480088083882B22C2353
:100EA0001C210820FFF7BEF94FF4784028230822C0
:100EB000202100900420FFF7B5F94FF4784020235B
:100EC00008221E2100900620FFF7ACF94FF478406D
:100ED0002A230822282100900620FFF7A3F94FF4C7
:100EE0007840CE4900900988091F8AB2CB49098809
:100EF000083988B228232021FFF794F94FF478406D
:100F0000C64900900988891F8AB2C44909880839EE
:100F100088B220231E21FFF785F94FF47840BF499E
:100F200000900988891F8AB2BC490988083988B2AB
:100F30002A232821FFF776F9BB4809230B22202119
:100F400000900C2001F042F9B8480580B8480680AE
:100F500000201021B7A23346CDE9002102902A4695
:100F60001C211A20FFF77FFE012C53D14FF478404B
:100F70000090AA480088083882B24423342108200F
:100F8000FFF750F94FF478404023082238210090B1
:100F90000420FFF747F94FF4784038230822342122
:100FA00000900620FFF73EF94FF4784044230822D2
:100FB000402100900620FFF735F94FF4784097491B
:100FC00000900988091F8AB294490988083988B2B3
:100FD00040233821FFF726F94FF478408F490090DD
:100FE0000988891F8AB28D490988083988B238234F
:100FF0003421FFF717F94FF47840884900900988A9
:10100000891F8AB285490988083988B2442340215A
:10101000FFF708F98C480B230922382100900C2097
:1010200001F0D4F8814807808148A0F800800020B2
:10103000102186A24346CDE9002102903A46342190
:101040001A20FFF710FE022C53D14FF47840009085
:1010500072480088083882B25C234C210820FFF7D0
:10106000E1F84FF4784058230822502100900420E2
:10107000FFF7D8F84FF47840502308224C21009015
:101080000620FFF7CFF84FF478405C230822582160
:1010900000900620FFF7C6F84FF478405F490090B3
:1010A0000988091F8AB25D490988083988B258231E
:1010B0005021FFF7B7F84FF478405849009009885D
:1010C000891F8AB255490988083988B250234C21B2
:1010D000FFF7A8F84FF47840504900900988891F1D
:1010E0008AB24E490988083988B25C235821FFF733
:1010F00099F85B480B230822502100900C2001F046
:1011000065F84A48A0F800904948A0F800A00020DF
:10111000102154A25346CDE9002102904A464C21A9
:101120001A20FFF7A0FDBDE8FE8F2DE9FC5F054604
:101130000E4690469946C8F1010A4FF0010B4FEA5E
:101140004800404201900027444606EB080083B265
:10115000A6EB080081B22A462846CDF80090FFF79A
:1011600061F805EB08018AB2A5EB080188B23346A5
:101170003146CDF80090FFF755F893E0BAF1000F33
:1011800009DB601E04B20198801C00B20190019836
:1011900050440FFA80FA781C07B20BF102000FFAE4
:1011A00080FB0AEB0B000FFA80FA06EB040C1FFA27
:1011B0008CF305EB070C1FFA8CF206EB040C1FFAFC
:1011C0008CF1A5EB070C1FFA8CF0CDF80090FFF71F
:1011D00029F8A6EB040C1FFA8CF305EB070C1FFA99
:1011E0008CF2A6EB040C1FFA8CF1A5EB070C1FFA8E
:1011F0008CF0CDF80090FFF715F806EB070C1FFAFE
:101200008CF305EB040C1FFA8CF206EB070C1FFAAB
:101210008CF1A5EB040C1FFA8CF02BE03C010020B4
:101220005A7A0008D67B0008DC9100081C010020D7
:101230001E01002048656174696E6720536368650C
:1012400064756C6500000000A2920008436F6E7424
:10125000726F6C2041646A7573746D656E74000002
:1012600068930008557365722053657474696E67DE
:1012700073000000CDF80090FEF7D4FFA6EB070C3A
:101280001FFA8CF305EB040C1FFA8CF2A6EB070C8B
:101290001FFA8CF1A5EB040C1FFA8CF0CDF800902E
:1012A000FEF7C0FFA742FFF669AFBDE8FC9F2DE93E
:1012B000F04F8BB0F94A07CA08AB07C3F7490C31A6
:1012C00003C9CDE906014FF6FF700090F44843884A
:1012D000028800210846FEF7A5FFF248007858B9B9
:1012E000F148007840B9F1480A230922052100900D
:1012F000084600F06BFF07E0ED480A231A46052177
:101300000090084600F062FFE648007860B9E648C1
:101310000078012808D1E7480A231A4605210090E1
:10132000902000F053FF07E0E3480A231A46052106
:101330000090902000F04AFF0020E04908804FF61E
:10134000FF70DF49088000201021DEA24FF6FF73F6
:10135000CDE900210290024619210A20FFF783FC03
:101360000021102208A8DB4B1B7850F823004FF611
:10137000FF73CDE9012100901F2219217A20FFF788
:1013800072FC00245EE000274FF6FF784FF018094A
:10139000022C01D1082100E0182104910499A9EB45
:1013A000010000EBD07106AA32F8142002EB6101B3
:1013B0001FFA81FABB480078012803D0B9480078A9
:1013C00002282BD1C4480078A04227D13C250A2608
:1013D00006A830F81400401E80B2039006A830F82A
:1013E00014004844401C1FFA80FB4FF6FF774FF46F
:1013F00078484346324629460398FFF796FE43460F
:10140000324629465846FFF790FE4046AB19A91BC5
:101410005A4600900398FEF705FF00BFA7480780D3
:10142000A748A0F800800021102208A850F8240046
:101430004346CDE9012100903A4634215046FFF75A
:1014400012FC641C032C9EDB96480078022802D113
:101450004FF4784000E000200590002010219FA26A
:101460004FF6FF73CDE90021029069217320059AA0
:10147000FFF7F9FB0BB0BDE8F08F3EB504464FF621
:10148000FF70009086484388028800210846FEF7D6
:10149000C9FE44B186480A231A4605210090084631
:1014A00000F094FE07E081480A23092205210090FC
:1014B000084600F08BFE44B17E480A231A460521F7
:1014C0000090902000F082FE07E07B480A231A4635
:1014D00005210090902000F079FE824809230B221C
:1014E0001E2100900A2000F071FE00207349088040
:1014F0004FF6FF707249088000201021AFF2CC2215
:101500004FF6FF73CDE90021029002461C211E20F8
:10151000FFF7A9FB74480B230922342100901846D9
:1015200000F054FE00201021AFF2E0224FF6FF73CE
:10153000CDE900210290024634211E20FFF793FBE3
:101540006A480B2308224C2100900C2000F03EFE3C
:1015500000201021AFF2F4224FF6FF73CDE90021F5
:10156000029002464C211E20FFF77DFB3EBD2DE977
:10157000FF5F80460C4692460020039002900021B7
:10158000404603F08DF808D20120029088F0004B0D
:10159000584603F069F8054603E0404603F064F856
:1015A00005460021404603F07BF901D8404601E0A2
:1015B00088F000404E49019003F0A6F8834603F0FE
:1015C00053F80A2190FBF1F201FB1206002E00DA1B
:1015D0000026092E00DD09260A2D0DDB0A2095FBC9
:1015E000F0F000F0FF090A2095FBF0F100FB11502C
:1015F000C7B20120039004E04FF00009EFB20020D1
:101600000390029888B1039838B1542315225021D1
:1016100005200094FEF706FE10E0542333225021EB
:1016200023200094FEF7FEFD08E04FF6FF705423E0
:101630003322502100900520FEF7F4FD039860B39B
:101640004FF6FF706A2337222A2100901420FEF7FC
:10165000E9FD4FF6FF706A235F222A2100903820AF
:10166000FEF7E0FD002109F13000C0B24FF6FF7334
:101670002246CDE900012A21162000F0DBFD0021E1
:1016800007F13000C0B24FF6FF732246CDE90001EA
:101690002A213B2000F0CEFD39E02BE0E894000841
:1016A0003C0100208C0000208D000020227B0008DF
:1016B0005A7A00089E7C0008D67B00081C01002096
:1016C0001E01002043757272656E74205479706536
:1016D0003A2000008B0000208E00002053617665C8
:1016E00000000000DC910008A29200086893000846
:1016F00000002041002107F13000C0B24FF6FF7317
:101700002246CDE900012A213B2000F093FDBAF1E9
:10171000000F28D0622364225E2160200094FEF72F
:1017200081FD612365225F2108460094FEF77AFD62
:1017300063236422194660200094FEF773FD5D2345
:101740006422194660200094FEF76CFD012106F129
:101750003000C0B24FF6FF732246CDE900014A21A6
:101760006D2000F067FDBDE8FF9F2DE9F8430446BA
:1017700090255D264FF00E080C274FF6FF70009065
:10178000F019401E83B205EB0800401E82B23146BC
:101790002846FEF747FD44B1FC483B4642463146E9
:1017A0000090284600F012FD07E0F9483B4642460B
:1017B00031460090284600F009FDBDE8F8831CB5CD
:1017C0004FF6FF700090F3484388028800210846D6
:1017D000FEF728FD0020F04908804FF6FF70EF4922
:1017E0000880012031214FF6FF730022CDE900105F
:1017F0000521084600F01EFD012030214FF6FF7341
:101800000022CDE900100521152000F013FD002075
:1018100012232B220F2100902820FEF703FD002029
:101820001C232B22192100902820FEF7FBFC01200D
:1018300033214FF6FF730022CDE9001005212F2040
:1018400000F0F8FC012032214FF6FF730022CDE9B1
:10185000001005213F2000F0EDFC00F0A7FD002066
:10186000FFF783FF01220021CD480068FFF77FFECC
:101870001CBD08B54FF6FF706C2382222821009012
:101880000520FEF7CFFC08BD70B50546642D00DDD0
:1018900064254FF4FA606843642190FBF1F084B250
:1018A000B4F5FA6F01DB40F2CF742146BD4802F077
:1018B0007BFD70BD10B5BC48007800283DD00121EB
:1018C000BA4801F090FA01280DD10A2002F0C6FDB5
:1018D0000121B64801F087FA012841D10020B24920
:1018E0000870012010BD4FF40051B14801F07BFA9F
:1018F00001280ED10A2002F0B1FD4FF40051AC488E
:1019000001F071FA01282BD10020A74908700220AC
:10191000E8E71021A54801F066FA012820D10A2045
:1019200002F09CFD1021A14801F05DFA012817D1B9
:1019300000209D4908700320D4E701219B4801F055
:1019400052FA68B94FF40051994801F04CFA38B98D
:101950001021964801F047FA10B901209249087009
:101960000020BFE700B589B00121082001F064FC28
:101970000121042001F06DFC4FF40070ADF820004F
:1019800018208DF8230003208DF8220008A989482B
:1019900001F096F940F2CF70ADF818004720ADF88D
:1019A00014000020ADF81A00ADF8160005A97D4816
:1019B00001F000FF6020ADF804000120ADF8060042
:1019C0000020ADF80A00ADF80C0001A9754802F03E
:1019D00008F80821734802F098FB0121714802F0D1
:1019E00045FB01216F4802F041FA09B000BD08B57E
:1019F0000121142001F020FC0120ADF80000282076
:101A00008DF803006946694801F05AF94FF4005017
:101A1000ADF8000028208DF803006946644801F005
:101A20004FF91020ADF8000028208DF8030069461A
:101A30005E4801F045F908BD1CB500F046FB4820A2
:101A400002F0F2FC00F0B2FEFFF7D1FFFFF78AFFD1
:101A5000012000F06FFE4FF6FF7000904D48438864
:101A6000028800210846FEF7DDFB00204A49088075
:101A70004FF6FF7049490880012031214FF6FF736E
:101A80000022CDE900100521084600F0D3FB01201B
:101A900030214FF6FF730022CDE9001005211520FB
:101AA00000F0C8FB002012232B220F2100902820D9
:101AB000FEF7B8FB00201C232B22192100902820C0
:101AC000FEF7B0FB012033214FF6FF730022CDE972
:101AD000001005212F2000F0ADFB012032214FF630
:101AE000FF730022CDE9001005213F2000F0A2FB8A
:101AF00000F05CFC0122002129480068FFF737FD57
:101B000000202D4908706420FFF7BEFE00202B49FD
:101B1000086039E2FFF7CEFE044627480078002827
:101B20007DD1012C01D0022C1DD12548007830B187
:101B300000202349087008460078FFF716FE0220AF
:101B40001D49087000201D4908601E490860FFF704
:101B500090FE00221F2112480068FFF708FDC820F0
:101B600002F07CFC0DE2032C3FD11548007868B3ED
:101B70000320114908700020104908600120124913
:101B8000087008460078FFF778FC27E0BA7700086D
:101B90006A7600083C0100201C0100201E01002084
:101BA00078000020000800408F000020000801405D
:101BB00000100140000C01407C000020800000204B
:101BC000880000208400002089000020FFE7012019
:101BD000EE49087008460078FFF7C7FD0020EC4981
:101BE0000860C82002F03AFCCBE1E9480068401CDC
:101BF000E7490860B0F57A7FB4D3E448007830B1A3
:101C00000020E249087008460078FFF7AEFD012089
:101C1000E04908700020DE490860142000E002E07E
:101C2000FFF732FEADE1DB48007801280DD1002C32
:101C300098D00020D7490870D54908606420FFF784
:101C400023FEC82002F00AFC9BE1D248007802285B
:101C500074D1012C21D14FF07E51CF48006802F0A1
:101C600095FCCD490860CD49CB48006802F018FECC
:101C700002D2CA48C84908600020C5490860C8495E
:101C80000860FFF7F6FD00221F21C3480068FFF738
:101C90006EFCC82002F0E2FB37E0022C21D14FF0AD
:101CA0007E51BD48006802F02DFEBB490860BD4969
:101CB000B948006802F0F4FC02D2BA48B64908609C
:101CC0000020B3490860B6490860FFF7D2FD002242
:101CD0001F21B1480068FFF74AFCC82002F0BEFB94
:101CE00013E0032C11D10020AA490870AC49086008
:101CF000A7490860FFF7BDFD01220021A648006842
:101D0000FFF735FCC82002F0A9FBA5480068401C7D
:101D1000A3490860B0F5FA7F84D300209D4908707C
:101D20009F4908609A490860FFF7A3FD012200213E
:101D300099480068FFF71BFC23E1FFE7954800780E
:101D4000032850D1012C01D0022C2FD196480078C5
:101D500008B9012000E00020934908700846007887
:101D600080B192480A231A4605210090084600F0E7
:101D70002DFA8F480A231A4605210090902000F082
:101D800025FA0FE08B480A23092205210090084616
:101D900000F01CFA88480A231A460521009090207A
:101DA00000F014FAC82002F059FBEAE0032CC3D17A
:101DB0007D48007850B104207649087000207F49A2
:101DC000087008460078FFF725F808E00020714900
:101DD00008706F4908606D490870FFF7F0FCC82073
:101DE00002F03CFBCDE06B480078042844D1022C83
:101DF00010D172480078022808DA70480078401C38
:101E00006E49087008460078FFF704F8C82002F011
:101E100025FBB6E0012C1BD168480078002809DDBD
:101E200066480078401E6549087008460078FEF74D
:101E3000F1FF09E003205749087000205A49087053
:101E400008460078FFF719FBC82002F007FB98E06E
:101E5000032CAAD15948007850B905204D49087083
:101E6000002057490870012056490870FFF71FFAF3
:101E7000C82002F0F3FA84E046480078052813D120
:101E80004F48007858BB012C01D0022C0DD14D4891
:101E9000007808B9012000E000204A490870FFF7E7
:101EA00006FAC82002F0DAFA6BE0032C69D1454843
:101EB000007838B904203749087040480078FEF7A8
:101EC000A9FF08E001203E4908703F4800783F49DB
:101ED0000870FFF7ECF9C82002F0C0FA51E038486A
:101EE000007801282CD1012C0ED138480078002828
:101EF00006DD36480078401E34490870FFF7D7F9F0
:101F0000C82002F0ABFA3CE0022C0ED12F4800783A
:101F1000022806DA2D480078401C2C490870FFF78B
:101F2000C6F9C82002F09AFA2BE0032C29D102202E
:101F300023490870FFF7BBF9C82002F08FFA20E0B0
:101F40001F48007802281CD1012C01D0022C08D196
:101F500001201B490870FFF7AAF9C82002F07EFA99
:101F60000FE0032C0DD119480078174908700420A0
:101F70000849087011480078FEF74CFFC82002F0AD
:101F80006DFA0A2002F06AFAC4E500008800002019
:101F9000800000207C000020780000200000C64265
:101FA000840000200000C6C2890000205A7A000880
:101FB0009E7C0008227B0008D67B00088A00002057
:101FC0008C0000208D0000208B0000208E0000205F
:101FD000704700BFFEE700BFFEE700BFFEE700BF9F
:101FE000FEE7704770477047704700000CB500204F
:101FF000019000906C48006840F480306A490860A5
:1020000000BF6948006800F4003000900198401C4F
:102010000190009818B90198B0F5A06FF1D162480D
:10202000006800F4003010B10120009001E00020B1
:1020300000900098012843D15C48006840F01000EF
:102040005A4908600846006820F003000860084606
:10205000006840F0020008605348406852494860F8
:102060000846406848600846406840F48060486020
:102070000846406820F47C1048600846406840F4F8
:10208000E81048600846006840F08070086000BFB3
:102090004548006800F000700028F9D042484068C8
:1020A00020F00300404948600846406840F00200C4
:1020B000486000BF3C48406800F00C000828F9D197
:1020C0000CBD10B5FFF792FF10BD10B53648006883
:1020D00040F001003449086008464068344908402F
:1020E0003149486008460068324908402E49086076
:1020F0000846006820F4802008600846406820F404
:10210000FE0048604FF41F008860FFF7DAFF4FF0D1
:1021100000602949086010BD10B500210020002290
:10212000214B5B6803F00C0121B1042906D008297A
:1021300028D107E0214B224C236027E01F4B204C85
:10214000236023E0184B5B6803F47010164B5B6848
:1021500003F48032022303EB904022B9194B43432E
:10216000174C23600DE0104B5B6803F4003323B180
:10217000144B4343124C236003E0104B4343104C79
:10218000236003E00D4B0E4C236000BF00BF064BE5
:102190005B68C3F303130C4CE15C094B1B68CB4039
:1021A000074C236010BD00000010024000200240D8
:1021B0000000FFF8FFFFF6FE08ED00E000127A00D5
:1021C0009000002000093D00940000202DE9F04718
:1021D0000746884615461E46DDF8209008EB0600A7
:1021E000401E83B27819401E82B24146384600F044
:1021F0000FFA00240CE019F81400012101EB44014E
:1022000019F8011040EA012A504600F0EAF9641C6E
:1022100005FB06F0A042EEDCD2484088401E83B2A7
:10222000D0480088401E82B20021084600F0F0F934
:10223000BDE8F0872DE9FF4F87B007468846149D1B
:10224000159890B92020049040200390042002901B
:10225000302D07DB392D05DCA5F13000C24951F8DE
:1022600020B03EE00BB0BDE8F08F1598012810D1EA
:10227000102004902020039002200290302D07DBD4
:10228000392D05DCA5F13000B84951F820B028E01F
:10229000E8E70C20049018200390022002902E2DD5
:1022A00014D1099808F1160C1FFA8CF307F1090CE8
:1022B0001FFA8CF208F1100C1FFA8CF107F1030CD5
:1022C00000901FFA8CF0FDF7ADFFCBE7302D07DB58
:1022D000392D05DCA5F13000A54951F820B000E00A
:1022E000C0E74FF00109CA4600265AE0002453E037
:1022F0002046E11704EB5171CA10029906FB012137
:1023000089B20691E11704EB5171C910A4EBC10227
:1023100080211141059106991BF80100059908409B
:10232000E0B1099806F1010C0CFB0A8CACF1010C30
:102330001FFA8CF304F1010C0CFB097CACF1010CCD
:102340001FFA8CF206FB0A8C1FFA8CF104FB097C45
:1023500000901FFA8CF0FDF765FF1BE00A9806F16C
:10236000010C0CFB0A8CACF1010C1FFA8CF304F18C
:10237000010C0CFB097CACF1010C1FFA8CF206FB82
:102380000A8C1FFA8CF104FB097C00901FFA8CF078
:10239000FDF748FF601C84B204988442A8DB701CDF
:1023A00086B203988642A1DB00BF5BE708B571489F
:1023B000006800906F484379027905216E20FFF78D
:1023C00005FF6C48806800906A48437B027B0521CA
:1023D0007F20FFF7FBFE6748806900906548437FD8
:1023E000027F05219020FFF7F1FE6248806B00908C
:1023F000604890F83D3090F83C2032219020FFF763
:10240000E5FE5C48806A00905A4890F82D3090F8BC
:102410002C205D219020FFF7D9FE08BD2DE9FF4F4C
:1024200087B0074688461C46149890B94FF0200A9A
:102430004FF0400B04200290302C07DB392C05DCD8
:10244000A4F13000484951F820903EE00BB0BDE8BF
:10245000F08F1498012810D14FF0100A4FF0200B84
:1024600002200290302C07DB392C05DCA4F130006F
:102470003E4951F8209028E0E8E74FF00C0A4FF071
:10248000180B022002902E2C14D1099808F1160C7A
:102490001FFA8CF307F1090C1FFA8CF208F1100CEB
:1024A0001FFA8CF107F1030C00901FFA8CF0FDF776
:1024B000B9FECBE7302C07DB392C05DCA4F130006A
:1024C0002B4951F8209000E0C0E7012006900590CC
:1024D000002642E000253CE02846E91705EB517153
:1024E000CA10029906FB012189B20491E91705EB94
:1024F0005171C910A5EBC1028021114103910499CA
:1025000019F801000399084008B3099806F1010C75
:102510000090DDF814E00CFB0E8CACF1010C1FFAFE
:102520008CF305F1010CDDF818E00CFB0E7CACF12E
:10253000010C1FFA8CF2DDF814C006FB0C8C1FFA9C
:102540008CF105FB0E7C1FFA8CF0FDF76BFE681C0E
:1025500085B25545C0DB701C86B25E45BADB00BF54
:1025600074E700003C010020A4000020CC00002003
:10257000F4000020DCB7000810B504464FF40060FA
:10258000FE490860401008602146FD4800F038FA16
:102590004FF40060F949091F086010BD10B50446EA
:1025A0004FF40060F54908604010091F086021469B
:1025B000F34800F025FA4FF40060F049091F086065
:1025C00010BD70B505460C462846FFF7D5FFE0B2B2
:1025D000FFF7E4FF70BD10B5EA49087AFFF7CCFFBA
:1025E00010BD10B504464FF40060E4490860401087
:1025F000091F08602112E24800F002FAE1B2E04847
:1026000000F0FEF94FF40060DC49091F086010BDBE
:102610002DE9F04104460D4616461F46D949887AF1
:10262000FFF7AAFF0020FFF7B9FFE0B2FFF7B6FF00
:102630000020FFF7B3FFF0B2FFF7B0FFD149087BEE
:10264000FFF79AFF0020FFF7A9FFE8B2FFF7A6FF08
:102650000020FFF7A3FFF8B2FFF7A0FFFFF7BBFFD3
:10266000BDE8F08170B504460D462B46224629464A
:102670002046FFF7CDFF70BD70B504460D462946D4
:102680002046FFF7EFFFC0480088FFF7AAFF70BDA4
:1026900070B50646BB484088401E83B2B9480088E2
:1026A000401E82B200210846FFF7B2FF4FF40060DF
:1026B000B24908604010091F086000240AE00025A4
:1026C00003E03046FFF78DFF6D1CAE480088A8423E
:1026D000F7D8641CAB484088A042F0D84FF40060A3
:1026E000A649091F086070BD08B50121082000F047
:1026F000A3FD4FF4F050ADF8000003208DF8020068
:1027000010208DF8030069469C48143800F0D8FA70
:1027100008BD10B54FF4805098490860642001F05E
:102720009DFE4FF480509549091F0860322001F04A
:1027300095FE10BD10B504462A20924948812B20F1
:1027400088812C20088134B1012C0ED0022C16D0A7
:10275000032C28D11DE080208A490880A0204880D1
:10276000C0213620FFF72DFF1EE0A02085490880FC
:1027700080204880A0213620FFF723FF14E080202E
:1027800080490880A020488000213620FFF719FFEB
:102790000AE0A0207B490880802048806021362004
:1027A000FFF70FFF00E000BF00BF10BD10B500F045
:1027B0004BF9FFF799FFFFF7ACFF1120FFF7DCFEA5
:1027C000782001F04BFEB120FFF7D6FE0120FFF785
:1027D000E5FE2C20FFF7E2FE2D20FFF7DFFEB22002
:1027E000FFF7CAFE0120FFF7D9FE2C20FFF7D6FE27
:1027F0002D20FFF7D3FEB320FFF7BEFE0120FFF729
:10280000CDFE2C20FFF7CAFE2D20FFF7C7FE0120CA
:10281000FFF7C4FE2C20FFF7C1FE2D20FFF7BEFE00
:10282000B420FFF7A9FE0720FFF7B8FEC020FFF78E
:10283000A3FEA220FFF7B2FE0220FFF7AFFE842026
:10284000FFF7ACFEC120FFF797FEC520FFF7A6FEFD
:10285000C220FFF791FE0A20FFF7A0FE0020FFF73D
:102860009DFEC320FFF788FE8A20FFF797FE2A20EF
:10287000FFF794FEC420FFF77FFE8A20FFF78EFE4D
:10288000EE20FFF78BFEC520FFF776FE0E20FFF748
:1028900085FE3620FFF770FEC020FFF77FFEE020A8
:1028A000FFF76AFE0F20FFF779FE1A20FFF776FE8A
:1028B0000F20FFF773FE1820FFF770FE2F20FFF7A1
:1028C0006DFE2820FFF76AFE2020FFF767FE22201A
:1028D000FFF764FE1F20FFF761FE1B20FFF75EFE7F
:1028E0002320FFF75BFE3720FFF758FE0020FFF79D
:1028F00055FE0720FFF752FE0220FFF74FFE102083
:10290000FFF74CFEE120FFF737FE0F20FFF746FEF2
:102910001B20FFF743FE0F20FFF740FE1720FFF7B5
:102920003DFE3320FFF73AFE2C20FFF737FE29202B
:10293000FFF734FE2E20FFF731FE3020FFF72EFE8A
:102940003020FFF72BFE3920FFF728FE3F20FFF74E
:1029500025FE0020FFF722FE0720FFF71FFE0320C1
:10296000FFF71CFE1020FFF719FE2A20FFF704FED8
:102970000020FFF713FE002008E00000140C0140C7
:10298000003800403C0100201C010020FFF706FE3B
:102990000020FFF703FE7F20FFF700FE2B20FFF74C
:1029A000EBFD0020FFF7FAFD0020FFF7F7FD002008
:1029B000FFF7F4FD9F20FFF7F1FDF020FFF7DCFDAE
:1029C0000120FFF7EBFDF620FFF7D6FD0020FFF713
:1029D000E5FD3A20FFF7D0FD0520FFF7DFFD2920B8
:1029E000FFF7CAFD0020FFF7A5FE0120034908609C
:1029F0004FF6FF70FFF74CFE10BD0000A48121428E
:102A0000024600BF108900F002000028FAD0918130
:102A100000BF108900F001000028FAD09089C0B2F0
:102A2000704702884FF6C7731A400280012902D10D
:102A30000288028003E0028842F0200202800288BD
:102A400042F040020280704700B587B001210920A2
:102A500000F0F2FB4FF42040ADF8040003208DF8A5
:102A6000060018208DF8070001A91C4800F028F97D
:102A70004FF48040ADF8040048208DF80700032093
:102A80008DF8060001A9154800F01AF90121880304
:102A900000F0DFFB0020ADF808004FF48270ADF8C5
:102AA0000A000020ADF80C00ADF80E00ADF81000E3
:102AB0004FF40070ADF812000020ADF81400ADF82E
:102AC00016000720ADF8180002A9054800F03EFCEA
:102AD0000121034800F0DFFC07B000BD000C0140FD
:102AE000003800400948804709480047FEE7FEE7F4
:102AF000FEE7FEE7FEE7FEE7FEE7FEE7FEE7FEE7AE
:102B000004480549054A064B70470000CB200008E1
:102B100031010008B0010020B0070020B003002000
:102B2000B003002031490143314A1160704770B54C
:102B3000002100230F22C47804B32D4C246804F430
:102B4000E064C4F5E064210AC1F10403CA4044789A
:102B500004FA03F18478144021430901254C0678D6
:102B6000A155047804F01F050124AC4005786D11CF
:102B7000AD0005F1E025C5F8004109E0047804F056
:102B80001F050124AC401C4D0678761145F82640FF
:102B900070BD1A4A0A400243154B1B1F1A6070474A
:102BA00039B1134A121D12680243114B1B1D1A60E2
:102BB00006E00F4A121D126882430D4B1B1D1A605E
:102BC0007047042808D14FF0E021096941F0040161
:102BD0004FF0E022116107E04FF0E021096921F098
:102BE00004014FF0E0221161704700000000FA0577
:102BF0000CED00E000E400E080E100E080FFFF1F5A
:102C000010B50446CC48844208D10121042000F0CC
:102C10002DFB0021042000F029FB46E0C748844238
:102C200008D10121082000F021FB0021082000F03C
:102C30001DFB3AE0C248844208D10121102000F077
:102C400015FB0021102000F011FB2EE0BD4884424E
:102C500008D10121202000F009FB0021202000F0F4
:102C600005FB22E0B848844208D10121402000F051
:102C7000FDFA0021402000F0F9FA16E0B348844242
:102C800008D10121802000F0F1FA0021802000F01D
:102C9000EDFA0AE0AE48844207D10121801500F028
:102CA000E5FA0021A01500F0E1FA10BD10B50121F0
:102CB000084600F0DBFA0021012000F0D7FA10BD31
:102CC0002DE9F041024600250026002000230024C3
:102CD000002791F803C00CF00F0591F803C00CF029
:102CE000100CBCF1000F03D091F802C04CEA0505AE
:102CF00091F800C0BCF1000F31D0146800202BE027
:102D00004FF0010C0CFA00F3B1F800C00CEA030616
:102D10009E4220D183004FF00F0C0CFA03F7BC4306
:102D200005FA03FC4CEA040491F803C0BCF1280F37
:102D300006D14FF0010C0CFA00FCC2F814C00AE0F6
:102D400091F803C0BCF1480F05D14FF0010C0CFA0B
:102D500000FCC2F810C0401C0828D1D31460B1F8A0
:102D600000C0BCF1FF0F34DD546800202EE000F1FC
:102D7000080C4FF0010808FA0CF3B1F800C00CEA97
:102D800003069E4221D183004FF00F0C0CFA03F78B
:102D9000BC4305FA03FC4CEA040491F803C0BCF1FF
:102DA000280F05D100F1080C08FA0CF8C2F81480BD
:102DB00091F803C0BCF1480F07D100F1080C4FF0A7
:102DC000010808FA0CF8C2F81080401C0828CED37D
:102DD0005460BDE8F0814FF6FF71018002218170DF
:102DE0000421C17070470246002093680B400BB16C
:102DF000012000E0002070470146886880B27047DB
:102E000002460020D3680B400BB1012000E00020F7
:102E100070470146C86880B27047016170474161E0
:102E200070470AB1016100E041617047C1607047BD
:102E30004FF480320A4382618161826182698269D2
:102E4000704702460020434B18684FF680731840C5
:102E500040EA021008433F4B186070473E49C86182
:102E60007047F0B50A46002300240021002500F039
:102E70000046B6F1004F02D1364EF16901E0354E01
:102E80007168C0F3034583B200F44016B6F5401FE5
:102E900008D121F070612F4E766826F070662D4FB4
:102EA0007E6012E000F48016B6F5801F06D103267E
:102EB00006FA05F4A14341F0706106E0460D3601C3
:102EC00003FA06F6B14341F0706122B1460D3601B6
:102ED00003FA06F6314300F00046B6F1004F02D186
:102EE0001C4EF16101E01B4E7160F0BD30B5002257
:102EF0008B071C0F0F2303FA04F2164B08338C10B8
:102F000053F824309343134C08348D1044F8253083
:102F100023468C1053F824308C07240F00FA04F455
:102F200023430C4C08348D1044F8253030BD0A4939
:102F3000DC3108607047000000080140000C0140CF
:102F4000001001400014014000180140001C014025
:102F5000002001400000014000002042DF480068DE
:102F600040F00100DD49086008464068DC4908403F
:102F7000DA49486008460068DA490840D7490860DD
:102F80000846006820F4802008600846406820F465
:102F9000FE0048604FF41F0088607047CF49096801
:102FA00021F48031CD4A11601146096821F4802155
:102FB0001160B0F5803F03D0B0F5802F0ED106E050
:102FC000C649096841F48031C44A116007E0C34929
:102FD000096841F4A021C14A116000E000BF00BFB0
:102FE000704710B501460022002300204A11012A33
:102FF00002D1BA4C236806E0022A02D1B74C236AF8
:1030000001E0B64C636A01F01F02012494401C40A9
:103010000CB1012000E0002010BD38B50020009068
:103020000024002500BF3120FFF7DBFF0546009894
:10303000401C00900098B0F5A06F01D0002DF2D098
:103040003120FFF7CEFF08B1012400E00024204624
:1030500038BD01460020A14A106820F0F80040EA7F
:10306000C10010607047A049086070470246002008
:103070009A4B586820F47C1042EA01031843974B9E
:103080005860704798490866704701460020934A87
:10309000506820F003000843506070478F48406834
:1030A00000F00C007047014600208C4A506820F068
:1030B000F00008435060704701460020874A50687E
:1030C00020F4E06008435060704701460020834AC6
:1030D000506820F4605040EAC1005060704729B148
:1030E0007E4A527A02437D4B5A7204E07B4A527AFE
:1030F00082437A4B5A7270477B49D83108607047D7
:1031000001460020754A506820F440400843506052
:1031100070470021714A20321170704A82F82010E5
:10312000012802D004280AD104E001216B4A203290
:10313000117005E00521694A2032117000E000BFDE
:1031400000BF70476949086070476449096A0143D4
:10315000624A11627047654944390860704730B56A
:1031600000210022002400235C4D6D6805F00C0155
:1031700021B1042905D0082923D105E05C4D056063
:1031800022E05B4D05601FE0544D6D6805F4701240
:10319000524D6D6805F48034022505EB92421CB94E
:1031A000544D554305600BE04C4D6D6805F40035FA
:1031B0001DB1504D5543056002E04D4D554305602E
:1031C00002E04B4D056000BF00BF444D6D6805F047
:1031D000F0010909484D6B5C0568DD4045603F4DD5
:1031E0006D6805F4E061090A434D6B5C4568DD409C
:1031F00085603A4D6D6805F46051C90A3E4D6B5CBF
:103200004568DD40C560354D6D6805F44041890B6A
:103210003A4D6B5CC568B5FBF3F5056130BD29B16E
:103220002E4A526902432D4B5A6104E02B4A5269DF
:1032300082432A4B5A61704729B1284A9269024356
:10324000264B9A6104E0254A92698243234B9A6196
:10325000704729B1214AD2690243204BDA6104E068
:103260001E4AD26982431D4BDA61704729B11B4A5D
:10327000D2680243194BDA6004E0184AD2688243EC
:10328000164BDA60704729B1144A12690243134B96
:103290001A6104E0114A12698243104B1A617047A7
:1032A00012494039086070470F49C86470470B499C
:1032B000C87170470948406A40F080700749486209
:1032C000704701460020054A92680A400AB1012071
:1032D00000E00020704701498872704700100240EA
:1032E0000000FFF8FFFFF6FE000042428004424269
:1032F00000127A0000093D00220100203201002066
:1033000010B50446BE48844208D101218014FFF75D
:10331000ADFF0021A014FFF7A9FF16E0B9488442D1
:1033200008D101210014FFF7AEFF00212014FFF7A0
:10333000AAFF0AE0B448844207D10121C013FFF775
:10334000A2FF0021E013FFF79EFF10BD10B5002281
:10335000028802F441520B884C8823438C88234313
:10336000CC8823430C8923434C8923438C892343F2
:10337000CC8923431A430280838B4FF2FF7423408E
:1033800083830B8A038210BD2DE9F04F85B005467B
:103390000C464FF0000902274FF000084FF0010BD8
:1033A0000026B246A88B4FF240010840A8830220B5
:1033B0002884B5F81C90A068022801D100BF38E02D
:1033C000A08810B94FF0010B01E04FF0020B8D48BF
:1033D000854200D100E000BF6846FFF7C0FEDDF87F
:1033E00000A0E088B0F5007F0AD14FEA1A2000EB78
:1033F00080004000A168B0FBF1F0401D86B20BE0F8
:103400004FEA4B10BAFBF0F000EB80004000A168DF
:10341000B0FBF1F0401D86B20A20B6FBF0F606F0D4
:103420000108A6EB0800C0F34F074FF6FF7000EA53
:103430000828022F01DBFF2F02DD02274FF00008D2
:10344000E08840EA080038432884A088A18908431E
:10345000618808432188084340F4006040EA090974
:10346000A5F81C9005B0BDE8F08F002101804180D7
:103470008180C180018141818181C18107210182D7
:1034800070470021018041808180C18002218160DC
:1034900000218181704721B1028842F04002028000
:1034A00004E002884FF6BF731A400280704721B1D2
:1034B000828B42F48062828304E0828B4FF6FF337A
:1034C0001A408283704730B5002400230C11012577
:1034D000A540ABB21AB185881D43858002E085887E
:1034E0009D43858030BD1AB183880B43838002E001
:1034F00083888B4383807047818170470146888928
:1035000070474FF6FF62914204D0028842F4807205
:10351000028004E002884FF6FF631A400280704781
:1035200021B1828842F00402828004E082884FF652
:10353000FB731A408280704702884FF2FF731A4073
:10354000028002880A4302807047018841F480515A
:103550000180704721B1028842F40052028004E0E9
:1035600002884DF6FF731A40028070470246002021
:10357000012901D0108B00E0908A70470146088A2B
:103580007047B1F5804F04D1028842F48042028036
:1035900004E002884BF6FF731A400280704702462F
:1035A000002013890B400BB1012000E00020704780
:1035B000CA4302817047F0B5024600200024002370
:1035C000002501F00F070126BE40B4B20B11012601
:1035D0009E40B3B2968806EA03051689264016B1C6
:1035E0000DB1012000E00020F0BD10B5002201F077
:1035F0000F040123A3409AB2D343038110BD0000FE
:103600000030014000380040003C004010B5044646
:10361000FE48844208D10121C014FFF727FE002193
:10362000E014FFF723FEC4E0B4F1804F08D101217C
:103630000846FFF728FE00210120FFF724FEB8E02E
:10364000F348844208D101210220FFF71CFE00212B
:103650000220FFF718FEACE0EE48844208D10121B9
:103660000420FFF710FE00210420FFF70CFEA0E06D
:10367000E948844208D101210820FFF704FE002117
:103680000820FFF700FE94E0E448844208D10121BD
:103690001020FFF7F8FD00211020FFF7F4FD88E06F
:1036A000DF48844208D101212020FFF7ECFD0021F2
:1036B0002020FFF7E8FD7CE0DA48844208D10121B0
:1036C0004014FFF7D3FD00216014FFF7CFFD70E039
:1036D000D548844209D10121C804FFF7C7FD002164
:1036E0004FF40020FFF7C2FD63E0D048844209D1C7
:1036F00001210805FFF7BAFD00214FF48010FFF704
:10370000B5FD56E0CA48844209D101214805FFF7BA
:10371000ADFD00214FF40010FFF7A8FD49E0C548BA
:10372000844208D101214020FFF7ADFD0021402057
:10373000FFF7A9FD3DE0C048844208D10121802067
:10374000FFF7A1FD00218020FFF79DFD31E0BB4880
:10375000844208D101218015FFF795FD0021A015B5
:10376000FFF791FD25E0B648844209D10121080404
:10377000FFF77CFD00214FF48030FFF777FD18E064
:10378000B048844209D101214804FFF76FFD0021B0
:103790004FF40030FFF76AFD0BE0AB48844208D1DC
:1037A00001218804FFF762FD00214FF48020FFF71C
:1037B0005DFD10BD00220288944B98420ED0994BBB
:1037C00098420BD0B0F1804F08D0914B984205D071
:1037D000904B984202D0904B984204D14FF68F7391
:1037E0001A404B881A438D4B984207D08C4B984215
:1037F00004D04FF6FF431A40CB881A4302808B88CF
:1038000083850B880385814B98420BD0854B98426A
:1038100008D08B4B984205D08A4B984202D08A4BF5
:10382000984201D10B7A038601238382704770B5D9
:10383000002400220023058C4FF6FE7635400584D7
:10384000028C8388048B4FF68F752C40B51E2C405C
:103850000D882C43751E2A400D892A434D882A4322
:103860006A4DA8420BD06F4DA84208D0744DA842B3
:1038700005D0744DA84202D0734DA84213D14FF623
:10388000F7752A404D892A434FF6FB752A408D88EB
:103890002A434FF6FF652B404FF6FF552B408D898D
:1038A0002B43CD892B4383800483CD888586028476
:1038B00070BD70B5002400220023058C4FF6EF7612
:1038C00035400584028C8388048B48F6FF752C40B4
:1038D0004FF6FF452C400D884FF6FF7606EA05258A
:1038E0002C434FF6DF752A400D8906EA05152A4359
:1038F0004D8806EA05152A43444DA84202D0494D99
:10390000A8421DD14FF67F752A404D894FF6FF76AC
:1039100006EA05152A434FF6BF752A408D8806EA48
:1039200005152A434FF6FF352B404FF2FF752B400C
:103930008D8906EA85052B43CD8906EA85052B434B
:1039400083800483CD880587028470BD70B5002410
:1039500000220023058C4FF6FF6635400584028C5B
:103960008388848B4FF68F752C404FF6FC752C4066
:103970000D882C434FF6FF552A400D894FF6FF76F0
:1039800006EA05252A434D8806EA05252A431F4DE8
:10399000A84202D0234DA8421DD14FF2FF752A4004
:1039A0004D894FF6FF7606EA05252A434FF6FF3587
:1039B0002A408D8806EA05252A434EF6FF752B40DE
:1039C0004DF6FF752B408D8906EA05152B43CD89F1
:1039D00006EA05152B4383808483CD88858702847E
:1039E00070BD70B5002200230024058C4EF6FF76D2
:1039F00035400584038C8488828B48F6FF752A4005
:103A00004FF6FF452A400D8820E00000002C0140C1
:103A10000004004000080040000C0040001000407E
:103A20000014004000340140004C014000500140AF
:103A30000054014000180040001C004000200040DD
:103A40000040014000440140004801404FF6FF762D
:103A500006EA05252A434DF6FF752B400D8906EA37
:103A600005352B434D8806EA05352B43FA4DA84210
:103A700002D0FA4DA84208D14BF6FF752C408D8933
:103A80004FF6FF7606EA85152C4384808283CD8825
:103A9000A0F84050038470BD828B4FF2FF331A4070
:103AA0008283828B4FF6FF7303EA01231A438283DA
:103AB0007047F0B50C461546002200210026078C01
:103AC0004EF6FF7C07EA0C070784828B018C4FF6C9
:103AD000FF7707EA043640F6FF473A404FF6FF7794
:103AE00007EA05273A434FF6FF7707EA03373A43D9
:103AF000D94FB8420ED0D94FB8420BD0B0F1804F59
:103B000008D0D74FB84205D0D64FB84202D0D64FD2
:103B1000B84206D14DF6FF77394046F48057394315
:103B200005E047F6FF57394044F480573943828314
:103B30000184F0BD828B4FF6F3731A408283828B2F
:103B40000A4382837047F0B50C46154600220021D7
:103B50000026078C4FF6FF6C07EA0C070784828B60
:103B6000018C4FF6FF7707EA04264FF60C773A40B0
:103B70004FF6FF7707EA03172F433A43B64FB84291
:103B80000ED0B64FB8420BD0B0F1804F08D0B44F32
:103B9000B84205D0B34FB84202D0B34FB84206D1B5
:103BA0004FF6FF57394046F48077394305E04FF22E
:103BB000FF57394044F48077394382830184F0BD54
:103BC000028B4FF2FF331A400283028B4FF6FF73D2
:103BD00003EA01231A4302837047F0B50C461546E9
:103BE000002200210026078C4FF6EF7C07EA0C0725
:103BF0000784028B018C4FF6FF7707EA041640F624
:103C0000FF473A404FF6FF7707EA03373A434FF64C
:103C1000FF7707EA05273A438F4FB8420ED08F4F00
:103C2000B8420BD0B0F1804F08D08D4FB84205D0CC
:103C30008C4FB84202D08C4FB84206D14FF6DF7796
:103C4000394046F01007394305E04FF65F773940B9
:103C500044F01007394302830184F0BD028B4FF614
:103C6000F3731A400283028B0A4302837047F0B554
:103C70000C46154600220021068C4FF6FE773E408A
:103C80000684028B018C4FF60C7632407E1C06EACD
:103C900003162E433243704EB0420ED06F4EB042E8
:103CA0000BD0B0F1804F08D06D4EB04205D06D4EB4
:103CB000B04202D06C4EB04206D14FF6FD76314094
:103CC00044F00106314305E04FF6F576314044F00B
:103CD0000106314302830184F0BD70B505460C46F0
:103CE0005D4885420ED05D4885420BD0B5F1804FCE
:103CF00008D05B48854205D05A48854202D05A48D0
:103D0000854200D100E000BF208850B92389A288F5
:103D100061882846FFF7ABFFE1882846FFF79EFF42
:103D200025E0208804280AD12389A28861882846B2
:103D3000FFF753FFE1882846FFF742FF17E020888E
:103D400008280AD12389A28861882846FFF7FBFE4C
:103D5000E1882846FFF7EEFE09E02389A288618802
:103D60002846FFF7A6FEE1882846FFF795FE70BDBE
:103D70002DE9F04105460C4600260127608808B968
:103D8000022600E00026A088012801D1022700E0D9
:103D900001272088A0B92389A28861882846FFF7D7
:103DA00066FFE1882846FFF759FF23893A463146E6
:103DB0002846FFF712FFE1882846FFF701FF13E0CE
:103DC0002389A28861882846FFF707FFE1882846F3
:103DD000FFF7F6FE23893A4631462846FFF747FFAC
:103DE000E1882846FFF73AFFBDE8F0810A884B8852
:103DF0001A438B881A43CB881A430B891A434B8981
:103E00001A438B891A43A0F8442070474FF6FF717C
:103E1000818000210180C1804180017270470021B2
:103E2000018041808180C180018141818181C18186
:103E30007047002101804180012181800021C180E3
:103E4000018170470021018041808180C180018112
:103E50004181818170470000002C01400034014005
:103E60000004004000080040000C004021B102881E
:103E700042F00102028004E002884FF6FE731A400D
:103E80000280704731B1B0F8442042F40042A0F8FB
:103E9000442005E0B0F84420C2F30E02A0F844200C
:103EA00070471AB183890B43838102E083898B4376
:103EB000838170478182704741EA0203A0F848304D
:103EC00070471AB183890B43838102E083898B4356
:103ED0008381704701894FF6F87211400181704764
:103EE0000A46002101894FF68F7319401143018161
:103EF000704730B504460D4629462046FFF7F0FFCF
:103F0000208940F00700208130BD2DE9F0410446B2
:103F10000D4616461F46602D06D13B46012231460E
:103F20002046FFF75AFE05E03B4601223146204677
:103F3000FFF79DFE29462046FFF7D2FF208940F07B
:103F400007002081BDE8F08130B50C4600210189D1
:103F5000C9B24FF6FF7505EA0325154325432943EA
:103F6000018130BD2DE9F04105460E4617469846C1
:103F7000002443463A4631462846FFF7E5FF2C89A0
:103F80004FF6F870044044F007044FF68F70044079
:103F900044F070042C81BDE8F081F0B504460D4674
:103FA00016461F463B46324629462046FFF7CCFFC1
:103FB000208940F480402081F0BD018582827047D5
:103FC0000A46002101884FF68F7319401143018082
:103FD0007047F0B50C4615461E460021002200230E
:103FE0000189028B038C4FF6F877394021434FF655
:103FF000FC473A4040F201173A434FF6DD773B4029
:104000004FF6FF7707EA06172F433B4301810283F0
:104010000384F0BD0A460021018B4FF68F731940CF
:104020001143018370470A460021018B48F6FF7354
:1040300019404FF6FF7303EA0223194301837047C7
:104040000A460021818B4FF68F73194011438183FB
:1040500070470A460021818B48F6FF7319404FF6DE
:10406000FF7303EA022319438183704721B1028859
:1040700042F08002028004E002884FF67F731A400B
:104080000280704721B1828842F00402828004E0FD
:1040900082884FF6FB731A408280704721B1828874
:1040A00042F00802828004E082884FF6F7731A40DB
:1040B0008280704721B1828842F00102828004E050
:1040C00082884FF6FE731A40828070470A460021AC
:1040D000018B4FF6F77319401143018370470A466D
:1040E0000021018B4FF2FF7319404FF6FF7303EA73
:1040F00002231943018370470A460021818B4FF642
:10410000F77319401143818370470A460021818B60
:104110004FF2FF7319404FF6FF7303EA022319436E
:10412000818370470A460021018B4FF6FB731940CB
:104130001143018370470A460021018B4FF6FF337C
:1041400019404FF6FF7303EA0223194301837047B6
:104150000A460021818B4FF6FB731940114381837E
:1041600070470A460021818B4FF6FF3319404FF606
:10417000FF7303EA02231943818370470A46002133
:10418000018B4FF67F7319401143018370470A4634
:104190000021018BC1F30E014FF6FF7303EA0223E6
:1041A0001943018370470A460021818B4FF67F73C4
:1041B00019401143818370470A460021818BC1F366
:1041C0000E014FF6FF7303EA022319438183704700
:1041D0000A460021018C4FF6FD73194011430184FA
:1041E00070470A460021018C4FF6F77319401143BE
:1041F000018470470A460021018C4FF6DF73194095
:104200004FF6FF7303EA02131943018470470A460D
:104210000021018C4FF67F7319404FF6FF7303EABC
:1042200002131943018470470A460021018C4FF69E
:10423000FF5319404FF6FF7303EA02231943018429
:1042400070470A460021018C4FF2FF7319404FF668
:10425000FF7303EA02231943018470470A460021D1
:10426000018C4DF6FF7319404FF6FF7303EA0233DA
:1042700019430184704730B5002301248C40A3B258
:10428000048C9C430484048C02FA01F5ADB22C43E7
:10429000048430BD30B5002304248C40A3B2048CC8
:1042A0009C430484048C02FA01F5ADB22C430484CF
:1042B00030BD70B503460020002418461830012593
:1042C0008D40ACB21D8CA5431D8409B1082909D1CC
:1042D00000EB6100056825F0700505600568154371
:1042E00005600EE00D1FC5F34E052844056825F452
:1042F000E045056005684FF6FF7606EA022635437D
:10430000056070BD21B1028842F00202028004E023
:1043100002884FF6FD731A400280704721B102886F
:1043200042F00402028004E002884FF6FB731A4058
:104330000280704721B1828842F08002828004E0CE
:1043400082884FF67F731A408280704702884FF64A
:10435000F7731A40028002880A43028070478288FD
:104360004FF68F731A40828082880A43828070479A
:1043700002894FF6F8731A40028102890A430281CA
:10438000704702894FF67F731A40028102890A43FF
:1043900002817047818470478185704781867047AC
:1043A0000187704781877047A0F8401070470288E6
:1043B0004FF6FF431A40028002880A43028070478A
:1043C0000146888E70470146088F70470146888FE6
:1043D00070470146B1F8400070470146888C70472D
:1043E0000146088D704702460020138A0B400BB12E
:1043F000012000E000207047CA430282704730B5B8
:104400000246002000230024158A05EA010395894D
:1044100005EA010413B10CB1012000E0002030BD19
:10442000CA4302827047000010B504466FF00400D2
:10443000FEF7C7FBE11704EB5171C1F3C701234A33
:1044400011701046007800EB4001C1EBC0104FF630
:10445000FF7101EAC0001E49088010BD01461C4AD8
:1044600012884A434FF0E0235A6100229A610122E8
:104470001A6100BF4FF0E022106900F001021AB18A
:1044800000F48032002AF5D000224FF0E0231A61B8
:104490009A61704701460D4A12784A434FF0E02373
:1044A0005A6100229A6101221A6100BF4FF0E02296
:1044B000106900F001021AB100F48032002AF5D030
:1044C00000224FF0E0231A619A6170473601002004
:1044D0003801002010B5431C02E010F8011B71B137
:1044E0008107FAD14FF0013202C88C1A8C4314EACA
:1044F000C211F9D0C01A0A0603D0C01E10BDC01ADE
:1045000010BD0A0401D0801E10BD0902FCD0401E5F
:1045100010BD704770477047004870474C0100203D
:104520007546FFF7F9FFAE4605006946534620F091
:104530000700854618B020B5FEF7E2FABDE8204036
:104540004FF000064FF000074FF000084FF0000B4F
:1045500021F00701AC46ACE8C009ACE8C009ACE802
:10456000C009ACE8C0098D46704710B50446AFF3EA
:1045700000802046BDE81040FBF741BE01491820ED
:10458000ABBEFEE7260002007047000090EA010F74
:1045900048BF81F0004100F1BC81421A3CBF801A43
:1045A00089184FEAD0524FF07F4C1CEA410FA2EB22
:1045B000D15318BF9CEA026F00F03B804FF0004CD3
:1045C0004CEA00204CEA012121FA03FC10EB0C0C10
:1045D0001ED202F1FF325FEA1C2040EBC25038BF0E
:1045E00070471CF07F0F4FEA400C18BFBCF17F4FA3
:1045F00038BF7047C3F12003994008BF20F0010085
:10460000BCF17F4F38BF7047A0F1C04000F043B904
:104610004FEA3C00000A40EBC25028BF1CF0FF0FDD
:104620004FEA400CE6D018BFBCF17F4F38BF70474F
:10463000EAE79CEA026F05D010EA5C0F08BF00F0C1
:104640000040704710B500F0E0F800BF64FBBE3ECC
:10465000401058BFC0F14040491058BFC1F140411F
:104660008142EFF30080704741000B0ED3F19E02B0
:1046700008D950F400034FEA032323FA02F048BF9D
:104680004042704710B500F0C0F800BF4992248046
:10469000002070476FF0004282EA2000704700005F
:1046A00050EA010C00F113801CF5000F58BFBCF557
:1046B000000F01D48842704707D710F5000F58BF8C
:1046C00011F5000F15D488427047894270471CF5D8
:1046D000000F04D5BCF5000FF7D5814270474FF0AD
:1046E000807C1CEB400F38BF1CEB410F01D2814294
:1046F000704710B500F089F8922449004FF000503F
:104700004FF08051FFF7A4BF4FF47F0C1CEAD0128A
:104710001EBF1CEAD11392EA0C0F93EA0C0F00F0B3
:10472000478090EA010F48BF42F480724FF0004C7E
:104730004CEA00204CEA012102EB0302A0FB01132A
:10474000A2F50002002918BF43F001035B0028BF57
:104750004FEA330342EB22425FEA132C4CEBC25088
:104760002EBFBCEB436FB2F57C0F70474FEA036C72
:10477000BCF1004F08BF20F00100B2F57C0F38BF3C
:1047800070470BD582F0FF0212F5803FC8BF70471B
:1047900000F1C040D8BF00F00040704700F5000CA9
:1047A0005FEA4C0C48BF7047B0F1C04000F073B8EE
:1047B00090EA010F0CEAD11348BF42F480726245BF
:1047C00038BF634504D280EA010000F00040704722
:1047D00010B500F01AF800BF8900013E00F007B8DC
:1047E00000F009B85FEA410C5FEA1C6C08D080EA6F
:1047F000010000F050B85FEA400C5FEA1C6CF6D193
:104800004FF00040A0F5800070470EF1020E2EF030
:10481000030E5EF8044B244204D44FEA4102B2F185
:104820007F4F11D84FEA4003B3F17F4F0CD80ED120
:104830004FEAD07CB2F17F4F0CEB4C0C0CF1020C28
:1048400008BF4CEBD17C04E04FF0080C01E04FEACC
:10485000D17C0CEB4C0324FA03F404F00704B4F10C
:10486000040C06D20EEB840CBDE810404CF0010C99
:104870006047DFE80CF0070802024FF00040A0F5A7
:10488000800010BD0846420018BFD2F1807288BF78
:1048900000F0004010BDFF2141EAD050C005704734
:1048A00051EA000C00F113801CF5000F58BFBCF555
:1048B000000F01D48142704707D711F5000F58BF90
:1048C00010F5000F15D481427047894270471CF5DE
:1048D000000F04D5BCF5000FF7D5884270474FF0A4
:1048E000807C1CEB410F38BF1CEB400F01D288428B
:1048F000704780EA010081EA000180EA0100FFF7C9
:10490000F8BE000090EA010F48BF81F000413FF57A
:1049100044AE421A04D882F00042A0EB02001144D7
:104920004FEAD0524FF07F4C1CEA410FA2EBD1531B
:1049300018BF9CEA026F4AD04FF0004C4CEA0020AE
:104940004CEA012121FA03FCB0EB0C0C0FD412F05D
:10495000FE0F36D05FEA4C001DD5001240EBC2506E
:1049600038BF70471CF03F0F18BF70470BE0A2F133
:1049700001025FEA1C2040EBC25038BF70471CF0B8
:104980007F0F18BF7047C3F12003994014BF401E2A
:1049900020F00100704780084FEA122308BF7047DB
:1049A000B0FA80FCA2EB0C02CCF1280C60FA0CF0FF
:1049B00093EA122F04BF00EBC25070474FEAC37056
:1049C0007047130A5FEADC1008BF7047F6E79CEAFD
:1049D000026F04D010EA5C0F08BF0020704710B5CA
:1049E000FFF713FF40DFF63E81F000407047000004
:1049F00000000000000000000000000004040404A7
:104A000004040004000000140A0A00000000000072
:104A10000000000014143F140A3F0A0A00000004BA
:104A20001E1505060C14150F0400000012150D0AC2
:104A3000142C2A1200000000040A0A1E151509365B
:104A40000000000202010000000000000000002041
:104A500010080808080808102000000204080808C8
:104A600008080804020000000004150E0E150400DA
:104A7000000000000404041F0404040000000000FF
:104A80000000000000000002020100000000001F02
:104A90000000000000000000000000000000000214
:104AA00000000010080808040402020201000000CF
:104AB0000E1111111111110E000000000406040462
:104AC0000404040E000000000E1111080402011F6E
:104AD000000000000E11100C1010110E000000005C
:104AE000080C0A0A091E0818000000001F01010F27
:104AF0001010110E000000000E09010F1111110E0F
:104B0000000000001F090804040404040000000061
:104B10000E11110E1111110E000000000E111111D5
:104B20001E10120E0000000000000400000000042F
:104B30000000000000000004000000040400002049
:104B400010080402040810200000000000001F00EC
:104B5000001F0000000000020408102010080402DA
:104B6000000000000E111108040400040000000001
:104B70000E111915151D011E0000000004040C0A79
:104B80000A1E1233000000000F12120E1212120F32
:104B9000000000001E1101010101110E00000000C3
:104BA0000F1212121212120F000000001F120A0E32
:104BB0000A02121F000000001F120A0E0A0202075A
:104BC000000000001C1201013911120C000000004D
:104BD0003312121E12121233000000001F040404CC
:104BE0000404041F000000003E0808080808080923
:104BF0000700000037120A060A0A123700000000F8
:104C0000070202020202223F000000001B1B1B1BC6
:104C100015151515000000003B1216161A1A12176A
:104C2000000000000E1111111111110E0000000002
:104C30000F12120E02020207000000000E111111E5
:104C40001117190E180000000F12120E0A12123757
:104C5000000000001E1101060810110F00000000E6
:104C60001F1504040404040E000000003312121285
:104C70001212120C000000003312120A0A0C040473
:104C8000000000001515150E0A0A0A0A00000000AF
:104C90001B0A0A04040A0A1B000000001B0A0A047B
:104CA0000404040E000000001F0908040402121F7F
:104CB0000000001C04040404040404041C0000029A
:104CC00002020404080808100000000E0808080882
:104CD000080808080E0000040A0000000000000098
:104CE000000000000000000000000000003F000481
:104CF0000000000000000000000000000000000CA8
:104D0000121C123C000000000302020E1212120ECE
:104D1000000000000000001C1202021C0000000045
:104D20001810101C1212123C000000000000000CB1
:104D3000121E021C000000003804041E0404041E9D
:104D4000000000000000003C120C021E221C0000AB
:104D50000302020E121212370000000004000006C7
:104D60000404040E000000000800000C08080808F5
:104D7000080700000302023A0A0E12370000000082
:104D8000070404040404041F000000000000000FD6
:104D900015151515000000000000000F1212123743
:104DA000000000000000000C1212120C00000000B5
:104DB0000000000F1212120E020700000000001C7B
:104DC0001212121C103800000000001B060202071D
:104DD000000000000000001E020C101E0000000079
:104DE0000004040E04040418000000000000001B6E
:104DF0001212123C0000000000000037120A0C04DE
:104E00000000000000000015150E0A0A0000000056
:104E10000000001B0A040A1B00000000000000370D
:104E2000120A0C04040300000000001E0804041E03
:104E300000000018080808040808080818000808F6
:104E400008080808080808080808000604040408F8
:104E500004040404060002251800000000000000FD
:104E60000000000000000000000000000000000042
:104E700000000000000808080808080800001818CA
:104E8000000000486C241200000000000000000038
:104E900000000000002424247F1212127F1212123C
:104EA00000000000081C2A2A0A0C1828282A2A1C9C
:104EB000080800000022251515152A5854545422BC
:104EC00000000000000C1212120A76252911916EC2
:104ED00000000006060403000000000000000000BF
:104EE00000000040201010080808080808101020D2
:104EF00040000002040808101010101010080804E8
:104F000002000000000008086B1C1C6B0808000071
:104F1000000000000000080808087F0808080800D2
:104F20000000000000000000000000000000060675
:104F300004030000000000000000FE00000000006C
:104F40000000000000000000000000000000060655
:104F500000000000804040202010100808040402D7
:104F600002000000001824424242424242422418F9
:104F70000000000000080E08080808080808083E9D
:104F800000000000003C4242422020100804427E03
:104F900000000000003C4242201820404042221CF9
:104FA0000000000000203028242422227E202078C7
:104FB00000000000007E0202021A26404042221C2D
:104FC0000000000000382402021A2642424224183F
:104FD00000000000007E22221010080808080808BF
:104FE00000000000003C4242422418244242423C5D
:104FF0000000000000182442424264584040241C33
:105000000000000000000000181800000000181840
:105010000000000000000000000800000000000880
:10502000080400000040201008040204081020407A
:1050300000000000000000007F0000007F00000072
:1050400000000000000204081020402010080402A4
:1050500000000000003C424246402010100018189A
:1050600000000000001C225A555555552D42221CA7
:1050700000000000000808181414243C224242E7F3
:1050800000000000001F2222221E22424242221F54
:1050900000000000007C4242010101010142221C8B
:1050A00000000000001F2242424242424242221FB0
:1050B00000000000003F4212121E12120242423F44
:1050C00000000000003F4212121E121202020207EC
:1050D00000000000003C2222010101712122221C5B
:1050E0000000000000E7424242427E42424242E764
:1050F00000000000003E0808080808080808083EEC
:1051000000000000007C1010101010101010101083
:10511000110F0000007722120A0E0A1212222277C3
:105120000000000000070202020202020202427FA7
:10513000000000000077363636362A2A2A2A2A6BE3
:105140000000000000E346464A4A5252526262475B
:1051500000000000001C2241414141414141221C0C
:1051600000000000003F424242423E0202020207AB
:1051700000000000001C2241414141414D53321CBE
:1051800060000000003F4242423E1212222242C70B
:1051900000000000007C4242020418204042423ECF
:1051A00000000000007F4908080808080808081CDB
:1051B0000000000000E74242424242424242423C7A
:1051C0000000000000E742422224241414180808BA
:1051D00000000000006B49494949555536222222FA
:1051E0000000000000E7422424181818242442E795
:1051F0000000000000772222141408080808081C88
:1052000000000000007E2120101008040442423FEC
:1052100000000078080808080808080808080808B6
:105220007800000002020404080808101020202062
:105230004040001E10101010101010101010101010
:105240001E000038440000000000000000000000C4
:10525000000000000000000000000000000000004E
:1052600000FF000608000000000000000000000031
:105270000000000000000000003C4278444242FC74
:105280000000000000030202021A26424242261ACF
:105290000000000000000000003844020202443810
:1052A000000000000060404040784442424264D820
:1052B0000000000000000000003C427E0202423C70
:1052C0000000000000F08808087E08080808083E72
:1052D0000000000000000000007C22221C023C4272
:1052E000423C000000030202023A4642424242E7C8
:1052F00000000000000C0C00000E08080808083E22
:105300000000000000303000003820202020202045
:10531000221E0000000302020272120A16122277F5
:1053200000000000000E0808080808080808083EE9
:105330000000000000000000007F9292929292B75D
:105340000000000000000000003B4642424242E7ED
:105350000000000000000000003C42424242423C8B
:105360000000000000000000001B26424242221EF6
:1053700002070000000000000078444242424478E6
:1053800040E000000000000000774C040404041F0B
:105390000000000000000000007C42023C40423E51
:1053A0000000000000000008083E08080808083057
:1053B000000000000000000000634242424262DC44
:1053C000000000000000000000E742242414080848
:1053D000000000000000000000EB49495555222262
:1053E0000000000000000000007624181818246E49
:1053F000000000000000000000E742242414180808
:105400000807000000000000007E22100808447E0B
:10541000000000C02020202020102020202020205C
:10542000C0001010101010101010101010101010DC
:1054300010100006080808080810080808080808DE
:1054400006000C32C2000000000000000000000056
:105450000000C9EE000027FC140414A481104208C7
:105460004040104017FC2040E0E0215022482C46EC
:1054700020400040DBDA11041124112411241124EE
:10548000FD24112411241124112411241D24E124AC
:10549000422402040404CAD00200010000007FFC80
:1054A0000100010001003FF821082108210821081E
:1054B0002128211001000100C8AB0000000001807C
:1054C00002400430180860061FF9010001000100C5
:1054D0003FF80100010001007FFEB6AF00000000B0
:1054E00000203E20007C002200227F221022102279
:1054F00012221222224223423D82009CB5E7000084
:10550000010001001FF0610C410441047FFC4104D3
:10551000410441047FFC01000102010201FCD7D3D8
:10552000000000003FF800100060008001000080D3
:105530007FFE00400040002000200020184007802F
:10554000BCBC10201020102013FEFC2010201020C6
:1055500015FC18843088D048105010201050518805
:105560002606CAF501000120011001107FFC03800E
:105570000540054009201110210841048102010065
:1055800001000100D3D002000200FFFE040004006D
:105590000FF0081018102FF0481088100FF00810A6
:1055A000081008500820CFDE00007BF84A08520897
:1055B00053F8620852084BF84A444A486A3052206D
:1055C0004210428843064200B9AB00800480048048
:1055D00008400840102020104208820604000440C1
:1055E000082010203FF010100000CBBE00003FF854
:1055F000000800087FE8000800081F88108810884D
:10560000108810881F88108800280010BBB6008002
:105610000080FC8004FC050449082A401440104026
:1056200028A024A045108110020804040802D3AD6C
:1056300000002080133C122402240224F2241224AD
:10564000122412B4132812201020282047FE000034
:10565000C4FA0900090011FC320454489950114859
:10566000124414441140108002005104511290124F
:105670000FF0B4BF00000020102013FE20202624CD
:105680004A247A241224222423FC7C20002204228F
:105690007822003CC9AB0000000004000FF010208D
:1056A00020207FFC20842084208420843FF8200058
:1056B000200220021FFECCEE00000000204023FE4E
:1056C000204079FC220423FC220423FC220423FC36
:1056D0003A0465FA01980204B3E4000001000100F5
:1056E0007FFE02200410040808043FFC044204402A
:1056F0000440044208421042607EBED80000000010
:10570000207E3E804880488048FE48827F82088212
:105710000C8214FA12842280218040FED0CE000038
:1057200000007F842208223022C0220222047FC887
:10573000223022C222022204220822304040BBAD85
:10574000000000007FFE00000FF01110111011107A
:1057500051125FF25112511251124FF240027FFC6E
:10576000D4B2000000007FFE47E24812481247E230
:105770004FF2501250125112511242924472580A72
:105780003FFCCDBC000000003FFE440247F24C222B
:105790005362408243625E1A41824062430240C2C9
:1057A00040223FFCC6AC000000402040204020408A
:1057B0003FFE2000200020003FE02010201020109D
:1057C000201040104010CFD4000000003FFC200407
:1057D00020043FFC200420041FF8244414481448EB
:1057E00014480C5004407FFECABE000000003FFC7D
:1057F0000000000000007FFE0080089008881088EC
:1058000010842084208240820780B2CB00000020D8
:1058100008207FFE002000783F88110808900920AA
:105820007FFE018003400D30310C4002B5A5000021
:105830000010081004203FF8210421043FFC21043B
:1058400021043FF801007FFE010001000100D6D0D5
:1058500000000100010001003FFC2104210421049B
:105860002104210421043FFC01000100010001008A
:10587000D3A20000000008207FFE082009200100BC
:105880003FF82108210821081FF4014002200C10D4
:10589000700ECEC400000100010000803F7C0810A3
:1058A00008100410042002200240018001800260E0
:1058B0001C18E006D7DB00000000102011FE2202B9
:1058C000220249FC5800300013FE252879240124C7
:1058D0000D24722202A2BACF000000000180024013
:1058E0000430180860061FF800001FF82004200488
:1058F0002004200420041FF8C1C1000001000100A1
:105900007FFE00003FF820083FF83FF8400647C2FE
:105910004824082008221022603EB6C8000000007B
:1059200000803FFE44105FFC4410441043F04000F0
:105930005FF84408423041C04360BC1EB2E2000040
:10594000000067C2145205520552C5522552055235
:10595000055215521752228222424442483ECAD46E
:10596000000000002014101417FE00120010601038
:1059700013F0109010901090149214EA1F0A000671
:10598000B3CC0000000019FE7202120212027DFC6C
:1059900018001BFE3420502053FE10201020102031
:1059A00013FED0F20000000000803FFE400047FCE4
:1059B0004208413040C05FFE4042404240444048BF
:1059C00040404440B5F70000000023FE122202FAD6
:1059D0000222E22212FE1272128A128A128A16BA67
:1059E0001A421202040EB9E200000100010411087B
:1059F0000908091009207FFE0440044004400440C7
:105A0000084208421042607CB0E60000000048FEF8
:105A10004900490049007EFE4182414479444528BD
:105A200045284510452846440382C8A800001000B8
:105A3000100013FC7D0411041904188434885048A4
:105A4000505010201050108813041402CBF900009D
:105A500000003F7C204020403E40227E22442244E1
:105A600022443E8420842084408441044204C6C1F0
:105A700000003FF8200820083FF8241022202FF8CB
:105A8000222022203FFC2220422044208420082083
:105A9000C4BB04407FFC04401FF010101FF0101026
:105AA0001FF00400FFFE11103FF8D1161150112015
:105AB0000100D0FD2080108010FE0100FE0021FCBE
:105AC00020243C2424A024A024BC24A024A045609D
:105AD000553E8A00D7AA202020202020FDFC40200F
