:020000040800F2
:1000000058070020119C0008D5110008D7110008DE
:10001000DB110008DF110008E311000800000000F8
:10002000000000000000000000000000E7110008D0
:10003000E911000800000000EB110008ED110008B4
:100040002B9C00082B9C00082B9C00082B9C000874
:100050002B9C00082B9C00082B9C00082B9C000864
:100060002B9C00082B9C00082B9C00082B9C000854
:100070002B9C00082B9C00082B9C00082B9C000844
:100080002B9C00082B9C00082B9C00082B9C000834
:100090002B9C00082B9C00082B9C00082B9C000824
:1000A0002B9C00082B9C00082B9C00082B9C000814
:1000B0002B9C00082B9C00082B9C00082B9C000804
:1000C0002B9C00082B9C00082B9C00082B9C0008F4
:1000D0002B9C00082B9C00082B9C00082B9C0008E4
:1000E0002B9C00082B9C00082B9C00082B9C0008D4
:1000F0002B9C00082B9C00082B9C00082B9C0008C4
:100100002B9C00082B9C00082B9C00082B9C0008B3
:100110002B9C00082B9C00082B9C00082B9C0008A3
:100120002B9C00082B9C00082B9C00082B9C000893
:10013000DFF810D00AF074FF004800477111000882
:10014000AFF300805807002070B505460E461446F0
:100150003146284608F00AFF204608F0C6FE70BD6A
:100160002DE9F05F04460D4616461F46301B401C25
:100170001FFA80FA781B401C1FFA80FB3B46324670
:100180002946204608F0C8FE4FF000080FE04FF067
:10019000000906E00A9808F0A8FE09F101001FFA1C
:1001A00080F9D145F6DB08F101001FFA80F8D84547
:1001B000EDDBFE484088401E83B2FC480088401EAC
:1001C00082B20021084608F0A7FEBDE8F09F2DE9A5
:1001D000FF4F85B081468A4600200490039007981F
:1001E000A0EB09050898A0EB0A06CDF80890CDF819
:1001F00004A0002D01DD012705E00DB9002702E074
:100200004FF0FF376D42002E02DD4FF0010806E08F
:1002100016B94FF0000802E04FF0FF387642B542C1
:1002200001DD2C4600E034464FF0000B21E0019A3E
:1002300091B2029A90B208F0A3FE04982844049068
:100240000398304403900498A04205DD0498001BF5
:1002500004900298384402900398A04205DD039868
:10026000001B03900198404401900BF101001FFA1C
:1002700080FB601C8345DADD09B0BDE8F08F2DE915
:10028000F04104460D4616461F462B463246294687
:100290002046FFF79CFF3B46224629462046FFF7B3
:1002A00096FF3B46324639462046FFF790FF3B46D5
:1002B000324629463046FFF78AFFBDE8F081F8B59F
:1002C00004460D4616461F46B94800883B4632464E
:1002D000294600902046FFF743FFF8BD2DE9F04185
:1002E00004460D4616461F46DDF81880EA1991B2FD
:1002F000A21990B24246FFF727FFEA1991B2A21B5A
:1003000090B24246FFF720FFEA1B91B2A21990B2C9
:100310004246FFF719FFEA1B91B2A21B90B2424678
:10032000FFF712FFAA1991B2E21990B24246FFF705
:100330000BFFAA1991B2E21B90B24246FFF704FFED
:10034000AA1B91B2E21990B24246FFF7FDFEAA1B2A
:1003500091B2E21B90B24246FFF7F6FEBDE8F08193
:100360002DE9FF4F81B0824617469846DDF838B038
:10037000002445464FEA4800C0F10306BBF1000FD8
:100380001FD01BE0A14608E04B462246009750468E
:100390000299FFF7A3FF09F10109A945F4DD002E39
:1003A00004DA042000FB0460861D06E0601B0421C3
:1003B00001FB006000F10A066D1E641CAC42E1DD29
:1003C00018E015E02B462246009750460299FFF7A9
:1003D00085FF002E04DA042000FB0460861D06E081
:1003E000601B042101FB006000F10A066D1E641C05
:1003F000AC42E7DD05B0BDE8F08F2DE9F0470446DB
:100400000D4616461F46DDE908893B463246294619
:100410002046FFF7DCFE4B46424639463046FFF7A2
:10042000D6FE2B46224649464046FFF7D0FEBDE8A1
:10043000F08702880B8803800A8070472DE9FF4F00
:1004400085B000260027BDF81800BDF820108842AE
:1004500007DD08A906A8FFF7ECFF07A905A8FFF725
:10046000E8FFBDF82000BDF84C10884207DD08A960
:1004700013A8FFF7DEFF07A912A8FFF7DAFFBDF800
:100480001800BDF82010884207DD08A906A8FFF76C
:10049000D0FF07A905A8FFF7CCFFBDF81800BDF8ED
:1004A0004C10884238D1BDF8140003900490BDF878
:1004B0001C00BDF81010884203DABDF81C0004903F
:1004C00008E0BDF81C00BDF80C10884202DDBDF844
:1004D0001C000390BDF84800BDF81010884203DAF4
:1004E000BDF84800049008E0BDF84800BDF80C10C5
:1004F000884202DDBDF8480003902D480088009036
:10050000BDF81830BDF80C201946BDF81000FFF7F3
:1005100027FE09B0BDE8F08FBDF81C00BDF814102F
:10052000A0EB010BBDF82000BDF81810401A029096
:10053000BDF84800BDF81410451ABDF84C00BDF8D0
:100540001810A0EB0109BDF84800BDF81C10A0EB85
:10055000010ABDF84C00BDF82010401A0190BDF80A
:100560002000BDF84C10884202D1BDF8208004E084
:10057000BDF82000401E1FFA80F8BDF818402CE09E
:10058000029896FBF0F0BDF81410084480B2049075
:1005900097FBF9F0BDF81410084480B203905E4454
:1005A0002F44BDF81000BDF80C1003E048030020F4
:1005B00016030020884203DD03A904A8FFF739FFD2
:1005C000FE48008823460090BDF80C202146BDF867
:1005D0001000FFF7C5FD601C84B24445D0DDBDF8B6
:1005E0002000201A00FB0AF6BDF81800201A00FBB4
:1005F00005F727E0019896FBF0F0BDF81C100844C1
:1006000080B2049097FBF9F0BDF81410084480B252
:10061000039056442F44BDF81000BDF80C108842DA
:1006200003DD03A904A8FFF704FFE448008823467C
:100630000090BDF80C202146BDF81000FFF790FD9A
:10064000601C84B2BDF84C008442D3DD00BF60E77B
:100650002DE9FF4F83B081468A469346DDE9106459
:10066000D64800880290A6F12000C6B204EBD470F0
:1006700009EB6000401E82B20AEB0400401E83B208
:1006800051464846019408F047FC129850BB00259B
:1006900025E00C2C07D106EB4600C94901EB800090
:1006A00010F8058004E0C74800EB061010F805803C
:1006B00000270DE008F0010018B1584608F015FCBD
:1006C00002E0069808F011FC4FEA6808781CC7B2EF
:1006D00004EBD471B7EB610FECDB681CC5B2A5422B
:1006E000D7DB2DE0002529E00C2C07D106EB4600D6
:1006F000B34901EB800010F8058004E0B14800EB3D
:10070000061010F80580002711E0AC48A0F800B0F2
:1007100008F0010038B10AEB050291B209EB0702BB
:1007200090B208F02DFC4FEA6808781CC7B204EBC1
:10073000D471B7EB610FE8DB681CC5B2A542D3DB0F
:100740009E4902980880A0484088401E83B29E4877
:100750000088401E82B20021084608F0DDFB07B089
:10076000BDE8F08F2DE9FE4306460F4615461C46B0
:10077000DDF828801DE094480088401EB04204DB6C
:1007800091484088401EB84201DABDE8FE832078D7
:100790008DE821018D480388884802883946304613
:1007A000FFF756FF284605EBD07106EB61018EB2CC
:1007B000641C20787E2802DC20782028DBDA00BF49
:1007C000E3E710B50246012000E050430B1EA1F103
:1007D0000104E1B2F9D110BD2DE9FF4F83B0074606
:1007E00091461E46109C4FF0000A002543E0701B06
:1007F000401EC1B20A20FFF7E4FFB9FBF0F00A2166
:10080000B0FBF1F201FB1208BAF1000F1BD1701E10
:10081000A84218DDB8F1000F13D100202021A34613
:10082000CDE90014029004EBDB71491001FB057166
:1008300088B266490B8861490A880499FFF708FF66
:1008400017E04FF0010A002108F13000C0B2A346C2
:10085000CDE90141009004EBDB71491001FB05710A
:1008600088B25A490B8855490A880499FFF7F0FE67
:1008700000BF681CC5B2B542B9DB07B0BDE8F08F58
:100880002DE9FC5F0546884691469A46DDF830B072
:1008900000953E20019000245FE004EB04104C49D9
:1008A00011F810009BF80010884253D104EB04109B
:1008B000474901EB400040789BF80110884249D13C
:1008C00008F10F0083B205F10F0082B241462846BD
:1008D00008F022FB00263BE0002734E00D9890B999
:1008E00004EB04103A4901EB4000801C805D80213C
:1008F0003941084018B1484608F0F7FA21E050465F
:1009000008F0F3FA1DE02D48A0F8009004EB041065
:100910002F4901EB4000801C805D80213941084057
:1009200018B14146284608F02BFB681C85B2009898
:10093000281A102805D1009D08F101001FFA80F83F
:1009400003E0781CC7B2082FC8DB00BF701CC6B21A
:10095000202EC1DB00BF601C84B2019884429CDB66
:1009600019484088401E83B217480088401E82B252
:100970000021084608F0D0FABDE8FC9F2DE9FC5F95
:100980000546884691469A46DDF830B00095072026
:100990000190002476E004EB840000EB44100D4944
:1009A00011F810009BF80010884268D104EB840015
:1009B00000EB4410074901EB40000DE01603002056
:1009C00050B40008C4B800084803002018030020F1
:1009D000B4BE0008F0C6000840789BF801108842B9
:1009E0004DD108F1170083B205F1170082B24146DC
:1009F000284608F091FA00263FE0002738E00D98DD
:100A0000A0B904EB840000EB4410F84901EB40006E
:100A1000801C805D80213941084018B1484608F0AB
:100A200064FA23E0504608F060FA1FE0F048A0F8AE
:100A3000009004EB840000EB4410EC4901EB400013
:100A4000801C805D80213941084018B1414628460C
:100A500008F096FA681C85B20098281A182805D163
:100A6000009D08F101001FFA80F803E0781CC7B26E
:100A7000082FC4DB00BF701CC6B2482EBDDB00BF10
:100A8000601C84B20198844285DBDA484088401EAD
:100A900083B2D8480088401E82B20021084608F080
:100AA0003BFABDE8FC9F2DE9FC5F05468846914670
:100AB0009A46DDF830B000950420019000245FE0F4
:100AC00004EB8410CC4911F810009BF80010884208
:100AD00053D104EB8410C84901EB400040789BF8E7
:100AE0000110884249D108F11F0083B205F11F00AF
:100AF00082B24146284608F00FFA00263BE0002764
:100B000034E00D9890B904EB8410BB4901EB400030
:100B1000801C805D80213941084018B1484608F0AA
:100B2000E4F921E0504608F0E0F91DE0B048A0F8F3
:100B3000009004EB8410B04901EB4000801C805D04
:100B400080213941084018B14146284608F018FA7A
:100B5000681C85B20098281A202805D1009D08F14C
:100B600001001FFA80F803E0781CC7B2082FC8DB29
:100B700000BF701CC6B2802EC1DB00BF601C84B2F7
:100B8000019884429CDB9B484088401E83B2994870
:100B90000088401E82B20021084608F0BDF9BDE879
:100BA000FC9F2DE9FF4F83B0064688469146DDE95C
:100BB0001147109DB2464FF0000B71E0BBF1000FE2
:100BC00040D104EBD4718B4A1288A2EB6101B1428F
:100BD00004DB88494988091B414502DA07B0BDE8B2
:100BE000F08F2878802802DD4FF0010B58E028783C
:100BF0000D2806D108EB04001FFA80F856466D1C3C
:100C00001EE0102C0DDD102128788DE883004A4667
:100C100041463046069BFFF71BFD06F1080086B2F1
:100C20000EE028788DE891004A4641463046069B02
:100C3000FFF70EFD204604EBD07106EB61018EB28A
:100C40006D1C2DE06B480088001BB04204DB694836
:100C50004088001B404500DAC0E74FF0000B202C15
:100C600008D1CDE900574A4641463046069BFFF77A
:100C70001AFF12E0182C08D1CDE900574A46414628
:100C80003046069BFFF77AFE07E0CDE900574A465B
:100C900041463046069BFFF7F3FDAD1C301986B286
:100CA000287800288AD100BF98E72DE9FE4F0E462C
:100CB00017469846DDE90D9A0C9C204609F002FF84
:100CC00085B24C490988A1EBC50000EBD071C1F396
:100CD0004F0B43463A46314658468DE81006FFF71B
:100CE00060FFBDE8FE8F2DE9F04706460F4615462A
:100CF00007F1270083B206F1270082B23946304659
:100D000008F00AF900240AE015F8149005EB4400F5
:100D100090F8018049EA082008F0E7F8641CB4F56F
:100D2000C86FF1DB33484088401E83B231480088E9
:100D3000401E82B20021084608F0EEF8BDE8F087B8
:100D40002DE9FF4F87B007468846149D159890B946
:100D5000202004904020039004200290302D07DBD7
:100D6000392D05DCA5F13000244951F820B04CE0C4
:100D70000BB0BDE8F08F1598012810D11020049019
:100D80002020039002200290302D07DB392D05DC56
:100D9000A5F130001A4951F820B036E0E8E70C2000
:100DA000049018200390022002902E2D14D109984F
:100DB00008F1160C1FFA8CF307F1090C1FFA8CF2DC
:100DC00008F1100C1FFA8CF107F1030C00901FFAC8
:100DD0008CF0FFF7C5F9CBE7302D15DB392D13DC8F
:100DE000A5F13000074951F820B00EE0F0C6000828
:100DF0001603002048030020F6C800080000002069
:100E00002800002050000020B2E74FF00109CA4638
:100E100000265AE0002453E02046E11704EB51710C
:100E2000CA10029906FB012189B20691E11704EB71
:100E30005171C910A4EBC10280211141059106999D
:100E40001BF8010005990840E0B1099806F1010C72
:100E50000CFB0A8CACF1010C1FFA8CF304F1010CB1
:100E60000CFB097CACF1010C1FFA8CF206FB0A8C1E
:100E70001FFA8CF104FB097C00901FFA8CF0FFF73D
:100E80006FF91BE00A9806F1010C0CFB0A8CACF11F
:100E9000010C1FFA8CF304F1010C0CFB097CACF182
:100EA000010C1FFA8CF206FB0A8C1FFA8CF104FB72
:100EB000097C00901FFA8CF0FFF752F9601C84B295
:100EC00004988442A8DB701C86B203988642A1DB9A
:100ED00000BF4DE72DE9F84F06460F46904699466C
:100EE000002548E0002442E02046E11704EB517160
:100EF000C91001EB85011FFA81FAE11704EB51716A
:100F0000C910A4EBC102802141FA02FB0A9810F833
:100F10000A0000EA0B00A0B107EB050C1FFA8CF3E6
:100F200006EB040C1FFA8CF207EB050C1FFA8CF190
:100F300006EB040C1FFA8CF0CDF80080FFF710F9D7
:100F400013E007EB050C1FFA8CF306EB040C1FFAF9
:100F50008CF207EB050C1FFA8CF106EB040C1FFA60
:100F60008CF0CDF80090FFF7FBF8601C84B2202CC9
:100F7000BADB681C85B2202DB4DBBDE8F88F2DE903
:100F8000F84F06460F4690469946002549E0002452
:100F900043E02046E11704EB517105EB450202EBFB
:100FA000E1011FFA81FAE11704EB5171C910A4EBBA
:100FB000C102802141FA02FB0A9810F80A0000EAF7
:100FC0000B00A0B107EB050C1FFA8CF306EB040C29
:100FD0001FFA8CF207EB050C1FFA8CF106EB040CE0
:100FE0001FFA8CF0CDF80080FFF7BAF813E007EB9A
:100FF000050C1FFA8CF306EB040C1FFA8CF207EBBE
:10100000050C1FFA8CF106EB040C1FFA8CF0CDF8DE
:101010000090FFF7A5F8601C84B2182CB9DB681C9F
:1010200085B2182DB3DBBDE8F88F2DE9F84F0646E1
:101030000F4690469946002548E0002442E02046AD
:10104000E11704EB5171C91001EB45011FFA81FA58
:10105000E11704EB5171C910A4EBC102802141FAE0
:1010600002FB0A9810F80A0000EA0B00A0B107EB97
:10107000050C1FFA8CF306EB040C1FFA8CF207EB3D
:10108000050C1FFA8CF106EB040C1FFA8CF0CDF85E
:101090000080FFF765F813E007EB050C1FFA8CF3EF
:1010A00006EB040C1FFA8CF207EB050C1FFA8CF10F
:1010B00006EB040C1FFA8CF0CDF80090FFF750F807
:1010C000601C84B2102CBADB681C85B2102DB4DB16
:1010D000BDE8F88F2DE9F84F06460F469046994631
:1010E000DDF828B000253FE0002439E02046E11774
:1010F00004EB5171C910A4EBC102802141FA02FA3C
:101100001BF8050000EA0A00A0B107EB050C1FFA66
:101110008CF306EB040C1FFA8CF207EB050C1FFA9C
:101120008CF106EB040C1FFA8CF0CDF80080FFF771
:1011300017F813E007EB050C1FFA8CF306EB040C11
:101140001FFA8CF207EB050C1FFA8CF106EB040C6E
:101150001FFA8CF0CDF80090FFF702F8601C84B203
:10116000082CC3DB681C85B2102DBDDBBDE8F88FF1
:1011700008B500F0ACF8482009F03CFC08F0E8FCA9
:10118000002008F02AFD07F095FF012007F056FF28
:101190004FF6FF7000900C484388028800210846F3
:1011A000FEF7DEFF01F03AF907F03DFE04F069FDBD
:1011B000064809F073FF05E007F06EFD044908706A
:1011C00001F0F1FAF8E7000048030020E85B0108AD
:1011D000F4000020704700BFFEE700BFFEE700BF3D
:1011E000FEE700BFFEE7704770477047704700009A
:1011F0000CB50020019000906C48006840F48030ED
:101200006A49086000BF6948006800F40030009037
:101210000198401C0190009818B90198B0F5A06F92
:10122000F1D16248006800F4003010B10120009054
:1012300001E0002000900098012843D15C4800683C
:1012400040F010005A4908600846006820F003008A
:1012500008600846006840F0020008605348406893
:10126000524948600846406848600846406840F473
:10127000806048600846406820F47C10486008465A
:10128000406840F4E81048600846006840F080700C
:10129000086000BF4548006800F000700028F9D0E1
:1012A0004248406820F003004049486008464068D2
:1012B00040F00200486000BF3C48406800F00C006D
:1012C0000828F9D10CBD10B5FFF792FF10BD10B57D
:1012D0003648006840F0010034490860084640681C
:1012E000344908403149486008460068324908409E
:1012F0002E4908600846006820F4802008600846EF
:10130000406820F4FE0048604FF41F008860FFF73B
:10131000DAFF4FF000602949086010BD10B50021C8
:1013200000200022214B5B6803F00C0121B104294D
:1013300006D0082928D107E0214B224C236027E062
:101340001F4B204C236023E0184B5B6803F47010A4
:10135000164B5B6803F48032022303EB904022B902
:10136000194B4343174C23600DE0104B5B6803F4AB
:10137000003323B1144B4343124C236003E0104B62
:101380004343104C236003E00D4B0E4C236000BF21
:1013900000BF064B5B68C3F303130C4CE15C094BC5
:1013A0001B68CB40074C236010BD000000100240BA
:1013B000002002400000FFF8FFFFF6FE08ED00E00D
:1013C00000127A000001002000093D000401002005
:1013D00010B50446FE48844208D10121C01408F02B
:1013E000CDFF0021E01408F0C9FFC4E0B4F1804F44
:1013F00008D10121084608F0CEFF0021012008F0A5
:10140000CAFFB8E0F348844208D10121022008F065
:10141000C2FF0021022008F0BEFFACE0EE4884428B
:1014200008D10121042008F0B6FF0021042008F0B3
:10143000B2FFA0E0E948844208D10121082008F069
:10144000AAFF0021082008F0A6FF94E0E4488442A7
:1014500008D10121102008F09EFF0021102008F083
:101460009AFF88E0DF48844208D10121202008F05B
:1014700092FF0021202008F08EFF7CE0DA488442B1
:1014800008D10121401408F079FF0021601408F010
:1014900075FF70E0D548844209D10121C80408F0E5
:1014A0006DFF00214FF4002008F068FF63E0D04892
:1014B000844209D10121080508F060FF00214FF4A2
:1014C000801008F05BFF56E0CA48844209D1012130
:1014D000480508F053FF00214FF4001008F04EFFBC
:1014E00049E0C548844208D10121402008F053FF5B
:1014F0000021402008F04FFF3DE0C048844208D161
:101500000121802008F047FF0021802008F043FFE0
:1015100031E0BB48844208D10121801508F03BFF2F
:101520000021A01508F037FF25E0B648844209D114
:101530000121080408F022FF00214FF4803008F058
:101540001DFF18E0B048844209D10121480408F089
:1015500015FF00214FF4003008F010FF0BE0AB48FE
:10156000844208D10121880408F008FF00214FF4CB
:10157000802008F003FF10BD00220288944B98429F
:101580000ED0994B98420BD0B0F1804F08D0914BC0
:10159000984205D0904B984202D0904B984204D18B
:1015A0004FF68F731A404B881A438D4B984207D0E1
:1015B0008C4B984204D04FF6FF431A40CB881A4315
:1015C00002808B8883850B880385814B98420BD0E2
:1015D000854B984208D08B4B984205D08A4B984255
:1015E00002D08A4B984201D10B7A03860123838271
:1015F000704770B5002400220023058C4FF6FE765C
:1016000035400584028C8388048B4FF68F752C40FF
:10161000B51E2C400D882C43751E2A400D892A4387
:101620004D882A436A4DA8420BD06F4DA84208D07E
:10163000744DA84205D0744DA84202D0734DA84203
:1016400013D14FF6F7752A404D892A434FF6FB75A3
:101650002A408D882A434FF6FF652B404FF6FF55F1
:101660002B408D892B43CD892B4383800483CD88E8
:101670008586028470BD70B5002400220023058C8D
:101680004FF6EF7635400584028C8388048B48F64C
:10169000FF752C404FF6FF452C400D884FF6FF7626
:1016A00006EA05252C434FF6DF752A400D8906EA28
:1016B00005152A434D8806EA05152A43444DA842DC
:1016C00002D0494DA8421DD14FF67F752A404D8961
:1016D0004FF6FF7606EA05152A434FF6BF752A40F6
:1016E0008D8806EA05152A434FF6FF352B404FF249
:1016F000FF752B408D8906EA85052B43CD8906EAC7
:1017000085052B4383800483CD880587028470BDC3
:1017100070B5002400220023058C4FF6FF6635408B
:101720000584028C8388848B4FF68F752C404FF68E
:10173000FC752C400D882C434FF6FF552A400D892F
:101740004FF6FF7606EA05252A434D8806EA052569
:101750002A431F4DA84202D0234DA8421DD14FF26B
:10176000FF752A404D894FF6FF7606EA05252A4384
:101770004FF6FF352A408D8806EA05252A434EF6A6
:10178000FF752B404DF6FF752B408D8906EA051538
:101790002B43CD8906EA05152B4383808483CD88AE
:1017A0008587028470BD70B5002200230024058C5B
:1017B0004EF6FF7635400584038C8488828B48F68C
:1017C000FF752A404FF6FF452A400D8820E00000B3
:1017D000002C01400004004000080040000C0040C4
:1017E000001000400014004000340140004C014053
:1017F000005001400054014000180040001C00400F
:1018000000200040004001400044014000480140E9
:101810004FF6FF7606EA05252A434DF6FF752B4065
:101820000D8906EA05352B434D8806EA05352B431D
:10183000FA4DA84202D0FA4DA84208D14BF6FF75E6
:101840002C408D894FF6FF7606EA85152C4384805F
:101850008283CD88A0F84050038470BD828B4FF204
:10186000FF331A408283828B4FF6FF7303EA012312
:101870001A4382837047F0B50C46154600220021BA
:101880000026078C4EF6FF7C07EA0C070784828B44
:10189000018C4FF6FF7707EA043640F6FF473A40DF
:1018A0004FF6FF7707EA05273A434FF6FF7707EA37
:1018B00003373A43D94FB8420ED0D94FB8420BD074
:1018C000B0F1804F08D0D74FB84205D0D64FB842BC
:1018D00002D0D64FB84206D14DF6FF77394046F4D4
:1018E0008057394305E047F6FF57394044F48057A5
:1018F000394382830184F0BD828B4FF6F3731A4023
:101900008283828B0A4382837047F0B50C4615466A
:10191000002200210026078C4FF6FF6C07EA0C0717
:101920000784828B018C4FF6FF7707EA04264FF677
:101930000C773A404FF6FF7707EA03172F433A43F5
:10194000B64FB8420ED0B64FB8420BD0B0F1804F70
:1019500008D0B44FB84205D0B34FB84202D0B34F0D
:10196000B84206D14FF6FF57394046F480773943E5
:1019700005E04FF2FF57394044F4807739438283C2
:101980000184F0BD028B4FF2FF331A400283028BB9
:101990004FF6FF7303EA01231A4302837047F0B541
:1019A0000C461546002200210026078C4FF6EF7CDE
:1019B00007EA0C070784028B018C4FF6FF7707EAD2
:1019C000041640F6FF473A404FF6FF7707EA033721
:1019D0003A434FF6FF7707EA05273A438F4FB8425D
:1019E0000ED08F4FB8420BD0B0F1804F08D08D4F42
:1019F000B84205D08C4FB84202D08C4FB84206D1C5
:101A00004FF6DF77394046F01007394305E04FF6CF
:101A10005F77394044F01007394302830184F0BDF9
:101A2000028B4FF6F3731A400283028B0A43028340
:101A30007047F0B50C46154600220021068C4FF683
:101A4000FE773E400684028B018C4FF60C763240C6
:101A50007E1C06EA03162E433243704EB0420ED06F
:101A60006F4EB0420BD0B0F1804F08D06D4EB042F7
:101A700005D06D4EB04202D06C4EB04206D14FF64A
:101A8000FD76314044F00106314305E04FF6F5762E
:101A9000314044F00106314302830184F0BD70B54A
:101AA00005460C465D4885420ED05D4885420BD008
:101AB000B5F1804F08D05B48854205D05A48854231
:101AC00002D05A48854200D100E000BF208850B9BA
:101AD0002389A28861882846FFF7ABFFE188284662
:101AE000FFF79EFF25E0208804280AD12389A288D9
:101AF00061882846FFF753FFE1882846FFF742FF39
:101B000017E0208808280AD12389A28861882846FE
:101B1000FFF7FBFEE1882846FFF7EEFE09E0238988
:101B2000A28861882846FFF7A6FEE1882846FFF7CD
:101B300095FE70BD2DE9F04105460C4600260127B3
:101B4000608808B9022600E00026A088012801D19B
:101B5000022700E001272088A0B92389A288618894
:101B60002846FFF766FFE1882846FFF759FF2389DB
:101B70003A4631462846FFF712FFE1882846FFF72C
:101B800001FF13E02389A28861882846FFF707FF39
:101B9000E1882846FFF7F6FE23893A463146284673
:101BA000FFF747FFE1882846FFF73AFFBDE8F081DD
:101BB0000A884B881A438B881A43CB881A430B89AF
:101BC0001A434B891A438B891A43A0F84420704763
:101BD0004FF6FF71818000210180C1804180017238
:101BE00070470021018041808180C1800181418155
:101BF0008181C18170470021018041800121818064
:101C00000021C180018170470021018041808180D5
:101C1000C18001814181818170470000002C014019
:101C2000003401400004004000080040000C004067
:101C300021B1028842F00102028004E002884FF6DE
:101C4000FE731A400280704731B1B0F8442042F46C
:101C50000042A0F8442005E0B0F84420C2F30E0290
:101C6000A0F8442070471AB183890B43838102E0B6
:101C700083898B43838170478182704741EA0203E5
:101C8000A0F8483070471AB183890B43838102E082
:101C900083898B438381704701894FF6F872114025
:101CA000018170470A46002101894FF68F73194060
:101CB00011430181704730B504460D462946204640
:101CC000FFF7F0FF208940F00700208130BD2DE9AB
:101CD000F04104460D4616461F46602D06D13B4690
:101CE000012231462046FFF75AFE05E03B4601221D
:101CF00031462046FFF79DFE29462046FFF7D2FFDA
:101D0000208940F007002081BDE8F08130B50C4605
:101D100000210189C9B24FF6FF7505EA0325154375
:101D200025432943018130BD2DE9F04105460E468A
:101D300017469846002443463A4631462846FFF760
:101D4000E5FF2C894FF6F870044044F007044FF685
:101D50008F70044044F070042C81BDE8F081F0B530
:101D600004460D4616461F463B4632462946204647
:101D7000FFF7CCFF208940F480402081F0BD018531
:101D8000828270470A46002101884FF68F731940FE
:101D9000114301807047F0B50C4615461E460021E0
:101DA000002200230189028B038C4FF6F87739401B
:101DB00021434FF6FC473A4040F201173A434FF6B1
:101DC000DD773B404FF6FF7707EA06172F433B438B
:101DD000018102830384F0BD0A460021018B4FF686
:101DE0008F7319401143018370470A460021018B0C
:101DF00048F6FF7319404FF6FF7303EA02231943B5
:101E0000018370470A460021818B4FF68F7319407A
:101E10001143818370470A460021818B48F6FF7386
:101E200019404FF6FF7303EA022319438183704779
:101E300021B1028842F08002028004E002884FF65D
:101E40007F731A400280704721B1828842F00402F9
:101E5000828004E082884FF6FB731A4082807047CC
:101E600021B1828842F00802828004E082884FF625
:101E7000F7731A408280704721B1828842F00102D4
:101E8000828004E082884FF6FE731A408280704799
:101E90000A460021018B4FF6F77319401143018365
:101EA00070470A460021018B4FF2FF7319404FF62D
:101EB000FF7303EA02231943018370470A46002196
:101EC000818B4FF6F77319401143818370470A469F
:101ED0000021818B4FF2FF7319404FF6FF7303EA25
:101EE00002231943818370470A460021018B4FF674
:101EF000FB7319401143018370470A460021018B8F
:101F00004FF6FF3319404FF6FF7303EA02231943DC
:101F1000018370470A460021818B4FF6FB731940FD
:101F20001143818370470A460021818B4FF6FF33AE
:101F300019404FF6FF7303EA022319438183704768
:101F40000A460021018B4FF67F731940114301832C
:101F500070470A460021018BC1F30E014FF6FF7353
:101F600003EA02231943018370470A460021818B4B
:101F70004FF67F7319401143818370470A46002151
:101F8000818BC1F30E014FF6FF7303EA022319435D
:101F9000818370470A460021018C4FF6FD7319407A
:101FA0001143018470470A460021018C4FF6F773F4
:101FB00019401143018470470A460021018C4FF6F5
:101FC000DF7319404FF6FF7303EA021319430184CC
:101FD00070470A460021018C4FF67F7319404FF677
:101FE000FF7303EA02131943018470470A46002174
:101FF000018C4FF6FF5319404FF6FF7303EA02239B
:102000001943018470470A460021018C4FF2FF7387
:1020100019404FF6FF7303EA022319430184704706
:102020000A460021018C4DF6FF7319404FF6FF73ED
:1020300003EA023319430184704730B500230124B9
:102040008C40A3B2048C9C430484048C02FA01F5F6
:10205000ADB22C43048430BD30B5002304248C4041
:10206000A3B2048C9C430484048C02FA01F5ADB243
:102070002C43048430BD70B503460020002418466C
:10208000183001258D40ACB21D8CA5431D8409B1CB
:10209000082909D100EB6100056825F0700505608D
:1020A0000568154305600EE00D1FC5F34E05284475
:1020B000056825F4E045056005684FF6FF7606EAF9
:1020C00002263543056070BD21B1028842F002024C
:1020D000028004E002884FF6FD731A4002807047C8
:1020E00021B1028842F00402028004E002884FF627
:1020F000FB731A400280704721B1828842F080024F
:10210000828004E082884FF67F731A408280704795
:1021100002884FF6F7731A40028002880A43028051
:10212000704782884FF68F731A40828082880A43F4
:102130008280704702894FF6F8731A400281028943
:102140000A430281704702894FF67F731A40028169
:1021500002890A43028170478184704781857047F4
:10216000818670470187704781877047A0F84010CB
:10217000704702884FF6FF431A40028002880A43E4
:10218000028070470146888E70470146088F70476D
:102190000146888F70470146B1F8400070470146FC
:1021A000888C70470146088D704702460020138ACC
:1021B0000B400BB1012000E000207047CA430282AF
:1021C000704730B50246002000230024158A05EA36
:1021D0000103958905EA010413B10CB1012000E067
:1021E000002030BDCA430282704700002DE9FF5F26
:1021F00080460C4692460020039002900021404603
:1022000008F01EFE08D20120029088F0004B5846CC
:1022100008F09EFD054603E0404608F099FD05469E
:102220000021404608F016FE01D8404601E088F043
:102230000040FE49019008F0A4FC834608F088FDA8
:102240000A2190FBF1F201FB1206002E00DA0026B3
:10225000092E00DD09260A2D0DDB0A2095FBF0F082
:1022600000F0FF090A2095FBF0F100FB1150C7B206
:102270000120039004E04FF00009EFB2002003902A
:10228000029888B1039838B15423152250210520B3
:102290000094FDF765FF10E05423332250212320E2
:1022A0000094FDF75DFF08E04FF6FF7054233322E2
:1022B000502100900520FDF753FF039860B34FF6BF
:1022C000FF706A2337222A2100901420FDF748FF6F
:1022D0004FF6FF706A235F222A2100903820FDF715
:1022E0003FFF002109F13000C0B24FF6FF732246D4
:1022F000CDE900012A211620FEF722FD002107F179
:102300003000C0B24FF6FF732246CDE900012A210A
:102310003B20FEF715FD0CE0002107F13000C0B2B4
:102320004FF6FF732246CDE900012A213B20FEF73C
:1023300007FDBAF1000F28D0622364225E216020DD
:102340000094FDF70DFF612365225F21084600948C
:10235000FDF706FF63236422194660200094FDF711
:10236000FFFE5D236422194660200094FDF7F8FE0D
:10237000012106F13000C0B24FF6FF732246CDE9CD
:1023800000014A216D20FEF7DBFCBDE8FF9F08B588
:10239000A7484FF6FF734FF478420521009088203C
:1023A000FEF7EDFDA3484FF6FF73002205210090D4
:1023B0007020FEF7E4FDA0484FF6FF7300220521D0
:1023C00000905820FEF7DBFD9C484FF6FF7300227B
:1023D0002D2100906420FEF7D2FD99484FF6FF733F
:1023E00000222D2100908820FEF7C9FD9548007835
:1023F00050B195484FF6FF734FF478425521009045
:102400008820FEF7BCFD08E08F484FF6FF730022DE
:10241000552100908820FEF7B2FD08BD1CB50020B4
:102420008A4908804FF6FF708949088089480079F9
:102430000A2190FBF1F03030C4B201204FF6FF7357
:1024400000220521CDE900400846FEF779FC8148CD
:1024500000790A2190FBF1F201FB12003030C4B286
:1024600001204FF6FF7300220521CDE90040152021
:10247000FEF766FC002012232B220F21009028205B
:10248000FDF76EFE00201C232B221921009028202E
:10249000FDF766FE6F4840790A2190FBF1F030307D
:1024A000C4B201204FF6FF7300220521CDE90040A0
:1024B0002F20FEF745FC674840790A2190FBF1F296
:1024C00001FB12003030C4B201204FF6FF7300222E
:1024D0000521CDE900403F20FEF732FCFFF757FF12
:1024E000012200215C480068FFF780FE00205B4964
:1024F0000870642007F071FB0020594908601CBD7A
:1025000008B54FF6FF706C23822228210090052029
:10251000FDF726FE08BD38B505460C464FF6FF70A0
:1025200015231A46002100900846FDF719FE4FF6C4
:10253000FF701523A022002100909020FDF710FECF
:1025400055B148484FF6FF734FF47842052100908B
:102550000846FEF76AFD08E042484FF6FF73002286
:10256000052100900846FEF760FD54B13E484FF645
:10257000FF734FF47842052100908C20FEF755FD43
:1025800008E039484FF6FF730022052100908C20A7
:10259000FEF74BFD38BD10B53448007830B100204F
:1025A0003249087001203249087005E001202F49A6
:1025B000087000202E4908702C4801782C480078BB
:1025C000FFF7A9FF642008F02FFA10BDF0B585B021
:1025D00004460F46274903C9CDE903019FB14FF6D1
:1025E000FF754FF478463046009003A830F8140089
:1025F000183083B22048028803A830F81410002055
:10260000FDF7AEFD11E000254FF6FF763046009055
:1026100003A830F81400183083B21748028803A8C2
:1026200030F814100020FDF79BFD27E0000020414A
:1026300098F4000850F4000808F4000870F5000849
:1026400028F5000898010020E0F400081603002097
:1026500018030020F6000020F00000208C0100206C
:102660009001002058F6000818F600089A01002092
:1026700099010020D80501084803002004BBFE484A
:10268000009003A830F81400001D81B233462A469A
:102690000A20FEF71FFDF9480580F9480680002052
:1026A0001021F8A2CDE90021029003A830F814000F
:1026B000801C81B233462A461E20FEF772FA42E0A1
:1026C000012C20D1F448009003A830F81400001D1C
:1026D00081B233462A460A20FEF7FCFCE748058013
:1026E000E748068000201021ECA2CDE900210290ED
:1026F00003A830F81400801C81B233462A461E20FD
:10270000FEF74FFA1FE0E948009003A830F81400E4
:10271000001D81B233462A460A20FEF7DBFCD7486B
:102720000580D748068000201021E1A2CDE90021D4
:10273000029003A830F81400801C81B233462A4668
:102740001E20FEF72EFA05B0F0BDF8B504460D4682
:1027500016464FF6FF700090D94843880288002142
:102760000846FDF7FDFC31462846FFF7D4FE012C54
:1027700001D1012000E0002001460020FFF726FFE4
:10278000022C01D1012000E0002001460120FFF7CA
:102790001DFF032C01D1012000E000200146022092
:1027A000FFF714FFF8BD00B587B0C64800780028D1
:1027B0007ED1C5480078012803D0C348007802289C
:1027C00023D1C248007858B10020C0490870C048E1
:1027D0004FF6FF730022552100908820FEF7CFFBB3
:1027E0000220B84908700020BA490860BA49086058
:1027F000FFF786FE00221F21B8480068FFF7F6FCAD
:10280000642008F011F903F00FBAAF4800780328EC
:1028100030D1AE480078C8B10320AA490870002022
:10282000AC490860AE4908700120AE49087000202C
:10283000AD490870AB480278A9480178AA480078E9
:10284000FFF783FF0120A94908700CE001209F4990
:1028500008709F484FF6FF734FF47842552100905F
:102860008820FEF78CFB00209A490860642008F05D
:10287000DBF8C8E797480068401C96490860B0F547
:102880007A7FC0D39148007858B100208F490870F2
:102890008F484FF6FF730022552100908820FEF7E5
:1028A0006EFB01208749087000208A49086000E01B
:1028B00007E08F48007807F090F98EA008F0EEFB53
:1028C000A1E78048007801280FD17F4800780028D0
:1028D00099D000207B4908707E490860642007F089
:1028E0007CF9642008F0A0F88DE77648007802288B
:1028F0007AD175480078012821D14FF07E51774870
:10290000006808F0E6F87549086080497348006877
:1029100008F0A0FA02D27D487049086000206D4995
:1029200008606D490860FFF7EBFD00221F216B482E
:102930000068FFF75BFC642008F076F83BE0624833
:102940000078022821D14FF07E516448006808F0D9
:1029500012F9624908606E496048006808F070FA30
:1029600002D26B485D49086000205A4908605A4904
:102970000860FFF7C5FD00221F2158480068FFF7D7
:1029800035FC642008F050F815E04F480078032823
:1029900011D100204B4908704F4908604D4908602B
:1029A000FFF7AEFD012200214C480068FFF71EFC36
:1029B000642008F039F848480068401C464908601F
:1029C000B0F5FA7F90D300203E4908704249086074
:1029D00040490860FFF794FD012200213F4800684C
:1029E000FFF704FC0FE7FFE736480078032841D1E2
:1029F0003E480078E8B334480078012803D03248D4
:102A00000078022802D1FFF7C6FDFCE62E480078C8
:102A10000328E7D13348007890B10120324908708B
:102A20000020324908702E4908702E490870084667
:102A300002782B4801782C480078FFF786FE6BE07F
:102A400000202049087029490870224908601F4960
:102A500008704FF6FF70009019484088069018489B
:102A600000880590024600210846069BFDF778FB8A
:102A700050E055E035E1000038F70008160300206B
:102A80001803002048656174696E672053636865A8
:102A900064756C650000000048F70008436F6E74B1
:102AA000726F6C2041646A2E0000000058F7000825
:102AB000557365722053657474696E677300000006
:102AC000480300208C010020F40000209801002021
:102AD000E0F400089001002094010020F0000020A4
:102AE000990100209A0100209B0100209C010020F8
:102AF000C60100205B496E665D205345542042614B
:102B0000636B6C696768740A0D0000000000C642C0
:102B10000000C6C2FFF782FC642007F085FF72E662
:102B2000FB48007802281CD1FA480078032814DA00
:102B3000F8480078401EC0B200210690FFF746FD1D
:102B4000F4480078401CF349087008460078401E9D
:102B5000C0B201210690FFF739FD642007F064FF41
:102B600051E6EB480078012833D1EA480078012883
:102B700015DDE8480078401EC0B200210690FFF73E
:102B800025FDE4480078401EE249087008460078B8
:102B9000401EC0B201210690FFF718FD15E001208C
:102BA000DD4908700020DD4908700120DC4908700B
:102BB00008460178D9480078FFF7ADFC0020D549D8
:102BC000087000210846FFF701FD642007F02CFF84
:102BD00019E6CF4800780328A1D1CE480078012813
:102BE00025D10520CF4908700120CB49087000206D
:102BF000C8490870C94908700120C94908704FF6D2
:102C0000FF700090C84840880690C748008805902B
:102C1000024600210846069BFDF7A2FAC04802784A
:102C2000BE480178BB48007803F0F4F855E0B94895
:102C30000078022828D10920BA4908700120B64935
:102C400008700020B3490870B44908700120B449E5
:102C500008700020B54908704FF6FF700090B24828
:102C600040880690B048008805900246002108463A
:102C7000069BFDF775FAAA480278A8480178A5488E
:102C8000007804F067F928E0A2480078032824D1EE
:102C90001120A449087001209F49087000209D4917
:102CA00008709E49087001209D4908704FF6FF701A
:102CB00000909D48408806909B48008805900246F9
:102CC00000210846069BFDF74BFA95480278934889
:102CD00001789048007804F0FAFF642007F0A4FE21
:102CE00091E590480078052877D18B480078E8B3C3
:102CF00087480078012803D085480078022802D14F
:102D0000FFF749FC7FE5824800780328E8D1844832
:102D1000007898B100208049087001207D49087032
:102D200000207E4908707E490870084602787B487A
:102D300001787848007803F06DF815E003207949B0
:102D40000870002074490870012072490870002042
:102D50007249087072490870084602786F48017815
:102D60006C480078FFF7F1FC642000E002E007F017
:102D70005BFE48E566480078022816D16548007871
:102D800003280EDA00216348007802F0A5FF6148AD
:102D90000078401C5F49087001215E48007802F00D
:102DA0009BFF642007F040FE2DE55948007801287C
:102DB0002ED158480078012810DD002155480078B0
:102DC00002F08AFF53480078401E524908700121E2
:102DD0005048007802F080FF16E085E001204E495F
:102DE000087000204B4908704C49087001204C497C
:102DF00008700846017849480078FFF78CFB454881
:102E00000178012002F068FF642007F00DFEFAE46B
:102E10003F4800780328ACD13E480078012826D1ED
:102E200006204049087001203B49087000203B49BA
:102E3000087001203A4908700020364908704FF6A2
:102E4000FF70009038484088069037480088059009
:102E5000024600210846069BFDF782F930480278B9
:102E60002E4801782B48007803F0F8F838E029481C
:102E70000078022803D027480078032830D125485D
:102E80000078022801D0012000E0002028490870C5
:102E900007202449087001201F49087000201F499D
:102EA000087001201E49087000201A490870214945
:102EB00008704FF6FF7000901B48408806901A4833
:102EC00000880590024600210846069BFDF748F958
:102ED00013480278114801780E48007803F013FA7D
:102EE000642007F0A1FD8EE40E48007806287DD10D
:102EF00009480078012866D105480078012803D0E8
:102F000003480078022817D1FFF745FB7BE4000057
:102F1000F40000209B0100209C010020990100206A
:102F20009A0100208C01002048030020A20100200B
:102F3000FD010020A1010020F74800780328D2D12C
:102F4000F648007820B30520F54908700120F549BE
:102F500008700020F1490870F3490870F3490870BF
:102F60004FF6FF700090F24840880690F0480088C5
:102F70000590024600210846069BFDF7F1F8EA4855
:102F80000278E6480178E748007802F043FF16E04F
:102F90000120E44908700020E0490870E249087007
:102FA000E2490870E0480178DC480078FFF7B3FA9E
:102FB000DC480078401EC0B2069002F0DBFF6420BF
:102FC00007F032FD1FE4D948007888BBD24800786A
:102FD000022815D1D348007801280DDDD1480078AA
:102FE000401ED04908700846007800E083E0401E8B
:102FF000C0B2069002F0BEFF642007F015FD38E471
:10300000C5480078012814D1C648007803280BDA97
:10301000C4480078401CC349087008460078401E28
:10302000C0B2069002F0A6FF642007F0FDFC20E489
:1030300012E0B94800780328C4D10220BB490870C7
:10304000B9480278B5480178B648007803F006F828
:10305000642007F0E9FC0CE4B44800780228B1D100
:10306000AD480078012803D0AB480078022811D180
:103070000020AE4908700320AA490870AA480278C7
:10308000A6480178A748007802F0E8FF642007F01E
:10309000CBFC15E4A0480078032893D1A148007820
:1030A000401EA449087005209D49087000209F49D2
:1030B00008709A4908709C49087001209949087065
:1030C0004FF6FF7000909A48408806909848008814
:1030D0000590024600210846069BFDF741F89248FC
:1030E00002788E4801788F48007802F093FE6420C1
:1030F00007F09AFC76E48A480078072875D18B4857
:103100000078E8B384480078012803D0824800782A
:10311000022802D1FFF73FFA64E47F4800780328D1
:1031200085D18148007890B10020804908707B49A2
:1031300008707D49087001207A4908707A48027841
:10314000764801787748007803F0DDF825E005201F
:103150007349087001207549087070490870002093
:10316000714908706F4908704FF6FF700090704801
:10317000408806906E48008805900246002100E0D5
:103180000FE00846069BFCF7EBFF674802786348B0
:1031900001786448007802F03DFE642007F044FCAA
:1031A00020E45D48007802287ED15E480078072838
:1031B0007EDA5C48007806905A480078401C5949ED
:1031C00008705D48007805900846007806280DDCF8
:1031D0000846017858480078001D81420DDD5148AD
:1031E0000078001F5449087007E09CE152480078BD
:1031F000032802DA0320504908704F4909780598DE
:10320000884206D0002211464648007803F07BF839
:103210004DE0494909780698401AC0B204904148E7
:10322000007845490978401AC0B2039006980728EB
:1032300010D1002002F08EFF3A480078401EC0B244
:1032400002900398401EC0B201220190029902F040
:10325000A9FF28E03348007807280BD10498401EC6
:10326000C0B200220290069902F09CFF012002F0F9
:1032700071FF18E00698401EC0B202900498401EEC
:10328000C0B200220190029902F08CFF254800781C
:10329000401EC0B202900398401EC0B201220190AD
:1032A000029902F07FFF01E006E001E000BF00BFED
:1032B000642007F0B9FB32E41748007801287DD17B
:1032C0001848007801287ADD1648007806901548DD
:1032D0000078401E1349087017480078059008468A
:1032E0000078401E14490978884204DA0D480078B5
:1032F000401E1149087010490978059888421DD070
:1033000008480078062819D00022114605480078A0
:1033100002F0F9FF5DE00000F400002099010020B8
:103320008C0100209B0100209A0100209C010020BC
:10333000480300209D010020A1010020FA490978DE
:103340000698401AC0B20490F8480078F649097807
:10335000401AC0B203900698072810D1F3480078AD
:10336000401EC0B202900398401EC0B201220190DC
:10337000029902F017FF002002F0ECFE28E0EB4873
:103380000078072808D100220699049802F00AFF65
:10339000012002F0DFFE1BE00698401EC0B2029042
:1033A0000498401EC0B200220190029902F0FAFE79
:1033B000DE480078401EC0B2029001E025E009E03E
:1033C0000398401EC0B201220190029902F0EAFE69
:1033D00000BF16E00020D64908700120D5490870CA
:1033E000D5490870D54908700020D5490870CF49E3
:1033F0000870D3480278D1480178CC48007802F0B0
:1034000082FF642007F010FB6AE4CE4800780328AE
:10341000FAD1C6480078072829D10520CA49087082
:103420000020C5490870C5490870C5490870C748DB
:10343000007808B9022000E00320BC4908704FF66C
:10344000FF700090C24840880690C14800880590EF
:10345000024600210846069BFCF782FEB848027827
:10346000B6480178B148007802F0D4FC57E0AF4884
:103470000078062853DC0820B3490870AB48007870
:10348000B44908700120AC4908700020AB490870AD
:103490000120AB4908700020A4490870AB480078AF
:1034A00008B1AD4800E0AD480690AA480178491E31
:1034B000069810F82100AA490870A6480178491E0C
:1034C000069800EB81004078A6490870A148017871
:1034D000491E069800EB81008078A34908709D483A
:1034E0000178491E069800EB8100C0789F4908705A
:1034F0004FF6FF70009096484088069094480088E8
:103500000590024600210846069BFCF729FE8C48E0
:1035100002788A4801788F48007802F027FF6420FB
:1035200007F082FA25E488480078082870D182489C
:103530000078D0B383480078012803D08148007810
:10354000022802D1FFF727F813E47E480078032809
:10355000E8D17B48007898B10120744908700020B8
:103560007649087076490870734908707448017884
:1035700072480078FEF7CFFF012003F033F931E005
:1035800007207149087001206B4908706B49087069
:1035900000206B49087065490870084600780428C7
:1035A00004DC00206049087005E01FE05F480078F7
:1035B000001F5D4908704FF6FF7000906448408816
:1035C0000690634800880590024600210846069B45
:1035D000FCF7C6FD5A4802785848017853480078ED
:1035E00002F091FE642007F01FFA10E44F480078C3
:1035F00001283FD153480078012813D1584800785A
:10360000172806DA56480078401C5549087003E030
:103610004CE100205249087003F0A7F9642007F03C
:1036200003FA60E447480078022812D14C48007839
:10363000002805DD4A480078401E4949087002E02C
:1036400017204749087003F090F9642007F0ECF95F
:1036500049E43C4800780328C7D102203349087068
:10366000012003F00EF9022003F0BCF8642007F0FB
:10367000DBF938E42D48007802283DD13148007844
:10368000012812D1374800783B2805DA3548007800
:10369000401C3449087002E000203249087003F0F1
:1036A00064F9642007F0C0F91DE426480078022878
:1036B00012D12C480078002805DD2A480078401EE9
:1036C0002849087002E03B202649087003F04DF9B4
:1036D000642007F0A9F906E41A480078032884D189
:1036E00012490870022003F0CCF8032003F07AF8A6
:1036F000642007F099F909E40C48007803285AD1AE
:1037000010480078012833D1174800782D2804DAB2
:1037100015480078401C1449087003F0A9F964208A
:1037200007F082F94EE40000A10100209B01002077
:103730009F010020A00100209C0100209901002091
:103740009A010020F40000208C010020FD010020DF
:1037500048030020C8010020E5010020CD01002021
:10376000CA010020CB010020CC010020C9010020AB
:10377000FA48007802280ED1F9480078002804DDC4
:10378000F7480078401EF649087003F071F964208C
:1037900007F04AF916E4F1480078032884D10420A0
:1037A000F0490870032003F06CF803F09CF96420E2
:1037B00007F03AF906E4EB480078042824D1E748FA
:1037C0000078012803D0E548007802280DD1E648AA
:1037D000007808B9012000E00020E349087003F0F8
:1037E00082F9642007F020F909E4DC480078032816
:1037F00098D10520DB49087003F075F903F009FA48
:10380000642007F011F912E4D6480078052889D120
:10381000D2480078032885D1D4480078401EC0B231
:103820000690D348007808B1D24800E0D24805900D
:10383000D2480278DDE9050100F82120D04802785D
:10384000DDE9050100EB81004270C5480278DDE941
:10385000050100EB81008270C3480278DDE90501B3
:1038600000EB8100C2700720C64908700120C649DC
:103870000870BE480078BB490870084600780428E4
:1038800003DC0020C149087004E0B6480078001F3E
:10389000BE490870BE480278BE480178B148007839
:1038A00002F031FD642007F0BFF823E4B54800784A
:1038B00009287DD1B8480078F0B3A84800780128DD
:1038C00003D0A6480078022802D1FEF764FE11E476
:1038D000A2480078032887D1AD480078A8B100201D
:1038E000AD49087001209F4908700020A94908705F
:1038F000A7490870A9490870A5480278A548017829
:103900009848007803F026FB26E003209D490870C4
:103910000020A149087002209249087000209D49AA
:1039200008709B4908704FF6FF7000909C484088D3
:1039300006909B48008800E012E0059002460021B6
:103940000846069BFCF70CFC9148027891480178E8
:1039500084480078FEF7F9FE642007F065F81FE45C
:103960007E480078022844D17E48007805283CDA59
:103970007C4800780690894800780590794800785E
:10398000401C784908700846017884480078001D7A
:10399000814204DD73480078001F804908707F4928
:1039A0000978059888420AD079480278794800E079
:1039B00080E101786B48007803F0CCFA14E00698B7
:1039C000401E76490978401AC0B20021049003F0E5
:1039D0006AFA64480078401E70490978401AC0B2FB
:1039E0000121049003F05FFA00BF642007F01CF887
:1039F00061E45A480078012853D15A4800780128D8
:103A000039DD58480078069064480078059055489C
:103A10000078401E5349087008460078401E5F49F0
:103A20000978491C884202DA00205C4908705B4929
:103A300009780598884208D0554802785548017899
:103A40004848007803F086FA14E00698401E53496F
:103A50000978401AC0B20021049003F024FA4148CA
:103A60000078401E4D490978401AC0B201210490E7
:103A700003F019FA11E00120474908704549087020
:103A8000002043490870374908704148027841488E
:103A900001783448007803F05DFA642006F0C4FF32
:103AA00009E42E4800780328A2D12E480078012886
:103AB00029D10A20334908700120374908700020B5
:103AC0002849087033490870012031490870354889
:103AD0000078354908704FF6FF70009030484088F4
:103AE00006902F4800880590024600210846069B54
:103AF000FCF736FB264802782648017819480078FA
:103B000003F0F8FAD2E01748007802284ED10B20D3
:103B10001C49087001202049087000201D490870C8
:103B200001201B49087000200E4908704FF6FF70F5
:103B300000901B484088069019480088059002466E
:103B400000210846069BFCF70BFB11480278114840
:103B500001780448007803F069FBA7E0F400002036
:103B6000CC0100209B010020C9010020C8010020D9
:103B7000FD010020E5010020CD010020CA01002048
:103B8000CB0100208C0100209F010020A10100201A
:103B90009A010020990100209C010020A201002030
:103BA00048030020A5010020A4010020FE48007861
:103BB000032826D10C20FD4908700120FC4908701B
:103BC0000020FC4908700120FB4908700020F649DC
:103BD00008704FF6FF700090F84840880690F7484C
:103BE00000880590024600210846069BFCF7B8FABB
:103BF000F1480278EF480178EB48007803F0DBFBEE
:103C000054E0E9480078042826D10D20E7490870DF
:103C10000120E74908700020E64908700120E649C4
:103C200008700020E04908704FF6FF700090E348EC
:103C300040880690E1480088059002460021084629
:103C4000069BFCF78DFADC480278DA480178D64802
:103C5000007803F0FCFB29E0D3480078052825D143
:103C60001020D24908700120D14908700020D149A4
:103C700008700120D04908700020CB4908704FF629
:103C8000FF700090CD4840880690CC480088059091
:103C9000024600210846069BFCF762FAC6480278F5
:103CA000C4480178C048007803F00FFF642006F094
:103CB000BBFE37E4BD4800780A287DD1BC480078B7
:103CC00001284CD1BE480078012803D0BC480078B8
:103CD000022802D1FEF75FFC24E4B94800780328EB
:103CE000E7D1B548007890B10020B1490870B249D9
:103CF0000870B04908700120AB490870AE480278DE
:103D0000AC480178A848007803F0F4F923E00920D2
:103D1000A64908700020A6490870A6490870A6495F
:103D200008700120A04908704FF6FF700090A3486A
:103D300040880690A1480088059002460021084668
:103D4000069BFCF70DFA9C4802789A480178964841
:103D5000007803F0FFF8642006F066FE45E4924820
:103D60000078012852D196480078022813D195484E
:103D7000007801280BDA93480078401C91490870BC
:103D800008460078401CC0B2069003F03EF964205B
:103D900006F04AFE29E48A480078012828D189489B
:103DA000007800280EDD87480078401E854908709D
:103DB00008460078401C00E05DE0C0B2069003F0C9
:103DC00024F911E001207A4908707B49087000202D
:103DD0007849087074490870774802787548017806
:103DE0007148007803F086F9642006F01DFE18E49F
:103DF000734800780328B1D102206B490870012074
:103E000003F0DBF8642006F00FFE0AE46648007851
:103E10000228A3D16A48007803282BD1694800788A
:103E200069490870092061490870002060490870DC
:103E3000604908706049087001205B4908704FF6BE
:103E4000FF7000905D48408806905C4800880590AF
:103E5000024600210846069BFCF782F95648027884
:103E6000544801785048007803F074F8642006F054
:103E7000DBFD19E418E44D4800780B287AD14C4852
:103E8000007801284ED14E480078012803D04C48D4
:103E90000078022802D1FEF77EFB05E4484800784E
:103EA0000328A4D144480078A0B1002040490870FC
:103EB000414908703F49087001203B4908703E485D
:103EC00001783C480078FEF726FB3748007803F07D
:103ED0003CF923E009203549087000203449087076
:103EE000344908703449087002202F4908704FF691
:103EF000FF70009031484088069030480088059057
:103F0000024600210846069BFCF72AF92A48027857
:103F1000284801782448007803F01CF8642006F053
:103F200083FD37E420480078012871D124480078C7
:103F3000012820D12548006806F023FF0022244BE9
:103F4000CDE9040106F030FF93D22048006806F066
:103F500018FF00221F4BCDE9020106F044FECDE917
:103F6000040106F051FF194908600F48007803F07A
:103F7000ECF80FE4D0E01248007802283BD1134857
:103F8000006806F0FEFE0022134BCDE9040106F0A6
:103F900023FFC6D20D48006806F0F3FE00220D4B49
:103FA000CDE902011AE000009B0100208C010020F5
:103FB0009C010020990100209A0100204803002064
:103FC000F4000020A4010020A5010020A801002089
:103FD000000014400000E03F000014C006F0A4FE02
:103FE000CDE9040106F010FFF8490860F8480078B0
:103FF00003F0ABF807E4F7480078032891D10220DA
:10400000F34908700846007803F09FF84DE4FFE795
:10401000EF480078022852D1EE48007801281FD1DD
:10402000ED48006806F0ADFE0022EC4BCDE904013E
:1040300006F0BAFE9DD2E848006806F0A2FE002213
:10404000E74BCDE9020106F0CEFDCDE9040106F013
:10405000DBFEE1490860DE48007803F076F824E4EE
:10406000DC48007802281FD1DB48006806F089FE92
:104070000022DC4BCDE9040106F0AEFEBAD2D648F0
:10408000006806F07EFE0022D54BCDE9020106F065
:104090004BFECDE9040106F0B7FECF490860CC48DD
:1040A000007803F052F812E4CA4800780328A1D13E
:1040B000C74908700846007803F047F807E4C44889
:1040C0000078032896D1C3480078032892D10920AC
:1040D000C54908700020C5490870C5490870C54920
:1040E00008700220BA4908704FF6FF700090C2486D
:1040F00040880690C0480088059002460021084686
:10410000069BFCF72DF8BB480278B9480178B04807
:10411000007802F01FFF22E4B34800780C287AD11F
:10412000B248007801284ED1AA480078012803D06F
:10413000A8480078022802D1FEF72DFA0FE4A5481E
:10414000007803288BD1AB480078A0B10020A749A4
:104150000870A8490870A649087001209C49087099
:10416000A4480178A2480078FEF7D5F9984800786D
:1041700003F0AAF823E009209B49087000209B491E
:1041800008709B4908709B4908700320904908708B
:104190004FF6FF7000909848408806909648008837
:1041A0000590024600210846069BFBF7D9FF91487F
:1041B00002788F4801788648007802F0CBFE6420B0
:1041C00006F032FC14E482480078012830D181489E
:1041D000007801280DD1894800683C289BDA87487F
:1041E0000068401C854908607948007803F06CF845
:1041F00056E47848007802280ED1804800681428D8
:1042000089DD7E480068401E7C490860704800785F
:1042100003F05AF844E46CE06E48007803288DD12E
:1042200002206B4908700846007803F04DF837E427
:104230006748007802282FD16648007801280DD100
:104240006F4800680A28BDDA6D480068401C6C4958
:1042500008605F48007803F037F821E45D48007893
:1042600002280ED16648006810F10A0FAADD6448E2
:104270000068401E624908605548007803F024F841
:104280000EE45448007803289CD151490870084630
:10429000007803F019F80CE54D480078032891D117
:1042A0004C48007803288DD109204F490870002020
:1042B0004E4908704E4908704E4908700320444921
:1042C00008704FF6FF7000904B48408806904A48AF
:1042D00000880590024600210846069BFBF740FF38
:1042E00044480278424801783948007802F032FEAA
:1042F000DFE43D4800780D2866D13C48007801286D
:104300004CD134480078012803D032480078022884
:1043100002D1FEF740F9CCE42E480078032886D17C
:104320003448007890B10020304908703149087055
:104330002F4908700120264908702E4802782C4821
:1043400001782348007803F082F823E00920264909
:104350000870002025490870254908702549087013
:1043600004201B4908704FF6FF70009022484088D7
:104370000690214800880590024600210846069BC9
:10438000FBF7EEFE1B4802781948017810480078C8
:1043900002F0E0FD642006F047FB8AE40D48007857
:1043A00002282FD10A4800780228A1DA08480078AC
:1043B000401C074908700F4802780D4801780448EE
:1043C000007803F044F874E4A3E00000A8010020A2
:1043D0009B010020F4000020AC01002000001440EC
:1043E0000000E03F000014C08C0100209C01002070
:1043F000990100209A01002048030020B00100200C
:10440000B4010020F7480078012828D1F648007848
:1044100002280DD1F4480078401EF3490870F34893
:104420000278F3480178F048007803F010F840E48F
:10443000ED4800780128B0D10020EB490870EC4924
:1044400008700120E9490870EA490870E7480278D5
:10445000E7480178E448007802F0F9FF29E4E148F0
:104460000078032899D1E0480078012826D10E2051
:10447000E14908700120DF4908700020DC4908701C
:104480000120DA4908700020D74908704FF6FF7004
:104490000090DA4840880690D84800880590024687
:1044A00000210846069BFBF75BFED0480278D04807
:1044B0000178CD48007803F06DF90DE4CA48007822
:1044C0000228B4D10F20CC4908700120C9490870D6
:1044D0000020C74908700120C44908700020C24963
:1044E00008704FF6FF700090C44840880690C3489B
:1044F00000880590024600210846069BFBF730FE27
:10450000BA480278BA480178B748007803F00BFA45
:1045100024E4B94800780E2878D1B64800780128FC
:104520004CD1B0480078012803D0AE48007802286A
:1045300002D1FEF730F811E4AA48007803288DD1A3
:10454000AA48007890B10020AA490870A7490870CD
:10455000A74908700120A4490870A4480278A4481B
:104560000178A148007803F015F923E00D20A24955
:10457000087000209F4908709D4908709B49087089
:104580000120994908704FF6FF7000909B484088C1
:1045900006909A4800880590024600210846069B2E
:1045A000FBF7DEFD91480278914801788E4800784B
:1045B00002F04DFF642006F037FA18E48A480078CC
:1045C000012830D18748007801280DD18C48006837
:1045D00046289DDA8A480068401C8949086082485C
:1045E000007803F051F810E47E48007802280ED1DC
:1045F000834800682D288BDD81480068401E804973
:1046000008607948007803F03FF832E45EE07548CE
:10461000007803288FD1022073490870084600787B
:1046200003F032F825E470480078022821D16D4863
:104630000078012803D06B48007802280ED1714819
:10464000007818B100206F49087002E001206D4920
:1046500008706548007803F017F80AE461480078AC
:104660000328AAD1604908700846007803F00CF8C6
:1046700013E45D48007803289FD15A480078032846
:104680009BD10D205C49087000205A490870584998
:104690000870564908700120534908704FF6FF70A2
:1046A000009056484088069054480088059002467D
:1046B00000210846069BFBF753FD4C4802784C4806
:1046C00001784948007802F0C2FE2AE44A4800789E
:1046D0000F2879D14748007801284CD1414800780B
:1046E000012803D03F480078022802D1FDF753FF8C
:1046F00017E43C480078032887D13C48007890B103
:1047000000203C4908703949087039490870012077
:1047100035490870354802783548017832480078C4
:1047200003F001F923E00D203349087000203149DE
:1047300008702F4908702D49087002202A49087016
:104740004FF6FF7000902D48408806902B48008857
:104750000590024600210846069BFBF701FD234811
:104760000278234801782048007802F070FE642027
:1047700006F05AF93EE41C480078012846D1194851
:10478000007801280DD1204800680A289DDA1E48CB
:104790000068401C1C4908601348007803F03DF88D
:1047A00028E41048007802280FD11748006810F15B
:1047B0000A0F8ADD14480068401E134908600A4841
:1047C000007803F02AF815E473E00648007803281F
:1047D0008ED10220044908700846007803F01DF8C5
:1047E00008E40000F40000209B0100209A01002052
:1047F000990100209C0100208C010020480300202A
:10480000B8010020C0010020BC010020FA48007857
:10481000022821D1F9480078012803D0F748007810
:1048200002280ED1F648007818B10020F44908702B
:1048300002E00120F2490870EF48007802F0EDFF35
:104840000DE4EE480078032894D1EB49087008463F
:10485000007802F0E2FF26E4E7480078032889D1D7
:10486000E6480078032885D10D20E649087000202D
:10487000E5490870E5490870E54908700220DE49FD
:1048800008704FF6FF700090E24840880690E148BB
:1048900000880590024600210846069BFBF760FC55
:1048A000DB480278D9480178D348007802F0CFFD80
:1048B00004E4D4480078102874D1D3480078012843
:1048C00048D1CE480078012803D0CC48007802288F
:1048D00002D1FDF760FE1EE4C84800780328AFD17E
:1048E000CB48007870B10020C7490870C8490870EB
:1048F000C64908700120C04908700846007803F0D6
:1049000079F823E00920BF4908700020BE490870EB
:10491000BE490870BE4908700520B74908704FF6B7
:10492000FF700090BB4840880690BA480088059008
:10493000024600210846069BFBF712FCB4480278A9
:10494000B2480178AC48007802F004FB642006F01D
:104950006BF837E4A8480078012807D0A64800780B
:10496000022803D0A4480078032848D1A34800783F
:10497000012822D1A0480078012814D1A24908704A
:104980000020A24908700120A149087000209A491E
:1049900008709F4802789D4801789748007803F096
:1049A00094F80FE458E094480078401E924908704B
:1049B0000846007803F01EF804E4904800780228C6
:1049C0000DD18D480078032885DA8B480078401C8B
:1049D000894908700846007803F00CF808E4874815
:1049E00000780328B5D1844800788B4908700420EA
:1049F000814908700846007802F0FCFF0AE47E480E
:104A000000780428A5D17D4800780328A1D1092089
:104A10007C49087000207C4908707C4908707C49FA
:104A200008700520744908704FF6FF7000907948AF
:104A30004088069077480088059002460021084685
:104A4000069BFBF78DFB72480278704801786A4834
:104A5000007802F07FFA13E46A48007811287DD1CB
:104A600069480078F0B365480078012803D06348AE
:104A70000078022802D1FDF78EFD0CE45F48007833
:104A800003288ED162480078A8B100205E490870E2
:104A900001205949087000205C4908705C49087081
:104AA0005E4908705A4802785848017852480078A0
:104AB00003F00DF926E00320524908700020524906
:104AC000087003204C490870002050490870504974
:104AD00008704FF6FF7000904E48408806904D4891
:104AE000008800E012E00590024600210846069B7F
:104AF000FBF736FB46480278444801783E48007888
:104B0000FDF723FE642005F08FFF04E43B480078A6
:104B1000022844D13848007805283CDA3648007825
:104B200006903F480078059033480078401C324991
:104B30000870084601783A480078001D814204DD7B
:104B40002D480078001F36490870354909780598C6
:104B500088420AD02E4802782C4800E06BE10178A8
:104B60002548007803F0B3F814E00698401E2C495D
:104B70000978401AC0B20021049003F051F81E4891
:104B80000078401E26490978401AC0B201210490DD
:104B900003F046F800BF642005F046FF13E4174811
:104BA000007801286AD114480078012850DD1248A5
:104BB000007806901A48007805900F480078401E4B
:104BC0000D49087008460078401E15490978491CAF
:104BD000884202DA002012490870114909780598C4
:104BE00088421FD00A4802780848017802480078B5
:104BF00003F06DF82BE000009B010020F400002082
:104C0000C10100208C0100209C010020990100209E
:104C10009A01002048030020C2010020A2010020C8
:104C2000A30100200698401EFE490978401AC0B230
:104C30000021049002F0F4FFFB480078401EF9497F
:104C40000978401AC0B20121049002F0E9FF11E096
:104C50000120F6490870F64908700020F5490870EF
:104C6000F1490870F3480278F1480178EE4800787D
:104C700003F02DF8642005F0D7FE1EE4EE4800781E
:104C800003288BD1E8480078012825D11220EB4970
:104C900008700120E54908700020E3490870E449E4
:104CA00008700120E34908704FF6FF700090E44857
:104CB00040880690E2480088059002460021084698
:104CC000069BFBF74DFADB480278D9480178D648B5
:104CD000007803F0AFF8AAE0D3480078022826D184
:104CE0001320D64908700120D04908700020D0490F
:104CF00008700120CF4908700020CB4908704FF69A
:104D0000FF700090CE4840880690CD4800880590FE
:104D1000024600210846069BFBF722FAC5480278A6
:104D2000C3480178C048007803F05BF97FE0BE48D3
:104D30000078032826D11520C04908700120BB49FE
:104D400008700020BA4908700120BA490870002094
:104D5000B54908704FF6FF700090B948408806903A
:104D6000B74800880590024600210846069BFBF7DD
:104D7000F7F9B0480278AE480178AB48007803F004
:104D800003FC54E0A8480078042826D11720AB493A
:104D900008700120A54908700020A549087001206D
:104DA000A44908700020A04908704FF6FF700090D9
:104DB000A34840880690A24800880590024600213A
:104DC0000846069BFBF7CCF99A4802789848017888
:104DD0009548007803F055FE29E0934800780528AF
:104DE00025D11820954908700120904908700020AD
:104DF0008F49087001208F49087000208A49087087
:104E00004FF6FF7000908E48408806908C480088CE
:104E10000590024600210846069BFBF7A1F985484C
:104E20000278834801788048007803F098FE642077
:104E300005F0FAFD11E48148007812287BD17B4807
:104E40000078E8B37C480078012803D07A480078DD
:104E5000022802D1FDF79FFB0AE477480078032877
:104E6000E8D17448007898B100207049087001209A
:104E70006D49087000206E4908706E490870084638
:104E800002786B4801786848007802F0D3FF26E08A
:104E900011206A49087000206449087001206249A5
:104EA0000870002062490870624908704FF6FF7070
:104EB000009063484088069061480088059000E0B3
:104EC00011E0024600210846069BFBF749F95948C4
:104ED0000278574801785448007802F0F8FE6420C0
:104EE00005F0A2FD04E450480078012803D04E48A4
:104EF0000078022856D15048007802280BD14A4841
:104F00000078012896D102204749087008460078A9
:104F100002F010FF2EE448480078012823D14248CF
:104F20000078022808D101203F490870084600781F
:104F300002F000FF1EE463E03B48007801288BD1BB
:104F40003A49087000203849087039490870012032
:104F500038490870084602783548017832480078A8
:104F600002F068FF06E4344800780328BAD12E48DE
:104F70000078012803D100203249087006E02A4851
:104F80000078022802D101202E490870032026490A
:104F9000087028480278264801782348007802F0F3
:104FA00049FF10E42048007803289BD1224800786C
:104FB000032897D111202149087000201B4908704F
:104FC0000120194908700020194908701949087012
:104FD0004FF6FF7000901A484088069018480088E5
:104FE0000590024600210846069BFBF7B9F81148D8
:104FF00002780F4801780C48007802F068FE1FE440
:105000000E480078132877D108480078B8B30A48CA
:105010000078012803D008480078022814D1FDF751
:10502000BAFA0DE4A30100209B0100209C0100209E
:10503000990100209A010020F40000208C0100203A
:1050400048030020C7010020FD480078032889D1CB
:10505000FC480078A0B10020FB4908700120FB4902
:1050600008700020FA490870F6490870084602786E
:10507000F7480178F548007802F025FF25E028E0A0
:105080001120F44908700020EF4908700220EF4910
:1050900008700020EE490870EA4908704FF6FF706A
:1050A0000090ED4840880690EB4800880590024645
:1050B00000210846069BFBF753F8E2480278E448D3
:1050C0000178E248007802F002FE642005F0ACFCB2
:1050D0003FE4DE480078012853D1D94800780228FF
:1050E00003D0D7480078012812D1DC48007820B1DD
:1050F0000020DA49087003E071E00120D749087008
:10510000D0480278D2480178D048007802F0DBFE1F
:10511000CB480078032884D1D048007858B10220C9
:10512000CA490870C7480278C9480178C74800785A
:1051300002F0C9FE0DE41120C64908700020C249E2
:1051400008700220C14908700020C1490870BD499B
:1051500008704FF6FF700090BF4840880690BE4828
:1051600000880590024600210846069BFAF7F8FFE2
:10517000B4480278B6480178B448007802F0A7FD38
:105180000FE4B24800780228A2D1AD480078032885
:105190009ED11420AF4908700120AB49087000204F
:1051A000AA490870AA4908700120A64908704FF65C
:1051B000FF700090A84840880690A7480088059096
:1051C000024600210846069BFAF7CAFF9D4802786E
:1051D0009F4801789D48007803F04AF804E29D4812
:1051E0000078142877D198480078E8B3944800787C
:1051F000012803D092480078022802D1FDF7CBF9AC
:10520000F2E18F480078032894D18E48007878B175
:1052100000208D49087001208C49087000208C49BD
:105220000870884908708948007802F0AAFF26E0D3
:1052300013208849087000208349087002208349A0
:1052400008700020824908707E4908704FF6FF7090
:1052500000908148408806907F480088059002466B
:1052600000210846069B00E00DE0FAF779FF75483B
:105270000278774801787548007802F0B2FE642021
:1052800005F0D2FBB0E171480078012830D16C48BC
:10529000007802280DD17248007803289EDD7048FE
:1052A0000078401E6E4908706848007802F069FF77
:1052B0009AE16348007801280ED1694800781428E3
:1052C0008CDA67480078401C654908705F480078B0
:1052D00002F057FF88E16CE05948007803288FD12D
:1052E00002205A4908700846007802F04AFF7BE124
:1052F0005648007802282ED15148007802280DD156
:10530000584800780528BDDD56480078401E5549AC
:1053100008704E48007802F034FF65E14848007894
:1053200001280DD14F4800783C28ABDA4D48007871
:10533000401C4C4908704548007802F022FF53E1B8
:105340003F48007803289DD14049087008460078FE
:1053500002F017FF48E13D480078032892D1384811
:10536000007803288ED111203A4908700020364970
:10537000087002203549087000203549087031490D
:1053800008704FF6FF70009033484088069032480E
:1053900000880590024600210846069BFAF7E0FEC9
:1053A000284802782A4801782848007802F08FFCC3
:1053B0001AE12848007815287ED123480078E8B300
:1053C0001F480078012803D01D480078022802D128
:1053D000FDF7E1F808E11A480078032887D1194859
:1053E0000078A8B1002018490870012017490870FA
:1053F00000201749087013490870084601781448BE
:105400000078FDF788F81148007802F07EFF3BE055
:1054100011201049087000200B49087003200B4927
:10542000087000200A490870064908704FF6FF709E
:105430000090094840880690074815E028E00000E1
:10544000F40000209A0100209C0100209B01002014
:10545000990100208C01002048030020C301002096
:10546000C4010020C50100200088059002460021EB
:105470000846069BFAF774FEFE480278FE4801785B
:10548000FE48007802F0ADFD642005F0CDFACBE3D4
:10549000FA480078012831D1F948007802280FD164
:1054A000F84800881A2895DDF6480088401EF5491E
:1054B0000880F248007800E035E102F026FFB3E30F
:1054C000EF48007801280DD1EE4800886328DEDA25
:1054D000EC480088401CEB490880E848007802F05E
:1054E00014FFA1E3E64800780328D0D10220E34965
:1054F00008700846007802F008FF95E3DF4800785E
:1055000002282ED1DE48007802280DD1DD488078AF
:105510000128BCDDDB488078401EDA498870D74816
:10552000007802F0F2FE7FE3D548007801280DD123
:10553000D44880780C28AADAD2488078401CD14917
:105540008870CE48007802F0E0FE6DE3CC48007829
:1055500003289CD1C94908700846007802F0D5FE9E
:1055600062E3C6480078032876D1C548007802284F
:105570000DD1C448C078012889DDC2488078401E1A
:10558000C0498870BD48007802F0BFFE4CE3BC48BB
:105590000078012870D1BB488078012817D0B9481D
:1055A0008078032813D0B748807805280FD0B548F5
:1055B000807807280BD0B3488078082807D0B148F6
:1055C00080780A2803D0AF4880780C280DD1AD48E8
:1055D000C0781F2885DAAB48C078401CA949C8703C
:1055E000A648007802F091FE1EE3A64880780428C1
:1055F0000BD0A4488078062807D0A24880780928D4
:1056000003D0A04880780B280DD19E48C0781E2872
:1056100089DA9C48C078401C9A49C870974800783D
:1056200002F073FE00E39748807802288DD19548F8
:105630000088C117069000EB917081100698A0EBCE
:10564000810050B98F48C0781D280FDA8D48C07886
:10565000401C8C49C87009E01AE08A48C0781C28B0
:1056600004DA8848C078401C8649C87083480078AE
:1056700002F04BFED8E2FFE781480078032885D18D
:1056800004207E4908700846007802F03EFECBE216
:105690007A4800780428A7D179480078012803D0F7
:1056A00077480078022814D1012074490870084610
:1056B000007802F02AFE0020102173A24FF6FF733B
:1056C000CDE90021029002466C215720FBF769FAD0
:1056D000AAE26B480078032886D116206D4908702D
:1056E00001206D4908700020644908706249087003
:1056F0000120604908704FF6FF70009067484088AD
:105700000690664800880590024600210846069BE0
:10571000FAF726FD5748027857480178574800782D
:1057200003F0A9F880E25B48007816287ED15A4839
:105730000078E8B352480078012803D05048007838
:10574000022802D1FCF727FF6EE24D4800780328BB
:1057500043D148480078A8B100204F490870012083
:1057600046490870002044490870424908700846BC
:10577000017841480078FCF7CEFE4048007802F0FE
:10578000B4FF27E015204349087001204249087002
:1057900000203A4908700120374908700020354937
:1057A00008704FF6FF7000903C484088069000E07B
:1057B00014E03A4800880590024600210846069BFE
:1057C000FAF7CEFC2B4802782B4801782B4800785A
:1057D00002F0DAFE642005F027F925E22748007878
:1057E000012830D12648007802280DD125480079BB
:1057F000002808DD23480079401E224908711F480F
:10580000007802F072FF0FE21D48007801280ED1E7
:105810001C480079172808DA1A480079401C1949F1
:1058200008711648007802F060FFFDE193E014482B
:105830000078032806D10220104908700846007835
:1058400002F053FFF0E10D480078022845D10C48E2
:105850000078022824D10B484079002808DD094847
:105860004079401E074948710448007802F03DFF26
:10587000DAE100009A010020990100209B0100203C
:10588000F4000020F600002053657420436C6F6321
:105890006B0000008C0100209C01002048030020C8
:1058A000E448007801280DD1E34840793C2808DA23
:1058B000E1484079401CE0494871E048007802F036
:1058C00014FFB1E1DB480078032805D1DB490870FB
:1058D0000846007802F009FFA6E1D84800780328BE
:1058E0000ED1D4480078012803D0D248007802288D
:1058F00007D10120D14908700846007802F0F5FE72
:1059000092E1CC480078032824D11120CC490870BA
:105910000020CC4908700320C84908700020CA49FB
:105920000870CA4908704FF6FF700090C848408858
:105930000690C74800880590024600210846069B4D
:10594000FAF70EFCC1480278BF480178BB480078DE
:1059500002F0BDF968E1BA48007817287ED1B9484D
:105960000078E8B3B3480078012803D0B148007844
:10597000022802D1FCF70FFE56E1AE48007803285A
:1059800043D1B2480078A8B10020AE490870012088
:10599000AA4908700020AC490870AC490870084654
:1059A0000178A9480078FCF7B6FDA448007803F018
:1059B00010F827E01120A24908700120A1490870C1
:1059C00000209E49087001209F49087000209F49CF
:1059D00008704FF6FF7000909D484088069000E0E8
:1059E00014E09B4800880590024600210846069B6B
:1059F000FAF7B6FB95480278934801788F4800780B
:105A000002F065F9642005F00FF80DE18B4800788D
:105A1000012830D18748007802280DD18D480078C0
:105A2000002808DD8B4800780A388A4908708348C6
:105A3000007802F0CEFFF7E07E48007801280ED112
:105A400084480078322808DA824800780A30814990
:105A500008707A48007802F0BCFFE5E048E075483D
:105A60000078032806D1022074490870084600789F
:105A700002F0AFFFD8E07148007802280ED16D48DF
:105A80000078012803D06B480078022807D1012054
:105A90006A4908700846007802F09BFFC4E0654838
:105AA0000078032823D11120654908700420634938
:105AB00008700020634908706349087063490870E2
:105AC0004FF6FF700090624840880690604800885A
:105AD0000590024600210846069BFAF741FB5B4809
