:020000040800F2
:10000000080A0020B5D600089513000897130008C9
:100010009B1300089F130008A313000800000000B2
:10002000000000000000000000000000A71300080E
:10003000A913000800000000AB130008AD1300086E
:10004000CFD60008CFD60008CFD60008CFD60008FC
:10005000CFD60008CFD60008CFD60008CFD60008EC
:10006000CFD60008CFD60008CFD600088DC2000832
:10007000CFD60008CFD60008CFD60008CFD60008CC
:10008000CFD60008CFD60008CFD60008CFD60008BC
:10009000CFD60008CFD60008CFD60008CFD60008AC
:1000A000CFD60008CFD60008CFD60008CFD600089C
:1000B000CFD60008CFD60008CFD60008CFD600088C
:1000C000CFD60008CFD60008CFD60008CFD600087C
:1000D000CFD600082DB90008CFD60008CFD600082B
:1000E000CFD60008CFD60008CFD60008CFD600085C
:1000F000CFD60008CFD60008CFD60008CFD600084C
:10010000CFD60008CFD60008CFD60008CFD600083B
:10011000CFD60008CFD60008CFD60008CFD600082B
:10012000CFD60008CFD60008CFD60008CFD600081B
:10013000DFF810D00FF058FC00480047A11100086C
:10014000AFF30080080A002070B505460E4614463D
:10015000314628460CF00AFC20460CF0C6FB70BD68
:100160002DE9F05F04460D4616461F46301B401C25
:100170001FFA80FA781B401C1FFA80FB3B46324670
:10018000294620460CF0C8FB4FF000080FE04FF066
:10019000000906E00A980CF0A8FB09F101001FFA1B
:1001A00080F9D145F6DB08F101001FFA80F8D84547
:1001B000EDDBFE484088401E83B2FC480088401EAC
:1001C00082B2002108460CF0A7FBBDE8F09F2DE9A4
:1001D000FF4F85B081468A4600200490039007981F
:1001E000A0EB09050898A0EB0A06CDF80890CDF819
:1001F00004A0002D01DD012705E00DB9002702E074
:100200004FF0FF376D42002E02DD4FF0010806E08F
:1002100016B94FF0000802E04FF0FF387642B542C1
:1002200001DD2C4600E034464FF0000B21E0019A3E
:1002300091B2029A90B20CF0A3FB04982844049067
:100240000398304403900498A04205DD0498001BF5
:1002500004900298384402900398A04205DD039868
:10026000001B03900198404401900BF101001FFA1C
:1002700080FB601C8345DADD09B0BDE8F08F2DE915
:10028000F04104460D4616461F462B463246294687
:100290002046FFF79CFF3B46224629462046FFF7B3
:1002A00096FF3B46324639462046FFF790FF3B46D5
:1002B000324629463046FFF78AFFBDE8F081F8B59F
:1002C00004460D4616461F46B94800883B4632464E
:1002D000294600902046FFF743FFF8BD2DE9F04185
:1002E00004460D4616461F46DDF81880EA1991B2FD
:1002F000A21990B24246FFF727FFEA1991B2A21B5A
:1003000090B24246FFF720FFEA1B91B2A21990B2C9
:100310004246FFF719FFEA1B91B2A21B90B2424678
:10032000FFF712FFAA1991B2E21990B24246FFF705
:100330000BFFAA1991B2E21B90B24246FFF704FFED
:10034000AA1B91B2E21990B24246FFF7FDFEAA1B2A
:1003500091B2E21B90B24246FFF7F6FEBDE8F08193
:100360002DE9FF4F81B0824617469846DDF838B038
:10037000002445464FEA4800C0F10306BBF1000FD8
:100380001FD01BE0A14608E04B462246009750468E
:100390000299FFF7A3FF09F10109A945F4DD002E39
:1003A00004DA042000FB0460861D06E0601B0421C3
:1003B00001FB006000F10A066D1E641CAC42E1DD29
:1003C00018E015E02B462246009750460299FFF7A9
:1003D00085FF002E04DA042000FB0460861D06E081
:1003E000601B042101FB006000F10A066D1E641C05
:1003F000AC42E7DD05B0BDE8F08F2DE9F0470446DB
:100400000D4616461F46DDE908893B463246294619
:100410002046FFF7DCFE4B46424639463046FFF7A2
:10042000D6FE2B46224649464046FFF7D0FEBDE8A1
:10043000F08702880B8803800A8070472DE9FF4F00
:1004400085B000260027BDF81800BDF820108842AE
:1004500007DD08A906A8FFF7ECFF07A905A8FFF725
:10046000E8FFBDF82000BDF84C10884207DD08A960
:1004700013A8FFF7DEFF07A912A8FFF7DAFFBDF800
:100480001800BDF82010884207DD08A906A8FFF76C
:10049000D0FF07A905A8FFF7CCFFBDF81800BDF8ED
:1004A0004C10884238D1BDF8140003900490BDF878
:1004B0001C00BDF81010884203DABDF81C0004903F
:1004C00008E0BDF81C00BDF80C10884202DDBDF844
:1004D0001C000390BDF84800BDF81010884203DAF4
:1004E000BDF84800049008E0BDF84800BDF80C10C5
:1004F000884202DDBDF8480003902D480088009036
:10050000BDF81830BDF80C201946BDF81000FFF7F3
:1005100027FE09B0BDE8F08FBDF81C00BDF814102F
:10052000A0EB010BBDF82000BDF81810401A029096
:10053000BDF84800BDF81410451ABDF84C00BDF8D0
:100540001810A0EB0109BDF84800BDF81C10A0EB85
:10055000010ABDF84C00BDF82010401A0190BDF80A
:100560002000BDF84C10884202D1BDF8208004E084
:10057000BDF82000401E1FFA80F8BDF818402CE09E
:10058000029896FBF0F0BDF81410084480B2049075
:1005900097FBF9F0BDF81410084480B203905E4454
:1005A0002F44BDF81000BDF80C1003E0F405002046
:1005B0009C040020884203DD03A904A8FFF739FF4B
:1005C000FE48008823460090BDF80C202146BDF867
:1005D0001000FFF7C5FD601C84B24445D0DDBDF8B6
:1005E0002000201A00FB0AF6BDF81800201A00FBB4
:1005F00005F727E0019896FBF0F0BDF81C100844C1
:1006000080B2049097FBF9F0BDF81410084480B252
:10061000039056442F44BDF81000BDF80C108842DA
:1006200003DD03A904A8FFF704FFE448008823467C
:100630000090BDF80C202146BDF81000FFF790FD9A
:10064000601C84B2BDF84C008442D3DD00BF60E77B
:100650002DE9FF4F83B081468A469346DDE9106459
:10066000D64800880290A6F12000C6B204EBD470F0
:1006700009EB6000401E82B20AEB0400401E83B208
:100680005146484601940CF047F9129850BB00259A
:1006900025E00C2C07D106EB4600C94901EB800090
:1006A00010F8058004E0C74800EB061010F805803C
:1006B00000270DE008F0010018B158460CF015F9BC
:1006C00002E006980CF011F94FEA6808781CC7B2EE
:1006D00004EBD471B7EB610FECDB681CC5B2A5422B
:1006E000D7DB2DE0002529E00C2C07D106EB4600D6
:1006F000B34901EB800010F8058004E0B14800EB3D
:10070000061010F80580002711E0AC48A0F800B0F2
:1007100008F0010038B10AEB050291B209EB0702BB
:1007200090B20CF02DF94FEA6808781CC7B204EBC0
:10073000D471B7EB610FE8DB681CC5B2A542D3DB0F
:100740009E4902980880A0484088401E83B29E4877
:100750000088401E82B2002108460CF0DDF807B088
:10076000BDE8F08F2DE9FE4306460F4615461C46B0
:10077000DDF828801DE094480088401EB04204DB6C
:1007800091484088401EB84201DABDE8FE832078D7
:100790008DE821018D480388884802883946304613
:1007A000FFF756FF284605EBD07106EB61018EB2CC
:1007B000641C20787E2802DC20782028DBDA00BF49
:1007C000E3E710B50246012000E050430B1EA1F103
:1007D0000104E1B2F9D110BD2DE9FF4F83B0074606
:1007E00091461E46109C4FF0000A002543E0701B06
:1007F000401EC1B20A20FFF7E4FFB9FBF0F00A2166
:10080000B0FBF1F201FB1208BAF1000F1BD1701E10
:10081000A84218DDB8F1000F13D100202021A34613
:10082000CDE90014029004EBDB71491001FB057166
:1008300088B266490B8861490A880499FFF708FF66
:1008400017E04FF0010A002108F13000C0B2A346C2
:10085000CDE90141009004EBDB71491001FB05710A
:1008600088B25A490B8855490A880499FFF7F0FE67
:1008700000BF681CC5B2B542B9DB07B0BDE8F08F58
:100880002DE9FC5F0546884691469A46DDF830B072
:1008900000953E20019000245FE004EB04104C49D9
:1008A00011F810009BF80010884253D104EB04109B
:1008B000474901EB400040789BF80110884249D13C
:1008C00008F10F0083B205F10F0082B241462846BD
:1008D0000CF022F800263BE0002734E00D9890B998
:1008E00004EB04103A4901EB4000801C805D80213C
:1008F0003941084018B148460BF0F7FF21E0504657
:100900000BF0F3FF1DE02D48A0F8009004EB04105D
:100910002F4901EB4000801C805D80213941084057
:1009200018B1414628460CF02BF8681C85B2009897
:10093000281A102805D1009D08F101001FFA80F83F
:1009400003E0781CC7B2082FC8DB00BF701CC6B21A
:10095000202EC1DB00BF601C84B2019884429CDB66
:1009600019484088401E83B217480088401E82B252
:10097000002108460BF0D0FFBDE8FC9F2DE9FC5F8D
:100980000546884691469A46DDF830B00095072026
:100990000190002476E004EB840000EB44100D4944
:1009A00011F810009BF80010884268D104EB840015
:1009B00000EB4410074901EB40000DE09C040020CF
:1009C00080030108F4070108F40500209E040020BC
:1009D000E40D01082016010840789BF801108842B8
:1009E0004DD108F1170083B205F1170082B24146DC
:1009F00028460BF091FF00263FE0002738E00D98D5
:100A0000A0B904EB840000EB4410F84901EB40006E
:100A1000801C805D80213941084018B148460BF0A8
:100A200064FF23E050460BF060FF1FE0F048A0F8A1
:100A3000009004EB840000EB4410EC4901EB400013
:100A4000801C805D80213941084018B1414628460C
:100A50000BF096FF681C85B20098281A182805D15B
:100A6000009D08F101001FFA80F803E0781CC7B26E
:100A7000082FC4DB00BF701CC6B2482EBDDB00BF10
:100A8000601C84B20198844285DBDA484088401EAD
:100A900083B2D8480088401E82B2002108460BF07D
:100AA0003BFFBDE8FC9F2DE9FC5F0546884691466B
:100AB0009A46DDF830B000950420019000245FE0F4
:100AC00004EB8410CC4911F810009BF80010884208
:100AD00053D104EB8410C84901EB400040789BF8E7
:100AE0000110884249D108F11F0083B205F11F00AF
:100AF00082B2414628460BF00FFF00263BE000275C
:100B000034E00D9890B904EB8410BB4901EB400030
:100B1000801C805D80213941084018B148460BF0A7
:100B2000E4FE21E050460BF0E0FE1DE0B048A0F8E6
:100B3000009004EB8410B04901EB4000801C805D04
:100B400080213941084018B1414628460BF018FF72
:100B5000681C85B20098281A202805D1009D08F14C
:100B600001001FFA80F803E0781CC7B2082FC8DB29
:100B700000BF701CC6B2802EC1DB00BF601C84B2F7
:100B8000019884429CDB9B484088401E83B2994870
:100B90000088401E82B2002108460BF0BDFEBDE871
:100BA000FC9F2DE9FF4F83B0064688469146DDE95C
:100BB0001147109DB2464FF0000B71E0BBF1000FE2
:100BC00040D104EBD4718B4A1288A2EB6101B1428F
:100BD00004DB88494988091B414502DA07B0BDE8B2
:100BE000F08F2878802802DD4FF0010B58E028783C
:100BF0000D2806D108EB04001FFA80F856466D1C3C
:100C00001EE0102C0DDD102128788DE883004A4667
:100C100041463046069BFFF71BFD06F1080086B2F1
:100C20000EE028788DE891004A4641463046069B02
:100C3000FFF70EFD204604EBD07106EB61018EB28A
:100C40006D1C2DE06B480088001BB04204DB694836
:100C50004088001B404500DAC0E74FF0000B202C15
:100C600008D1CDE900574A4641463046069BFFF77A
:100C70001AFF12E0182C08D1CDE900574A46414628
:100C80003046069BFFF77AFE07E0CDE900574A465B
:100C900041463046069BFFF7F3FDAD1C301986B286
:100CA000287800288AD100BF98E72DE9FE4F0E462C
:100CB00017469846DDE90D9A0C9C20460EF056FA30
:100CC00085B24C490988A1EBC50000EBD071C1F396
:100CD0004F0B43463A46314658468DE81006FFF71B
:100CE00060FFBDE8FE8F2DE9F04706460F4615462A
:100CF00007F1270083B206F1270082B23946304659
:100D00000BF00AFE00240AE015F8149005EB4400ED
:100D100090F8018049EA08200BF0E7FD641CB4F567
:100D2000C86FF1DB33484088401E83B231480088E9
:100D3000401E82B2002108460BF0EEFDBDE8F087B0
:100D40002DE9FF4F87B007468846149D159890B946
:100D5000202004904020039004200290302D07DBD7
:100D6000392D05DCA5F13000244951F820B04CE0C4
:100D70000BB0BDE8F08F1598012810D11020049019
:100D80002020039002200290302D07DB392D05DC56
:100D9000A5F130001A4951F820B036E0E8E70C2000
:100DA000049018200390022002902E2D14D109984F
:100DB00008F1160C1FFA8CF307F1090C1FFA8CF2DC
:100DC00008F1100C1FFA8CF107F1030C00901FFAC8
:100DD0008CF0FFF7C5F9CBE7302D15DB392D13DC8F
:100DE000A5F13000074951F820B00EE020160108A7
:100DF0009C040020F40500202618010800000020B3
:100E00002800002050000020B2E74FF00109CA4638
:100E100000265AE0002453E02046E11704EB51710C
:100E2000CA10029906FB012189B20691E11704EB71
:100E30005171C910A4EBC10280211141059106999D
:100E40001BF8010005990840E0B1099806F1010C72
:100E50000CFB0A8CACF1010C1FFA8CF304F1010CB1
:100E60000CFB097CACF1010C1FFA8CF206FB0A8C1E
:100E70001FFA8CF104FB097C00901FFA8CF0FFF73D
:100E80006FF91BE00A9806F1010C0CFB0A8CACF11F
:100E9000010C1FFA8CF304F1010C0CFB097CACF182
:100EA000010C1FFA8CF206FB0A8C1FFA8CF104FB72
:100EB000097C00901FFA8CF0FFF752F9601C84B295
:100EC00004988442A8DB701C86B203988642A1DB9A
:100ED00000BF4DE72DE9F84F06460F46904699466C
:100EE000002548E0002442E02046E11704EB517160
:100EF000C91001EB85011FFA81FAE11704EB51716A
:100F0000C910A4EBC102802141FA02FB0A9810F833
:100F10000A0000EA0B00A0B107EB050C1FFA8CF3E6
:100F200006EB040C1FFA8CF207EB050C1FFA8CF190
:100F300006EB040C1FFA8CF0CDF80080FFF710F9D7
:100F400013E007EB050C1FFA8CF306EB040C1FFAF9
:100F50008CF207EB050C1FFA8CF106EB040C1FFA60
:100F60008CF0CDF80090FFF7FBF8601C84B2202CC9
:100F7000BADB681C85B2202DB4DBBDE8F88F2DE903
:100F8000F84F06460F4690469946002549E0002452
:100F900043E02046E11704EB517105EB450202EBFB
:100FA000E1011FFA81FAE11704EB5171C910A4EBBA
:100FB000C102802141FA02FB0A9810F80A0000EAF7
:100FC0000B00A0B107EB050C1FFA8CF306EB040C29
:100FD0001FFA8CF207EB050C1FFA8CF106EB040CE0
:100FE0001FFA8CF0CDF80080FFF7BAF813E007EB9A
:100FF000050C1FFA8CF306EB040C1FFA8CF207EBBE
:10100000050C1FFA8CF106EB040C1FFA8CF0CDF8DE
:101010000090FFF7A5F8601C84B2182CB9DB681C9F
:1010200085B2182DB3DBBDE8F88F2DE9F84F0646E1
:101030000F4690469946002548E0002442E02046AD
:10104000E11704EB5171C91001EB45011FFA81FA58
:10105000E11704EB5171C910A4EBC102802141FAE0
:1010600002FB0A9810F80A0000EA0B00A0B107EB97
:10107000050C1FFA8CF306EB040C1FFA8CF207EB3D
:10108000050C1FFA8CF106EB040C1FFA8CF0CDF85E
:101090000080FFF765F813E007EB050C1FFA8CF3EF
:1010A00006EB040C1FFA8CF207EB050C1FFA8CF10F
:1010B00006EB040C1FFA8CF0CDF80090FFF750F807
:1010C000601C84B2102CBADB681C85B2102DB4DB16
:1010D000BDE8F88F2DE9F84F06460F469046994631
:1010E000DDF828B000253FE0002439E02046E11774
:1010F00004EB5171C910A4EBC102802141FA02FA3C
:101100001BF8050000EA0A00A0B107EB050C1FFA66
:101110008CF306EB040C1FFA8CF207EB050C1FFA9C
:101120008CF106EB040C1FFA8CF0CDF80080FFF771
:1011300017F813E007EB050C1FFA8CF306EB040C11
:101140001FFA8CF207EB050C1FFA8CF106EB040C6E
:101150001FFA8CF0CDF80090FFF702F8601C84B203
:10116000082CC3DB681C85B2102DBDDBBDE8F88FF1
:1011700010B54FF4FA71404800680AF067F900B9F9
:1011800010BD3E4800683C4908603D48006880F456
:1011900080703B4908603BA00EF074FC00BFEFE795
:1011A0000EB500F0C8F906F0F8F906F0A8F90AF053
:1011B00079FC00200AF0BBFC0AF0FAFA0BF07AFC8A
:1011C00001200BF03BFC4FF6FF7000903248438843
:1011D000028800210846FEF7C3FF30480EF052FC9B
:1011E00006F06DF90CF031FA00280ED02CA00EF0AC
:1011F00049FC06F000FA0CF0DDF910B134A00EF055
:1012000041FC3AA00EF03EFC02E042A00EF03AFC97
:1012100001F09DFA06F050FA4848007810B148A055
:101220000EF030FC4B484C49097850F821004B49EE
:1012300049794A4A1279CDE9002102904748C3789A
:101240008278018846A00EF01DFC0AF02AFD4EF6B9
:10125000602104200AF0ADFC10B949A00EF012FC88
:101260000BF0CBFA07E00AF002F901F094FE0AF065
:1012700089FF0AF00DFCF6E7FC000020780300204F
:101280000C0C01405B496E665D2054696D6520550C
:1012900070646174650D0A00F40500205CFF0108AC
:1012A0005B496E665D20466C617368206C6F61649B
:1012B000206661696C65642C207573696E672064B3
:1012C000656661756C742076616C7565730D0A00D6
:1012D0005B4572725D20466C617368207772697439
:1012E00065206661696C210D0A0000005B496E662D
:1012F0005D2044656661756C742076616C756573FC
:1013000020736176656420746F20466C6173680D8C
:101310000A0000005B496E665D20506172616D6578
:1013200074657273206C6F616465642066726F6DA2
:1013300020466C6173680D0A0000000078020020EE
:101340005B496E665D20525443205265736574217B
:101350000D0A0000D001002082030020F2000020CE
:101360005B496E665D2025642F25642F256420204F
:1013700025643A25642020573A25730D0A000000A1
:101380005B4572725D20416C61726D2046756C6CBC
:10139000210D0A00704700BFFEE700BFFEE700BF57
:1013A000FEE700BFFEE770477047704702480068DD
:1013B000401C014908607047780300200CB50020EC
:1013C000019000909348006840F480309149086093
:1013D00000BF9048006800F4003000900198401C65
:1013E0000190009818B90198B0F5A06FF1D1894823
:1013F000006800F4003010B10120009001E00020EE
:1014000000900098012844D18348006840F0100003
:10141000814908600846006820F00300086008461B
:10142000006840F0020008607A48406879494860E6
:101430000846406848600846406840F4806048605C
:101440000846406820F47C1048600846406840F434
:10145000E81048600846006840F08070086000BFEF
:101460006C48006800F000700028F9D069484068B6
:1014700020F00300674948600846406840F00200D9
:10148000486000BF6348406800F00C000828F9D1AC
:101490004CE06048006820F480305E4908605E4897
:1014A000006840F010005C4908600846006820F0C1
:1014B000030008600846006840F0020008605548D4
:1014C000406854494860084640684860084640689B
:1014D00040F4806048600846406820F47C10486012
:1014E0000846406840F4601048600846006840F0D4
:1014F0008070086000BF4748006800F00070002856
:10150000F9D04448406820F003004249486008464A
:10151000406840F00200486000BF3E48406800F06C
:101520000C000828F9D13D483D4908600CBD10B5B4
:10153000FFF744FF10BD10B53648006840F00100C9
:1015400034490860084640683649084031494860D7
:1015500008460068344908402E490860084600687B
:1015600020F4802008600846406820F4FE004860AF
:101570004FF41F008860FFF7DAFF4FF000602B493F
:10158000086010BD10B5002100200022214B5B68CF
:1015900003F00C0121B1042906D0082928D107E065
:1015A000234B1F4C236027E0214B1D4C236023E07D
:1015B000184B5B6803F47010164B5B6803F48032C1
:1015C000022303EB904022B91A4B4343144C23608F
:1015D0000DE0104B5B6803F4003323B1154B43431C
:1015E0000F4C236003E0124B43430D4C236003E098
:1015F0000F4B0B4C236000BF00BF064B5B68C3F36F
:1016000003130D4CE15C064B1B68CB40044C23607C
:1016100010BD000000100240002002400090D003E6
:10162000000100200000FFF8FFFFF6FE08ED00E0DB
:1016300000127A0000093D000401002010B50446A4
:10164000FE48844208D10121C0140CF0E9FB0021BE
:10165000E0140CF0E5FBC4E0B4F1804F08D10121A7
:1016600008460CF0EAFB002101200CF0E6FBB8E094
:10167000F348844208D1012102200CF0DEFB002156
:1016800002200CF0DAFBACE0EE48844208D10121E4
:1016900004200CF0D2FB002104200CF0CEFBA0E0D3
:1016A000E948844208D1012108200CF0C6FB002142
:1016B00008200CF0C2FB94E0E448844208D10121E8
:1016C00010200CF0BAFB002110200CF0B6FB88E0D3
:1016D000DF48844208D1012120200CF0AEFB00211C
:1016E00020200CF0AAFB7CE0DA48844208D10121DA
:1016F00040140CF095FB002160140CF091FB70E09D
:10170000D548844209D10121C8040CF089FB00218D
:101710004FF400200CF084FB63E0D048844209D1F0
:10172000012108050CF07CFB00214FF480100CF027
:1017300077FB56E0CA48844209D1012148050CF0E4
:101740006FFB00214FF400100CF06AFB49E0C54824
:10175000844208D1012140200CF06FFB0021402081
:101760000CF06BFB3DE0C048844208D10121802091
:101770000CF063FB002180200CF05FFB31E0BB48E4
:10178000844208D1012180150CF057FB0021A015DF
:101790000CF053FB25E0B648844209D1012108042E
:1017A0000CF03EFB00214FF480300CF039FB18E0C8
:1017B000B048844209D1012148040CF031FB0021DA
:1017C0004FF400300CF02CFB0BE0AB48844208D106
:1017D000012188040CF024FB00214FF480200CF040
:1017E0001FFB10BD00220288944B98420ED0994BEB
:1017F00098420BD0B0F1804F08D0914B984205D061
:10180000904B984202D0904B984204D14FF68F7380
:101810001A404B881A438D4B984207D08C4B984204
:1018200004D04FF6FF431A40CB881A4302808B88BE
:1018300083850B880385814B98420BD0854B98425A
:1018400008D08B4B984205D08A4B984202D08A4BE5
:10185000984201D10B7A038601238382704770B5C9
:10186000002400220023058C4FF6FE7635400584C7
:10187000028C8388048B4FF68F752C40B51E2C404C
:101880000D882C43751E2A400D892A434D882A4312
:101890006A4DA8420BD06F4DA84208D0744DA842A3
:1018A00005D0744DA84202D0734DA84213D14FF613
:1018B000F7752A404D892A434FF6FB752A408D88DB
:1018C0002A434FF6FF652B404FF6FF552B408D897D
:1018D0002B43CD892B4383800483CD888586028466
:1018E00070BD70B5002400220023058C4FF6EF7602
:1018F00035400584028C8388048B48F6FF752C40A4
:101900004FF6FF452C400D884FF6FF7606EA052579
:101910002C434FF6DF752A400D8906EA05152A4348
:101920004D8806EA05152A43444DA84202D0494D88
:10193000A8421DD14FF67F752A404D894FF6FF769C
:1019400006EA05152A434FF6BF752A408D8806EA38
:1019500005152A434FF6FF352B404FF2FF752B40FC
:101960008D8906EA85052B43CD8906EA85052B433B
:1019700083800483CD880587028470BD70B5002400
:1019800000220023058C4FF6FF6635400584028C4B
:101990008388848B4FF68F752C404FF6FC752C4056
:1019A0000D882C434FF6FF552A400D894FF6FF76E0
:1019B00006EA05252A434D8806EA05252A431F4DD8
:1019C000A84202D0234DA8421DD14FF2FF752A40F4
:1019D0004D894FF6FF7606EA05252A434FF6FF3577
:1019E0002A408D8806EA05252A434EF6FF752B40CE
:1019F0004DF6FF752B408D8906EA05152B43CD89E1
:101A000006EA05152B4383808483CD88858702846D
:101A100070BD70B5002200230024058C4EF6FF76C1
:101A200035400584038C8488828B48F6FF752A40F4
:101A30004FF6FF452A400D8820E00000002C0140B1
:101A40000004004000080040000C0040001000406E
:101A50000014004000340140004C0140005001409F
:101A60000054014000180040001C004000200040CD
:101A70000040014000440140004801404FF6FF761D
:101A800006EA05252A434DF6FF752B400D8906EA27
:101A900005352B434D8806EA05352B43FA4DA84200
:101AA00002D0FA4DA84208D14BF6FF752C408D8923
:101AB0004FF6FF7606EA85152C4384808283CD8815
:101AC000A0F84050038470BD828B4FF2FF331A4060
:101AD0008283828B4FF6FF7303EA01231A438283CA
:101AE0007047F0B50C461546002200210026078CF1
:101AF0004EF6FF7C07EA0C070784828B018C4FF6B9
:101B0000FF7707EA043640F6FF473A404FF6FF7783
:101B100007EA05273A434FF6FF7707EA03373A43C8
:101B2000D94FB8420ED0D94FB8420BD0B0F1804F48
:101B300008D0D74FB84205D0D64FB84202D0D64FC2
:101B4000B84206D14DF6FF77394046F48057394305
:101B500005E047F6FF57394044F480573943828304
:101B60000184F0BD828B4FF6F3731A408283828B1F
:101B70000A4382837047F0B50C46154600220021C7
:101B80000026078C4FF6FF6C07EA0C070784828B50
:101B9000018C4FF6FF7707EA04264FF60C773A40A0
:101BA0004FF6FF7707EA03172F433A43B64FB84281
:101BB0000ED0B64FB8420BD0B0F1804F08D0B44F22
:101BC000B84205D0B34FB84202D0B34FB84206D1A5
:101BD0004FF6FF57394046F48077394305E04FF21E
:101BE000FF57394044F48077394382830184F0BD44
:101BF000028B4FF2FF331A400283028B4FF6FF73C2
:101C000003EA01231A4302837047F0B50C461546D8
:101C1000002200210026078C4FF6EF7C07EA0C0714
:101C20000784028B018C4FF6FF7707EA041640F613
:101C3000FF473A404FF6FF7707EA03373A434FF63C
:101C4000FF7707EA05273A438F4FB8420ED08F4FF0
:101C5000B8420BD0B0F1804F08D08D4FB84205D0BC
:101C60008C4FB84202D08C4FB84206D14FF6DF7786
:101C7000394046F01007394305E04FF65F773940A9
:101C800044F01007394302830184F0BD028B4FF604
:101C9000F3731A400283028B0A4302837047F0B544
:101CA0000C46154600220021068C4FF6FE773E407A
:101CB0000684028B018C4FF60C7632407E1C06EABD
:101CC00003162E433243704EB0420ED06F4EB042D8
:101CD0000BD0B0F1804F08D06D4EB04205D06D4EA4
:101CE000B04202D06C4EB04206D14FF6FD76314084
:101CF00044F00106314305E04FF6F576314044F0FB
:101D00000106314302830184F0BD70B505460C46DF
:101D10005D4885420ED05D4885420BD0B5F1804FBD
:101D200008D05B48854205D05A48854202D05A48BF
:101D3000854200D100E000BF208850B92389A288E5
:101D400061882846FFF7ABFFE1882846FFF79EFF32
:101D500025E0208804280AD12389A28861882846A2
:101D6000FFF753FFE1882846FFF742FF17E020887E
:101D700008280AD12389A28861882846FFF7FBFE3C
:101D8000E1882846FFF7EEFE09E02389A2886188F2
:101D90002846FFF7A6FEE1882846FFF795FE70BDAE
:101DA0002DE9F04105460C4600260127608808B958
:101DB000022600E00026A088012801D1022700E0C9
:101DC00001272088A0B92389A28861882846FFF7C7
:101DD00066FFE1882846FFF759FF23893A463146D6
:101DE0002846FFF712FFE1882846FFF701FF13E0BE
:101DF0002389A28861882846FFF707FFE1882846E3
:101E0000FFF7F6FE23893A4631462846FFF747FF9B
:101E1000E1882846FFF73AFFBDE8F0810A884B8841
:101E20001A438B881A43CB881A430B891A434B8970
:101E30001A438B891A43A0F8442070474FF6FF716C
:101E4000818000210180C1804180017270470021A2
:101E5000018041808180C180018141818181C18176
:101E60007047002101804180012181800021C180D3
:101E7000018170470021018041808180C180018102
:101E80004181818170470000002C014000340140F5
:101E90000004004000080040000C004021B102880E
:101EA00042F00102028004E002884FF6FE731A40FD
:101EB0000280704731B1B0F8442042F40042A0F8EB
:101EC000442005E0B0F84420C2F30E02A0F84420FC
:101ED00070471AB183890B43838102E083898B4366
:101EE000838170478182704741EA0203A0F848303D
:101EF00070471AB183890B43838102E083898B4346
:101F00008381704701894FF6F87211400181704753
:101F10000A46002101894FF68F7319401143018150
:101F2000704730B504460D4629462046FFF7F0FFBE
:101F3000208940F00700208130BD2DE9F0410446A2
:101F40000D4616461F46602D06D13B4601223146FE
:101F50002046FFF75AFE05E03B4601223146204667
:101F6000FFF79DFE29462046FFF7D2FF208940F06B
:101F700007002081BDE8F08130B50C4600210189C1
:101F8000C9B24FF6FF7505EA0325154325432943DA
:101F9000018130BD2DE9F04105460E4617469846B1
:101FA000002443463A4631462846FFF7E5FF2C8990
:101FB0004FF6F870044044F007044FF68F70044069
:101FC00044F070042C81BDE8F081F0B504460D4664
:101FD00016461F463B46324629462046FFF7CCFFB1
:101FE000208940F480402081F0BD018582827047C5
:101FF0000A46002101884FF68F7319401143018072
:102000007047F0B50C4615461E46002100220023FD
:102010000189028B038C4FF6F877394021434FF644
:10202000FC473A4040F201173A434FF6DD773B4018
:102030004FF6FF7707EA06172F433B4301810283E0
:102040000384F0BD0A460021018B4FF68F731940BF
:102050001143018370470A460021018B48F6FF7344
:1020600019404FF6FF7303EA0223194301837047B7
:102070000A460021818B4FF68F73194011438183EB
:1020800070470A460021818B48F6FF7319404FF6CE
:10209000FF7303EA022319438183704721B1028849
:1020A00042F08002028004E002884FF67F731A40FB
:1020B0000280704721B1828842F00402828004E0ED
:1020C00082884FF6FB731A408280704721B1828864
:1020D00042F00802828004E082884FF6F7731A40CB
:1020E0008280704721B1828842F00102828004E040
:1020F00082884FF6FE731A40828070470A4600219C
:10210000018B4FF6F77319401143018370470A465C
:102110000021018B4FF2FF7319404FF6FF7303EA62
:1021200002231943018370470A460021818B4FF631
:10213000F77319401143818370470A460021818B50
:102140004FF2FF7319404FF6FF7303EA022319435E
:10215000818370470A460021018B4FF6FB731940BB
:102160001143018370470A460021018B4FF6FF336C
:1021700019404FF6FF7303EA0223194301837047A6
:102180000A460021818B4FF6FB731940114381836E
:1021900070470A460021818B4FF6FF3319404FF6F6
:1021A000FF7303EA02231943818370470A46002123
:1021B000018B4FF67F7319401143018370470A4624
:1021C0000021018BC1F30E014FF6FF7303EA0223D6
:1021D0001943018370470A460021818B4FF67F73B4
:1021E00019401143818370470A460021818BC1F356
:1021F0000E014FF6FF7303EA0223194381837047F0
:102200000A460021018C4FF6FD73194011430184E9
:1022100070470A460021018C4FF6F77319401143AD
:10222000018470470A460021018C4FF6DF73194084
:102230004FF6FF7303EA02131943018470470A46FD
:102240000021018C4FF67F7319404FF6FF7303EAAC
:1022500002131943018470470A460021018C4FF68E
:10226000FF5319404FF6FF7303EA02231943018419
:1022700070470A460021018C4FF2FF7319404FF658
:10228000FF7303EA02231943018470470A460021C1
:10229000018C4DF6FF7319404FF6FF7303EA0233CA
:1022A00019430184704730B5002301248C40A3B248
:1022B000048C9C430484048C02FA01F5ADB22C43D7
:1022C000048430BD30B5002304248C40A3B2048CB8
:1022D0009C430484048C02FA01F5ADB22C430484BF
:1022E00030BD70B503460020002418461830012583
:1022F0008D40ACB21D8CA5431D8409B1082909D1BC
:1023000000EB6100056825F0700505600568154360
:1023100005600EE00D1FC5F34E052844056825F441
:10232000E045056005684FF6FF7606EA022635436C
:10233000056070BD21B1028842F00202028004E013
:1023400002884FF6FD731A400280704721B102885F
:1023500042F00402028004E002884FF6FB731A4048
:102360000280704721B1828842F08002828004E0BE
:1023700082884FF67F731A408280704702884FF63A
:10238000F7731A40028002880A43028070478288ED
:102390004FF68F731A40828082880A43828070478A
:1023A00002894FF6F8731A40028102890A430281BA
:1023B000704702894FF67F731A40028102890A43EF
:1023C000028170478184704781857047818670479C
:1023D0000187704781877047A0F8401070470288D6
:1023E0004FF6FF431A40028002880A43028070477A
:1023F0000146888E70470146088F70470146888FD6
:1024000070470146B1F8400070470146888C70471C
:102410000146088D704702460020138A0B400BB11D
:10242000012000E000207047CA430282704730B5A7
:102430000246002000230024158A05EA010395893D
:1024400005EA010413B10CB1012000E0002030BD09
:10245000CA430282704700002DE9FF5F80460C46A8
:102460009246002003900290002140460DF0ACF807
:1024700008D20120029088F0004B58460DF02CF84D
:10248000054603E040460DF027F80546002140468A
:102490000DF0A4F801D8404601E088F00040FE4964
:1024A00001900CF0F4FE83460DF016F80A2190FB23
:1024B000F1F201FB1206002E00DA0026092E00DDE3
:1024C00009260A2D0DDB0A2095FBF0F000F0FF092C
:1024D0000A2095FBF0F100FB1150C7B201200390D8
:1024E00004E04FF00009EFB200200390029888B199
:1024F000039838B1502315224C2105200094FDF794
:102500002FFE10E0502333224C2123200094FDF7AE
:1025100027FE08E04FF6FF7054233322502100902D
:102520000520FDF71DFE039860B34FF6FF706A2388
:1025300037222A2100901420FDF712FE4FF6FF707B
:102540006A235F222A2100903820FDF709FE00212E
:1025500009F13000C0B24FF6FF732246CDE9000109
:102560002A211620FEF7ECFB002107F13000C0B253
:102570004FF6FF732246CDE900012A213B20FEF7EA
:10258000DFFB0CE0002107F13000C0B24FF6FF7313
:102590002246CDE900012A213B20FEF7D1FBBAF10A
:1025A000000F28D0622364225E2160200094FDF792
:1025B000D7FD612365225F2108460094FDF7D0FD19
:1025C00063236422194660200094FDF7C9FD5D2352
:1025D0006422194660200094FDF7C2FD012106F136
:1025E0003000C0B24FF6FF732246CDE900014A2108
:1025F0006D20FEF7A5FBBDE8FF9F30B589B0002434
:102600001822A64903A80CF077FDA54800780128F8
:102610000BD1A4484FF6FF734FF478420521009088
:102620008820FEF7ACFC601CC4B29F4890F82700DD
:10263000012810D104EB44008821A1EBC000C5B2F1
:102640009A484FF6FF730022052100902846FEF7B6
:1026500096FC601CC4B2944890F8230001280ED167
:1026600004EB44008821A1EBC000C5B290484FF6AE
:10267000FF730022052100902846FEF780FC8D485C
:102680004FF6FF7300222D2100906420FEF777FCA7
:10269000854890F82E0048B987484FF6FF7300220E
:1026A000252100908820FEF76AFC0CE003A88349EE
:1026B000097850F821004FF6FF7300222521009081
:1026C0008820FEF75CFC7E48007850B17D484FF6CC
:1026D000FF734FF47842482100908820FEF74FFCAA
:1026E00008E078484FF6FF730022482100908820C8
:1026F000FEF745FC74480078052803D0724800783E
:10270000062812D10021102270486F4B1B7850F818
:1027100023004FF6FF73CDE9012100904FF478427A
:102720006A218820FEF73DFA0FE000221021674859
:10273000654B1B7850F823004FF6FF738DE80700B8
:102740001F226A218820FEF72CFA09B030BD1CB583
:1027500000205F4908804FF6FF705E4908805E48A0
:1027600000790A2190FBF1F03030C4B201204FF61D
:10277000FF7300220521CDE900400846FEF7E0FA8C
:10278000554800790A2190FBF1F201FB120030302C
:10279000C4B201204FF6FF7300220521CDE90040AD
:1027A0001520FEF7CDFA002012232B220F210090D6
:1027B0002820FDF7D5FC00201C232B221921009096
:1027C0002820FDF7CDFC444840790A2190FBF1F028
:1027D0003030C4B201204FF6FF7300220521CDE94D
:1027E00000402F20FEF7ACFA3B4840790A2190FBCD
:1027F000F1F201FB12003030C4B201204FF6FF733A
:1028000000220521CDE900403F20FEF799FAFFF7AD
:10281000F4FE3248007800282CD12148007848B9CD
:10282000214988690CF04AFE044601220021FFF785
:1028300013FE09E01C4988690CF040FE04460122A1
:102840004FF47841FFF708FE1A484FF6FF73002255
:102850002D2100906420FEF792FB44F620610120B8
:1028600009F0A7F910B91EA00DF00CF900202149BC
:10287000087052E01948007801284ED10A49886949
:102880000CF01CFE044600221F21FFF7E5FD09485D
:102890004FF6FF7300222FE000002041F05A01089C
:1028A000F0000020B8470108BC0400207047010870
:1028B000284701089048010848480108F100002015
:1028C0008D0100200048010882030020D001002073
:1028D0009C0400209E040020F2000020C80100207B
:1028E0005B4572725D20416C61726D204661696C5E
:1028F0000D0A00008C0100202D2100906420FEF7BD
:102900003EFB42F21071022009F053F910B9FBA00E
:102910000DF0B8F80220FE490870642009F007F9AC
:102920001CBD08B54FF6FF706C2382222821009051
:102930000520FDF715FC08BD38B505460C464FF6D9
:10294000FF7015231A46002100900846FDF708FC89
:102950004FF6FF701523A022002100909020FDF774
:10296000FFFB55B1EB484FF6FF734FF4784205215A
:1029700000900846FEF759FB08E0E6484FF6FF7363
:102980000022052100900846FEF74FFB54B1E248B3
:102990004FF6FF734FF47842052100908C20FEF72C
:1029A00044FB08E0DC484FF6FF730022052100904D
:1029B0008C20FEF73AFB38BD10B5D848007830B10E
:1029C0000020D64908700120D549087005E0012093
:1029D000D24908700020D2490870D0480178D04808
:1029E0000078FFF7A9FF10BDF0B585B004460F468B
:1029F000CC4903C9CDE903019FB14FF6FF754FF4F0
:102A000078463046009003A830F81400183083B29E
:102A1000C548028803A830F814100020FDF7A0FB79
:102A200011E000254FF6FF763046009003A830F8FD
:102A30001400183083B2BC48028803A830F8141080
:102A40000020FDF78DFB04BBB848009003A830F8C8
:102A50001400001D81B233462A460A20FEF73AFBD5
:102A6000B3480580B348068000201021B2A2CDE90A
:102A70000021029003A830F81400801C81B2334674
:102A80002A461E20FEF78DF867E0012C20D1A748CA
:102A9000009003A830F81400001D81B233462A4686
:102AA0000A20FEF717FBA2480580A24806800020F6
:102AB0001021A5A2CDE90021029003A830F814004E
:102AC000801C81B233462A461E20FEF76AF844E095
:102AD000022C20D1A148009003A830F81400001D5A
:102AE00081B233462A460A20FEF7F4FA9048058060
:102AF000904806800020102199A2CDE90021029083
:102B000003A830F81400801C81B233462A461E20E8
:102B1000FEF747F821E0032C1FD19548009003A849
:102B200030F81400001D81B233462A460A20FEF711
:102B3000D1FA7F4805807F480680002010218DA2B1
:102B4000CDE90021029003A830F81400801C81B266
:102B500033462A461E20FEF724F805B0F0BDF8B52E
:102B600004460D4616464FF6FF7000906E484388A7
:102B7000028800210846FDF7F3FA31462846FFF7A0
:102B8000DBFE012C01D1012000E0002001460020E5
:102B9000FFF72AFF022C01D1012000E000200146AE
:102BA0000120FFF721FF032C01D1012000E00020CC
:102BB00001460220FFF718FF042C01D1012000E09C
:102BC000002001460320FFF70FFFF8BD7FB5054643
:102BD0005448083000680390002476E000205449EF
:102BE00008804FF6FF70534908808CB900201021EF
:102BF00064A2CDE90021029003A830F81400001D62
:102C000081B24FF6FF7300222D20FDF7CAFF10E0BE
:102C1000002010215EA2CDE90021029003A830F827
:102C20001400001D81B24FF6FF7300222D20FDF726
:102C3000B8FF0DB1032D23D159480078A0420DD122
:102C40005848009003A830F81400001D81B20023FA
:102C50004FF6FF721420FEF7E8F934E04FF6FF70EC
:102C6000009003A830F81400143083B203A830F8A1
:102C70001400001D81B224221420FDF771FA22E015
:102C8000601CA8420ED14748009003A830F81400F9
:102C9000001D81B24FF478434FF6FF721420FEF707
:102CA000C4F910E04FF6FF70009003A830F814004C
:102CB000143083B203A830F81400001D81B224221E
:102CC0001420FDF74DFA601CC4B2022C86DB7FBDD8
:102CD000FEB504460D46164631462846FFF72CFE43
:102CE0000020134908804FF6FF7012490880002029
:102CF000102111A24FF6FF7356E000005B4572727F
:102D00005D20416C61726D2046756C6C210D0A006E
:102D10008C010020704B0108304B01088F0100200E
:102D20008E010020085B0108F4050020504C0108CA
:102D30009C0400209E0400204F7065726174696FCE
:102D40006E204D6F6465000048656174696E672090
:102D50005363686564756C6500000000604C010891
:102D6000436F6E74726F6C2041646A2E0000000025
:102D7000704C0108557365722053657474696E67F1
:102D8000730000004D616E75204D6F64650000009A
:102D90005363686564756C65204D6F646500000061
:102DA000B6010020D04A0108CDE900210290024678
:102DB00018210A20FDF7F5FE00200090FD4800884C
:102DC000001F82B22B232A210420FDF7C9F92046D7
:102DD000FFF7FCFE032C0ED100201021F6A24FF6C7
:102DE000FF73CDE9002102904FF478426C217F20DF
:102DF000FDF7D7FE0CE000201021EFA24FF6FF7385
:102E0000CDE90021029002466C217F20FDF7C9FE2A
:102E1000FEBDF8B50546012D0DD1E9480078092819
:102E200008DAE7480078401CE54908700846007851
:102E300008F02AFAAEE0022D0DD1E1480078002812
:102E4000F8DDDF480078401EDD490870084600784C
:102E500008F01AFA9EE0032DECD1DA48007830B978
:102E6000D7480078D849D94A1278885405E0D44820
:102E70000078D749D54A12788854D4480078401C45
:102E8000D249087008460078042875DBCD480078E0
:102E9000B0B90120CB4908700020CC490870C8495E
:102EA00008704FF6FF700090C248438802880021E6
:102EB0000846FDF755F9C348007808F03BFA69E089
:102EC0000126002409E0C048005DC149095D88422F
:102ED00001D0002603E0601CC4B2042CF3DB00BF69
:102EE000002E30D0002405E0B748015DB9480155F7
:102EF000601CC4B2042CF7DB0AF05CFB10B1B6A076
:102F00000CF0C0FD1620BB4908700020BA490870BB
:102F10000120BA4908700020B9490870B949087001
:102F20004FF6FF700090A3484388028800210846AE
:102F3000FDF716F9B3480278B1480178AF48007838
:102F400007F0EDF816E000209E4908709F490870D0
:102F50009B49087005F0DAFB4FF6FF70009095482A
:102F60004388028800210846FDF7FAF89548007862
:102F700008F0E0F90EE0FFE79248007828B993489E
:102F80000178914808F096F804E09048017890485C
:102F900008F090F8F8BD00B587B09B48407808B9B4
:102FA00007B000BD93480078002873D19748007897
:102FB00097490978884205D0954800789349087068
:102FC000FFF71BFB90480078012803D08E4800785B
:102FD000022860D18F48007858B100208D490870D0
:102FE0008D484FF6FF730022482100908820FDF79E
:102FF000C6FF7848283890F82E00012818D10A20FA
:103000007C490870002085490870012008F011FEF5
:1030100044F62061032008F0CCFD18B9AFF224304B
:103020000CF030FD7D48007805F07CFB04F01ABA06
:1030300002207049087067482838806906900CF0B3
:103040003DFA77490860012008F0F3FD42F2107163
:10305000022008F0AEFD18B9AFF260300CF012FD9E
:10306000012070490870FFF75CFC5A4828388069D5
:1030700005900CF023FA00221F210690FFF7ECF9CF
:1030800069484FF6FF7300222D2100906420FDF760
:1030900076FFCBE739E05C4800780328C6D15D486D
:1030A000007820B3032053490870012008F0C1FDC7
:1030B00044F62061032008F07CFD18B9AFF2C4305B
:1030C0000CF0E0FC00204E49087001204D490870CA
:1030D00000204A4908704B4802784948017847481F
:1030E0000078FFF73CFD0120434908709EE701206E
:1030F0004849087048484FF6FF734FF4784248211A
:1031000000908820FDF73BFF90E73A4800780128BF
:103110004ED13E4800783E490978884205D03C4867
:1031200000783A490870FFF768FA374800780028B5
:103130003FD03548007804283BD02648283890F8FE
:10314000270001287ED119202A49087000201F4934
:1031500008701B49087005F0D9FA642008F0E7FCF4
:1031600044F62061032008F024FD18B9AFF2744042
:103170000CF088FC4FF6FF7000900E4840880690D7
:103180000C4800880590024600210846069BFCF783
:10319000E7FF0020254908804FF6FF70244908808A
:1031A0000020102123A24FF6FF73CDE900214AE051
:1031B000A3E069E0F405002053617665000000009B
:1031C000F6010020F5010020EC010020F4010020B0
:1031D000F0010020E40400205B4572725D20466C23
:1031E000617368207772697465206661696C210D6E
:1031F0000A0000008C0100209101002090010020B5
:103200008E0100208F0100207C030020C9010020D6
:10321000F00000208D01002000480108F901002085
:1032200094010020C8010020904801089C0400205F
:103230009E040020456E7465722050696E20436FB5
:10324000646500000FE0029002460A210846FDF77F
:10325000A8FCFE480178FE4807F02CFFFD480078E6
:1032600008F012F8E2E60020FB49087044F62061FD
:10327000012008F09EFC18B9AFF280500CF002FC5F
:10328000642008F054FCD1E6F44800780428E9D121
:103290001F20F14908700120F14908700020F14910
:1032A00008700120F04908700020F04908704FF6BE
:1032B000FF700090EE4840880690ED480088059029
:1032C000024600210846069BFCF74AFFE6480278C2
:1032D000E4480178E548007807F08FFE642008F0A4
:1032E00026FC44F62061032008F063FC0028B9D1D5
:1032F000AFF2F8500CF0C6FB98E6D74800780228E9
:103300007ED1D6480078012830D1DA48806805900F
:103310000CF0D4F80690D848016806980CF05EF9D5
:1033200007D24FF07E51D44800680BF058FFD249C5
:103330000860D14800680CF0E8F802460B46CDE979
:103340000401CEA00CF09EFBFFF7EBFA00221F2138
:10335000C9480068FFF780F8CD484FF6FF73002298
:103360002D2100906420FDF70AFE5FE6BB4800783F
:10337000022830D1BF48C06805900CF09FF8069035
:10338000BD48016806980CF01FF907D24FF07E5136
:10339000B94800680BF075FFB7490860B648006887
:1033A0000CF0B3F802460B46CDE90401B3A00CF0D3
:1033B00069FBFFF7B6FA00221F21AF480068FFF74C
:1033C0004BF8B3484FF6FF7300222D210090642084
:1033D000FDF7D5FD2AE6A148007803288CD100200E
:1033E0009D490870A44800680CF076F8A1498861EE
:1033F0000020A8490870FFF794FA9E48806900E011
:1034000026E005900CF05AF8012200210690FFF703
:1034100023F89F484FF6FF7300222D21009064206F
:10342000FDF7ADFD0AF0C6F818B1AFF254200CF06C
:1034300029FB022008F0FDFB44F62061012008F082
:10344000B8FB002891D1AFF24C700CF01BFBEDE5FE
:103450008148007803287DD181480078E8B37F480F
:103460000078012803D07D480078022802D1FFF7B8
:10347000A3FADBE5794800780328ABD17A480078D5
:1034800090B101207949087000207549087075498C
:1034900008707549087008460278724801787348C8
:1034A0000078FFF75CFBC1E500206B4908706C49B0
:1034B000087079490870774908704FF6FF700090DE
:1034C0006B48408806906A480088059002460021B3
:1034D0000846069BFCF744FE00E005E0FFF737F9DD
:1034E000032008F0A6FBA1E55C480078022819D16A
:1034F0005E4800780428AADA5C480078401EC0B212
:1035000000210690FFF770FA58480078401C574990
:10351000087008460078401EC0B201210690FFF7EF
:1035200063FA83E54D480078012833D14F4800788D
:10353000012817DD4D480078401EC0B200210690DA
:10354000FFF752FA49480078401E4849087008467B
:10355000007800E0FDE0401EC0B201210690FFF7B8
:1035600043FA63E501203E49087000203D49087098
:1035700001203D490870084601783A480078FFF775
:10358000DBF9002039490870002138480078FFF73E
:103590002BFA4BE531480078032884D13348007872
:1035A000022825D106202C49087001202C490870DA
:1035B00000202E4908702B49087001202A49087004
:1035C0004FF6FF7000902A484088069028480088EF
:1035D0000590024600210846069BFCF7C1FD2248E3
:1035E0000278204801782148007804F047F91DE569
:1035F0001E480078032853D10B201749087001207A
:1036000017490870002019490870164908700120F0
:10361000154908700020214908704FF6FF7000908E
:103620001348408806901248008805900246002101
:103630000846069BFCF794FD0B4802780948017880
:103640000A48007805F08EFAF0E40000F40100204A
:10365000EC010020F60100208C0100207C030020FA
:10366000910100208E0100208F0100209001002098
:10367000F4050020BC040020940100205B496E6624
:103680005D20446973703A252E31660D0A000000F2
:1036900090480108C80100208D01002099010020F8
:1036A000FE480078042825D11620FD490870012025
:1036B000FC4908700020F9490870FB490870012096
:1036C000FA4908704FF6FF700090F948408806905C
:1036D000F74800880590024600210846069BFCF743
:1036E0003FFDF2480278F0480178EC48007806F097
:1036F00016FD9BE4E94800780128A5D10520E8499A
:1037000008700120E74908700020E4490870E64984
:1037100008700120E5490870E64890F82E00E64957
:1037200008704FF6FF700090E14840880690E0482E
:1037300000880590024600210846069BFCF710FD14
:10374000DA480278D8480178D4480078FFF7C0FA00
:103750006CE4D3480078052878D1D2480078E8B3E3
:10376000D6480078012803D0D4480078022802D136
:10377000FFF722F95AE4D14800780328B9D1CB48A1
:10378000007898B10020C74908700120C34908702B
:103790000020C5490870C549087008460278C2482B
:1037A0000178BE480078FFF793FA3FE40320BC4954
:1037B00008700020BB4908700120B849087000203B
:1037C000B9490870B94908704FF6FF700090B848C1
:1037D00040880690B6480088059000E00EE002465A
:1037E00000210846069BFCF7BBFCB0480278AE48B7
:1037F0000178AA480078FFF7B2F917E4A7480078E3
:10380000012803D0A5480078022856D1AB4800789B
:1038100002280BD1A1480078012899D102209F49A4
:10382000087008460078FFF7D1F932E4A348007821
:10383000012823D199480078022808D1012097490E
:10384000087008460078FFF7C1F922E487E0934842
:10385000007801288ED19349087000208F490870A4
:1038600091490870012091490870084602788E48F5
:1038700001788A480078FFF72BFA0AE48F4800782D
:10388000032892D185480078012803D100208A4975
:10389000087006E081480078022802D1012086499C
:1038A000087003207D490870804802787E480178BE
:1038B0007A480078FFF70CFA18E478480078032873
:1038C0009BD17E480078032830D1754908700020CC
:1038D000744908700120714908700020724908700D
:1038E0007249087074480078724981F82E0009F016
:1038F00061FE18B1AFF220700CF0C4F84FF6FF7003
:1039000000906B4840880690694800880590024600
:1039100000210846069BFCF723FC644802786248B5
:1039200001785E480078FFF71AF99BE46348007855
:10393000012803D061480078022886D10120574928
:1039400008700020584908705849087008460278E5
:103950005548017851480078FFF7BAF982E4504899
:103960000078062870D14F480078E0B353480078BB
:10397000012803D051480078022802D1FFF71CF833
:1039800070E44E480078032896D14848007898B1F2
:103990000020444908700120404908700020424935
:1039A000087042490870084602783F4801783B4851
:1039B000007803F063FF55E40320394908700020C4
:1039C00038490870022035490870002036490870CF
:1039D0003649087008460278334801782F48007845
:1039E000FFF7BDF83EE4FFE734480078022813D122
:1039F0002A480078032898DA00212848007803F044
:103A00009FFE26480078401C244908700121234865
:103A1000007803F095FE25E42848007801282BD192
:103A20001E480078012810DD00211C48007803F0B2
:103A300087FE1A480078401E18490870012117486F
:103A4000007803F07DFE0DE499E00120154908702F
:103A500000201249087014490870012013490870A9
:103A60000846017810480078FEF766FF0B48017899
:103A7000012003F065FE06E41048007803289AD17F
:103A800006480078012840D10720054908700948F8
:103A900090F82C000A490870012013E090010020E2
:103AA0008C010020910100208E0100208F01002058
:103AB000F4050020BC040020B60100207C03002097
:103AC000BE010020FC4908700020FC49087001205C
:103AD000FB4908700020FB4908704FF6FF7000900A
:103AE000F94840880690F848008805900246002171
:103AF0000846069BFCF734FBF1480278EF48017852
:103B0000F048007803F0DEFF2FE4EE48007802284A
:103B100003D0EC480078032895D1EA4800780228C1
:103B200001D0012000E00020E84908700820E849A1
:103B300008700120E04908700020E0490870012069
:103B4000DF4908700020DF490870E24908704FF62D
:103B5000FF700090DC4840880690DB4800880590A4
:103B6000024600210846069BFCF7FAFAD448027880
:103B7000D2480178D348007804F01EF92AE4D448EA
:103B80000078072877D1CC48007801284BD1D2485B
:103B90000078012803D0D0480078022802D1FEF72F
:103BA0000BFF17E4CC4800780328ADD1C348007858
:103BB00020B30620C64908700120C24908700020C1
:103BC000BE490870BE490870BB4908704FF6FF70C7
:103BD0000090BD4840880690BB480088059002468A
:103BE00000210846069BFCF7BBFAB5480278B348AB
:103BF0000178B448007803F041FE28E40120B1497F
:103C000008700020AD490870AD490870AA490870D5
:103C1000AB480178A9480078FEF78EFEAF480078DF
:103C200003F0DCFE13E4A7480078012834D1AA4849
:103C3000007802280DD1A948007801289EDDA74808
:103C40000078401EA54908700846007803F0C6FEBB
:103C50000FE4A148007801280ED1A048007802287E
:103C60008CDA9E480078401C9C4908700846007811
:103C700003F0B4FE17E45FE097480078032890D182
:103C80000220904908708E4802788C4801788D484F
:103C9000007803F017FF06E48A4800780228ACD1C8
:103CA0008D480078012803D08B48007802280ED177
:103CB00000208149087001208249087080480278FC
:103CC0007E4801787F48007803F0FCFE0BE48248D0
:103CD0000078032891D106207D490870002076499C
:103CE0000870764908707649087001207549087097
:103CF0007A4800787A4981F82C0009F05BFC18B109
:103D0000AFF62C300BF0BEFE4FF6FF7000906E4801
:103D1000408806906C4800880590024600210846BD
:103D2000069BFCF71DFA66480278644801786548EE
:103D3000007803F0A3FD14E465480078082876D1E4
:103D40005D48007898B364480078012803D0624841
:103D50000078022802D1FEF72FFE1AE45E480078B0
:103D6000032887D15648007890B100205249087046
:103D70005249087052490870012052490870504851
:103D800002784E4801784F48007804F015F82EE488
:103D900006204F49087000204749087047490870BD
:103DA000474908704948007810B9022001E01AE03C
:103DB0000320444908704FF6FF7000904248408845
:103DC0000690414800880590024600210846069B5F
:103DD000FCF7C6F93A480278384801783948007843
:103DE00003F04CFD30E43C48007802287AD1354895
:103DF000007807289FDA3348007806903148007829
:103E0000401C304908703348007805900846007817
:103E100006280DDC084601782E480078001D8142F6
:103E20000DDD28480078001F2A49087007E090E15E
:103E300028480078032802DA03202649087025491B
:103E400009780598884206D0002211461D4800785E
:103E500003F0B2FF61E01F4909780698401AC0B22A
:103E60000490184800781B490978401AC0B20390A2
:103E70000698072810D1002003F0A8FE114800780A
:103E8000401EC0B202900398401EC0B201220190B1
:103E9000029903F0C3FE3FE00A480078072822D1C8
:103EA0000498401EC0B200220290069903F0B6FEAC
:103EB000012003F08BFE2FE0910100208E010020F5
:103EC0008F01002090010020F4050020FD0100205A
:103ED0008C010020980100207C030020BE010020FE
:103EE000BC0400201AE00698401EC0B2029004985C
:103EF000401EC0B200220190029903F08FFEF948E3
:103F00000078401EC0B202900398401EC0B2012249
:103F10000190029903F082FE00BF19E4F248007894
:103F2000012873D1EF480078012871DDED48007851
:103F30000690EC480078401EEA490870EB4800788B
:103F4000059008460078401EE8490978884204DA5E
:103F5000E4480078401EE5490870E449097805986E
:103F600088420AD0DF480078062806D00022114691
:103F7000DC48007803F020FF47E0DC490978069828
:103F8000401AC0B20490D7480078D8490978401A3E
:103F9000C0B203900698072810D1D2480078401E7E
:103FA000C0B202900398401EC0B201220190029953
:103FB00003F034FE002003F009FE25E0C948007834
:103FC000072808D100220699049803F027FE012053
:103FD00003F0FCFD18E00698401EC0B20290049861
:103FE000401EC0B200220190029903F017FEBD48A6
:103FF0000078401EC0B202900398401EC0B2012259
:104000000190029903F00AFE00BF0EE415E0FFE7FD
:104010000120B74908700020B64908700120B64950
:1040200008700020AF490870B3480278B1480178A1
:10403000AC48007803F0C0FE07E4AB4800780328E2
:10404000E3D1A8480078072829D10620AB49087099
:104050000020A7490870A7490870A7490870A84818
:10406000007808B9022000E003209E4908704FF64E
:10407000FF700090A34840880690A24800880590F1
:10408000024600210846069BFCF76AF89A48027827
:10409000984801789348007803F0F0FB0CE49148CD
:1040A00000780628B1DC0920944908708D48007812
:1040B0009549087001208E49087000208D490870CC
:1040C00001208D4908700020864908708C480078CE
:1040D00008B18E4801E08D48183806908A4801786A
:1040E000491E069810F82100894908708648017811
:1040F000491E069800EB8100407886490870824886
:104100000178491E069800EB81008078824908708A
:104110007D480178491E069800EB8100C0787F49F0
:1041200008704FF6FF7000907648408806907548FA
:1041300000880590024600210846069BFCF710F80F
:104140006D4802786B4801786F48007803F067FE8D
:1041500004E46A480078092874D165480078D8B327
:1041600061480078012803D05F480078022802D116
:10417000FEF722FC04E45C48007803288ED15E48F8
:10418000007898B1012057490870002059490870FB
:1041900059490870564908705748017855480078C1
:1041A000FEF7CAFB012004F070F804E4082053492C
:1041B000087000204E4908704E4908704E4908703A
:1041C000514800784749087008460078042804DC04
:1041D00000204649087005E01CE042480078001FB6
:1041E000424908704FF6FF7000904648408806909C
:1041F000444800880590024600210846069BFBF7CC
:10420000AFFF3D4802783B4801783648007803F01C
:10421000D3FD18E433480078012836D132480078BD
:10422000012810D13A480078172805DA3848007874
:10423000401C3749087002E000203549087004F03E
:10424000E7F818E435E12848007802280FD1304813
:104250000078002805DD2E480078401E2C490870A3
:1042600002E017202A49087004F0D2F84CE41E48F6
:104270000078032899D102201A490870012004F01F
:1042800053F8022004F001F83EE4164800780228B2
:1042900053D11548007801280FD11E4800783B28DB
:1042A00005DA1C480078401C1A49087002E000201A
:1042B0001849087004F0ACF826E40B48007802288E
:1042C0002ED114480078002805DD12480078401EE1
:1042D0001049087002E03B200E49087004F098F87D
:1042E00012E40000900100207C03002098010020CF
:1042F000910100208E0100208F0100208C01002000
:10430000FD010020F4050020F70100200905002030
:10431000FA010020FB010020FC010020F801002030
:10432000FD48007803288CD1FC490870022003F076
:10433000FBFF032003F0A9FF20E4F84800780328DE
:1043400030D1F548007801280DD1F5488068F5494D
:104350000978884204DDF3480078401CF149087070
:1043600004F0DCF80AE4EC48007802280DD1EC48AF
:10437000C068EC490978884204DAEA480078401EAF
:10438000E849087004F0CAF80BE4E3480078032811
:1043900092D10420E1490870032003F0C5FF04F026
:1043A000F8F82AE4DD48007804281FD1DA480078BC
:1043B000012803D0D848007802280BD1DA480078C9
:1043C000012801D0012000E00020D749087004F046
:1043D000E0F812E4D04800780328ADD10520CF4999
:1043E000087004F0D6F804F06AF906E4CB480078C7
:1043F0000528A1D1C848007803289DD1CB48007872
:10440000401EC0B20690CA48007810B1C4484D3072
:1044100001E0C34835300590C6480278DDE9050162
:1044200000F82120C4480278DDE9050100EB810095
:104430004270BC480278DDE9050100EB8100827022
:10444000B9480278DDE9050100EB8100C27009F08E
:10445000B1F810B1B9480BF015FB0820B849087045
:10446000B2480078AD49087008460078042803DC9B
:104470000020B449087004E0A8480078001FB14942
:1044800008704FF6FF700090AF4840880690AE4825
:1044900000880590024600210846069BFBF760FE57
:1044A000AA480278AA4801789C48007803F084FC66
:1044B0000CE4A34800780B287ED1A6480078E8B326
:1044C00095480078012803D093480078022802D14B
:1044D000FEF772FA2FE490480078032885D19B48B4
:1044E0000078A8B100209B49087001208B49087012
:1044F00000209749087095490870974908709348BB
:104500000278934801788548007804F02BFB12E488
:1045100003208B49087000208E49087003207F49D2
:10452000087000208A490870884908704FF6FF70AB
:104530000090854840880690834800E010E000889D
:104540000590024600210846069BFBF709FE7F48BE
:1045500002787F48017871480078FEF700FB16E486
:104560006D480078022847D16C48007807289FDA08
:104570006A48007806907848007805906748007887
:10458000401C664908700846017873480078001D91
:10459000814204DD61480078001F6F4908706E4851
:1045A0000078032802DD03206B4908706A49097806
:1045B000059888420AD000E0EBE16448027864483C
:1045C00001785648007804F0CDFA14E00698401EB1
:1045D00061490978401AC0B20021049004F06BFAD6
:1045E0004E480078401E5C490978401AC0B201214B
:1045F000049004F060FA90E447480078012858D10C
:1046000046480078012841DD444800780690524829
:104610000078059041480078401E404908700846DF
:104620000078401E4C490978884204DA3B480078FB
:10463000401E4949087048480078032802DD0320DD
:1046400045490870444909780598884208D03F4890
:1046500002783F4801783148007804F083FA14E08A
:104660000698401E3C490978401AC0B200210490C7
:1046700004F021FA29480078401E37490978401A89
:10468000C0B20121049004F016FA46E40120314939
:1046900008702F49087000202C4908701F490870C5
:1046A0002A4802782A4801781C48007804F05AFA0F
:1046B00033E41948007803289DD118480078012870
:1046C0004ED10C201E49087001202249087000209C
:1046D000124908701E49087001201C4908701048D2
:1046E00090F82F001D4908704FF6FF700090164893
:1046F000408806901448008805900246002108462C
:10470000069BFBF72DFD11480278114801780348FC
:10471000007804F0BEFA78E47C03002090010020C9
:10472000BC040020FC010020F8010020F70100205B
:10473000FD010020FA010020FB010020D831000813
:104740008C01002098010020F40500208F0100203A
:104750008E0100209101002099010020B701002066
:10476000FD48007803282FD10D20FC490870012056
:10477000FB4908700020F8490870FA4908700120C8
:10478000F9490870F94890F83000F9490870F7487D
:1047900090F83100F74908704FF6FF700090F64826
:1047A00040880690F448008805900246002108469B
:1047B000069BFBF7D5FCEC480278EA480178E6480E
:1047C000007805F035FA20E4E348007802282FD17C
:1047D0000E20E24908700120E14908700020DE49FE
:1047E0000870E04908700120DF490870DF4890F840
:1047F0003300E2490870DD4890F83400E049087061
:104800004FF6FF700090DC4840880690DA48008838
:104810000590024600210846069BFBF7A1FCD24802
:104820000278D0480178CC48007805F003FB35E4E5
:10483000C9480078042826D11020C84908700120F2
:10484000C74908700020C74908700120C649087090
:104850000020C14908704FF6FF700090C64840889C
:104860000690C54800880590024600210846069B30
:10487000FBF776FCBC480278BA480178B648007865
:1048800004F0DEFA0AE4B4480078052826D11120A5
:10489000B24908700120B24908700020B14908707F
:1048A0000120B14908700020AB4908704FF6FF7035
:1048B0000090B14840880690AF48008805900246B5
:1048C00000210846069BFBF74BFCA7480278A54849
:1048D0000178A148007804F076FB39E49E4800781E
:1048E000062826D112209D49087001209C49087095
:1048F00000209C49087001209B49087000209649BF
:1049000008704FF6FF7000909B48408806909A48C8
:1049100000880590024600210846069BFBF720FC14
:10492000914802788F4801788B48007804F097FB13
:104930000EE4894800780728A4D11520874908701B
:1049400001208749087000208649087001208649A7
:104950000870002080490870844890F82200894936
:1049600008704FF6FF700090834840880690824898
:1049700000880590024600210846069BFBF7F0FBE5
:1049800079480278774801787348007804F0FCFE93
:104990000BE4724800780C2875D171480078012822
:1049A00049D179480078012803D077480078022857
:1049B00002D1FEF701F82CE47348007803288CD16B
:1049C0006948007890B10020654908706649087010
:1049D00064490870012060490870634802786148A2
:1049E00001785D48007804F054F912E40B205B492B
:1049F000087000205A4908705A4908705A490870CE
:104A00000120554908704FF6FF7000905A484088C1
:104A10000690594800880590024600210846069BEA
:104A2000FBF79EFB504802784E4801784A480078D0
:104A300004F098F805E448480078012843D152482A
:104A4000007802280DD1514800780128A0DA4F489B
:104A50000078401C4D4908703F48007804F0B6F8D3
:104A600004E449480078012821D14848007800280A
:104A70000ADD46480078401E4449087036480078F0
:104A800004F0A4F818E485E001203549087036499F
:104A900008700020334908702F49087032480278A6
:104AA000304801782C48007804F0F3F804E43648E4
:104AB0000078032899D10220274908700846007819
:104AC00004F084F80CE42448007802288DD12E48A4
:104AD000007803282FD10B2020490870002020499E
:104AE0000870204908702049087001201A49087090
:104AF000264800781D4981F82F0008F05BFD10B1B1
:104B000023480AF0BFFF4FF6FF7000901A48408814
:104B10000690194800880590024600210846069B29
:104B2000FBF71EFB104802780E4801780A4800780F
:104B300004F018F816E414480078012803D012484D
:104B4000007802288CD101200349087008460078BB
:104B500004F03CF806E40000900100208C010020E5
:104B6000910100208E0100208F010020BC04002054
:104B7000CA010020CB010020F4050020CC01002058
:104B8000CD010020B80100207C030020B7010020E7
:104B9000D8310008FE48007810287DD1FD48007803
:104BA000012853D1FC480078012803D0FA48007846
:104BB000022802D1FDF700FF0BE4F7480078032834
:104BC000B8D1F6480078E0B10020F2490870F34906
:104BD0000870F34908700120F2490870F248006833
:104BE000F2490860F0484068F1490860EB480178F4
:104BF000EB480078FDF7A0FEEA48007804F0AFF833
:104C000056E40B20E24908700020E2490870E449AC
:104C10000870E24908700220E24908704FF6FF7000
:104C20000090E44840880690E248008805900246DB
:104C300000210846069BFBF793FAD8480278D8482B
:104C40000178D848007803F08DFF31E4D54800782A
:104C5000012855D1D0480078012821D1D3480068D7
:104C60000AF053FC0022D44BCDE904010AF060FCA9
:104C7000A2D2CE4800680AF048FC0022CF4BCDE912
:104C800002010AF074FBCDE904010AF081FCC74976
:104C90000860C448007800E0D3E004F060F807E45E
:104CA000BD48007802281FD1C04800680AF02DFCDA
:104CB0000022C34BCDE904010AF052FCA0D2BB484C
:104CC00000680AF022FC0022BC4BCDE902010AF088
:104CD000EFFBCDE904010AF05BFCB4490860B14880
:104CE000007804F03CF812E4AB480078032887D140
:104CF0000220AC4908700846007804F030F806E459
:104D0000A8480078022852D1A348007801281FD172
:104D1000A74800680AF0F9FB0022A74BCDE904017F
:104D20000AF006FC91D2A24800680AF0EEFB0022CD
:104D3000A24BCDE902010AF01AFBCDE904010AF009
:104D400027FC9B4908609748007804F008F806E4BF
:104D50009148007802281FD1954800680AF0D5FBD9
:104D60000022974BCDE904010AF0FAFB97D2904854
:104D700000680AF0CAFB0022904BCDE902010AF05C
:104D800097FBCDE904010AF003FC894908608548D6
:104D9000007803F0E4FF2EE47F4800780328A2D1D6
:104DA000804908700846007803F0D9FF23E47D4865
:104DB0000078032897D178480078032831D10B2058
:104DC0007349087000207349087075490870734969
:104DD00008700220734908707448006872490860BE
:104DE00073480068486008F0E5FB10B175480AF0A8
:104DF00049FE4FF6FF7000906E48408806906D485F
:104E000000880590024600210846069BFBF7A8F99A
:104E100062480278624801786248007803F0A2FE96
:104E200033E45D480078012803D05B48007802280D
:104E30008DD101205B4908700846007803F08FFF90
:104E400023E45348007811287DD152480078012886
:104E500053D151480078012803D04F4800780228E8
:104E600002D1FDF7A9FD10E44B480078032892D148
:104E70004A480078E0B10020464908704749087068
:104E800047490870012047490870474880684E49E3
:104E900008604548C0684D4908604048017840486E
:104EA0000078FDF749FD3F48007804F015F832E43A
:104EB0000B203749087000203649087038490870BF
:104EC000364908700320374908704FF6FF7000908C
:104ED00038484088069037480088059002460021EF
:104EE0000846069BFBF73CF92C4802782C480178D1
:104EF0002C48007803F036FE0DE42A48007801289B
:104F000031D12548007801280DD12F480068462866
:104F100086DA2D480068401C2B490860214800783B
:104F200003F0DAFF4FE41C48007802280FD126482E
:104F30000068142884DD24480068401E2249086067
:104F40001848007800E0AEE003F0C6FF3BE41248EA
:104F50000078032887D1022012490870084600789B
:104F600003F0BAFF2FE40F480078022851D10A4815
:104F7000007801282FD1154800680A2897DA1348CD
:104F80000068401C114908600648007820E00000D5
:104F90008C010020910100207C0300208F01002063
:104FA0008E01002090010020BC0400209C01002004
:104FB000A0010020F4050020000014400000E03FA4
:104FC000000014C0D8310008A4010020A80100206E
:104FD00003F082FF2BE4FD48007802280ED1FC4844
:104FE000006810F10F0F87DDF9480068401EF8498E
:104FF0000860F848007803F06FFF18E4F348007881
:1050000003288FD1F34908700846007803F064FF45
:105010000DE4F0480078032884D1EC480078032898
:1050200031D10B20EC4908700020EC490870EC49A4
:105030000870EC4908700320E6490870EA480068E7
:10504000EA498860E2480068C86008F0B3FA10B125
:10505000E7480AF017FD4FF6FF700090E5484088DA
:105060000690E44800880590024600210846069B09
:10507000FBF776F8DB480278D9480178D548007804
:1050800003F070FD29E4D1480078012803D0CF480F
:10509000007802289ED10120CE4908700846007889
:1050A00003F01AFF19E4CC480078122879D1CB48D4
:1050B0000078012849D1C5480078012803D0C348A9
:1050C0000078022802D1FDF777FC06E4BF4800789B
:1050D000032892D1C348007890B10020BF490870DE
:1050E000C0490870BE4908700120BA490870BD481F
:1050F0000278BB480178B748007803F0B0FF17E4A6
:105100000B20B54908700020B4490870B4490870F4
:10511000B44908700420AF4908704FF6FF70009042
:10512000B44840880690B3480088059002460021A4
:105130000846069BFBF714F8AA480278A8480178AD
:10514000A448007803F00EFD22E4A048007802286D
:1051500011D1A0480078022894DA9E480078401CBB
:105160009C4908709F4802789D48017899480078CA
:1051700003F075FF0CE495480078012829D1954883
:10518000007802280ED193480078401E914908709B
:1051900094480278924801788E48007803F05FFFC7
:1051A00009E470E08B48007801288ED100208949FD
:1051B00008708B49087001208A4908708749087077
:1051C00088480278864801788248007803F047FFD3
:1051D0000BE47E480078032891D17E4800780128AE
:1051E00026D113207C49087001207C4908700020DA
:1051F0007B49087001207B490870002075490870C0
:105200004FF6FF7000907B484088069079480088F0
:105210000590024600210846069BFAF7A1FF714857
:1052200002786F4801786B48007804F0EFF817E4D3
:1052300068480078022887D1142067490870012047
:1052400066490870002066490870012065490870A9
:105250000020604908704FF6FF7000906548408854
:105260000690644800880590024600210846069B87
:10527000FAF776FF5B48027859480178554800787C
:1052800004F0B2F912E45448007813287ED1534850
:105290000078012852D14D480078012803D04B48AE
:1052A0000078022802D1FDF787FB0BE4474800781D
:1052B00003288DD14B480078D8B14C4800694E493D
:1052C00008604A4890F820004C4908700020434983
:1052D0000870444908704249087001203D4908702F
:1052E000404802783E4801783A48007804F08EF849
:1052F00020E41220384908700020384908703849E5
:105300000870384908700120324908704FF6FF7064
:10531000009038484088069036480088059002463C
:1053200000210846069BFAF71BFF2E4802782C48FE
:1053300001782848007803F092FE0BE425480078B5
:10534000012830D12148007801280DD12A48006871
:10535000462897DA28480068401C274908601D48FD
:10536000007803F0CDFF27E41848007802280ED11A
:10537000214800681E2885DD1F480068401E1E4920
:1053800008601448007803F0BBFF15E496E00F486E
:105390000078032889D102200E4908700846007859
:1053A00003F0AEFF08E40B48007802283BD1074821
:1053B0000078012803D005480078022828D10F483A
:1053C0000078E8B100200D4908701CE07C03002043
:1053D000A8010020900100208C01002091010020F4
:1053E0008E0100208F010020A4010020BC040020B9
:1053F000D8310008F4050020AC010020B4010020E1
:105400000120F8490870F848007803F079FF1CE49F
:10541000F6480078032890D1F349087008460078D0
:1054200003F06EFF11E4F0480078032885D1EF48BF
:105430000078032832D11220ED4908700020ED4990
:105440000870ED490870ED4908700120E6490870C0
:10545000EB480068EB490861E248007881F82000D9
:1054600008F0A8F810B1E8480AF00CFB4FF6FF70FE
:105470000090E64840880690E4480088059002467F
:1054800000210846069BFAF76BFEDC480278DA48F2
:105490000178D548007803F0E2FD24E4D348007891
:1054A000012803D0D14800780228B0D10120CE498C
:1054B00008700846007803F023FF14E4CC48007815
:1054C00014287DD1CB480078012852D1C7480078F4
:1054D000012803D0C5480078022802D1FDF76CFAF4
:1054E0000DE4C2480078032891D1C4480078D8B1AF
:1054F000C4484069C6490860C24890F82100C549BF
:1055000008700020BB490870BC490870BA4908708F
:105510000120B5490870B9480278B7480178B24807
:10552000007804F061F812E41220B14908700020FC
:10553000B0490870B0490870B04908700220AA4903
:1055400008704FF6FF700090B04840880690AF4852
:1055500000880590024600210846069BFAF700FEE7
:10556000A6480278A44801789F48007803F077FDA8
:1055700011E49D480078012832D19C480078012828
:105580000DD1A34800680A2887DAA1480068401CAA
:105590009F4908609448007803F07BFF06E4934835
:1055A0000078022810D19A48006810F10F0F84DDAE
:1055B00097480068401E964908608B48007800E0D4
:1055C0007EE003F066FF2BE488480078032887D14B
:1055D0000220854908700846007803F05AFF1FE44E
:1055E00081480078022820D180480078012803D023
:1055F0007E48007802280DD186480078012801D025
:10560000012000E00020834908707748007803F00B
:1056100040FF05E475480078032884D1724908707A
:105620000846007803F035FF0AE46F480078032845
:105630009ED16E480078032832D112206C49087040
:1056400000206C4908706C4908706C490870022091
:10565000654908706E4800686A4948616D4800787D
:1056600081F8210007F0A6FF10B167480AF00AFA96
:105670004FF6FF70009065484088069063480088A8
:105680000590024600210846069BFAF769FD5B4833
:105690000278594801785448007803F0E0FC06E4A9
:1056A00052480078012803D05048007802288AD157
:1056B00001204D4908700846007803F0EAFE1BE41B
:1056C0004B48007815286FD14A48007801284BD103
:1056D00046480078012803D044480078022802D1C7
:1056E000FDF76AF908E441480078032891D143485E
:1056F0000078A0B100203F490870404908703E4939
:1057000008700120384908703C4801783A48007810
:10571000FDF712F93448007803F0A9FF16E40B20D6
:105720003349087000203349087033490870334901
:10573000087005202C4908704FF6FF700090334820
:1057400040880690314800880590024600210846AE
:10575000069BFAF705FD2948027827480178224878
:10576000007803F0FFF935E41F480078012861D183
:105770001E480078012822D127480078012814D13A
:105780001C49087000201C49087001201B49087042
:105790000020154908701948027817480178124806
:1057A000007803F0F1FF15E493E01B480078401EF9
:1057B000194908700C48007803F059FF0AE40B48B7
:1057C000007802282AD11448007803288ADA12487F
:1057D0000078401C104908700348007803F047FF28
:1057E0000BE40000B4010020900100207C030020A5
:1057F0008C010020910100208E0100208F010020EB
:10580000AC010020BC040020D8310008F4050020C1
:10581000B0010020B5010020B8010020F94800784F
:105820000328A0D10220F84908700846007803F048
:105830001EFF27E4F4480078022894D1F14800784C
:10584000032832D10B20F14908700020F04908707C
:10585000F0490870F04908700520EB490870EF48DE
:105860000078EF4981F8220007F0A4FE10B1ED485E
:105870000AF008F94FF6FF700090EB484088069058
:10588000E94800880590024600210846069BFAF781
:1058900067FC0120E5490870DF480278DD4801789F
:1058A000D948007803F05EF90FE4D6480078012863
:1058B00003D0D4480078022892D10120D249087040
:1058C000D5480278D3480178CF48007803F05CFFD0
:1058D00015E4CE48007816287DD1CD480078E8B38D
:1058E000C8480078012803D0C6480078022802D1B1
:1058F000FDF762F828E4C3480078032899D1C64828
:105900000078A8B10020C24908700120BE49087083
:105910000020C0490870C0490870C4490870BE48DA
:105920000278BC480178B848007804F0F8FB0BE432
:105930000320B64908700020B54908700420B24918
:1059400008700020B3490870B34908704FF6FF7023
:105950000090B54840880690B34800E010E0008809
:105960000590024600210846069BFAF7F9FBAA4873
:105970000278A8480178A4480078FDF7F0F80FE411
:10598000A0480078022840D19F48007805288BDA8B
:105990009D4800780690A648007805909A480078BF
:1059A000401C9949087008460178A1480078001DFC
:1059B000814204DD94480078001F9D4908709C498D
:1059C0000978059888420AD093480278914801786E
:1059D0008D48007800E094E104F0A1FB14E0069803
:1059E000401E93490978401AC0B20021049004F087
:1059F0003FFB85480078401E8D490978401AC0B2A7
:105A00000121049004F034FB11E47E480078012861
:105A100050D17D480078012839DD7B480078069018
:105A200083480078059078480078401EC1B27648D7
:105A300001700078401E7E490978491C884202DACC
:105A400000217B4801707A4909780598884208D07E
:105A5000714802786F4801786B48007804F05FFB6A
:105A600014E00698401E72490978401AC0B200211D
:105A7000049004F0FDFA64480078401E6C490978EF
:105A8000401AC0B20121049004F0F2FA0DE40120A2
:105A90005F4908705F49087000205F4908705A49E3
:105AA00008705D4802785B4801785748007804F038
:105AB00036FB1DE4534800780328A5D152480078EE
:105AC00001282AD117205149087001205049087037
:105AD00000204D4908704F49087001204E49087058
